:020000040800F2
:10000000780A00204501000827700008EF25000845
:1000100025700008250E0008197600080000000071
:100020000000000000000000000000004B7000080D
:10003000410E000800000000497000084D700008E3
:100040005F0100085F0100085F0100085F01000810
:100050005F0100085F0100085F0100085F01000800
:100060005F0100085F0100085F0100085F010008F0
:100070005F0100085F0100085F010008290E000809
:10008000350E00085F0100085F0100085F010008ED
:100090005F0100085F0100085F0100085F010008C0
:1000A0005F0100085F0100085F0100085F010008B0
:1000B0005F0100080D7100085F0100085F01000882
:1000C0005F0100085F0100085F0100085F01000890
:1000D0005F01000815750008A97500085F01000898
:1000E0005F0100085F0100085F0100085F01000870
:1000F0005F0100085F0100085F0100085F01000860
:100100005F0100085F010008197100085F01000825
:100110005F0100085F0100085F0100085F0100083F
:100120005F0100085F0100085F0100085F0100082F
:10013000DFF80CD000F04EFC004800479186000824
:10014000780A00200648804706480047FEE7FEE799
:10015000FEE7FEE7FEE7FEE7FEE7FEE7FEE7FEE777
:10016000C570000831010008202A04DB203A21FA7A
:1001700002F00021704721FA02F3D040C2F12002C0
:10018000914008431946704740EA01039B0703D09A
:1001900009E008C9121F08C0042AFAD203E011F8C6
:1001A000013B00F8013B521EF9D27047D2B201E088
:1001B00000F8012B491EFBD270470022F6E710B56C
:1001C00013460A4604461946FFF7F0FF204610BDC5
:1001D00030B505462A460B4612F8010B13F8014BC1
:1001E00008B1A042F8D01CB1002802D06D1CF1E784
:1001F000284630BDF0B480EA0102D40F4200B2EBD1
:10020000410F02D20246084611464A0042D0C30DB1
:10021000DDB2C1F3C752AD1A202D35DAC1F3160194
:1002200041F4000204B15242C5F1200602FA06F17F
:100230002A411044B3EBD05F23D0C4B1012DA0EB11
:10024000C35009DCF0BC4FF0004202EAC352DBB2FB
:1002500000F5000000F003BB400000F1807000EBEF
:10026000C350A0F1807040EAD170490009E049080C
:1002700041EAC071A0EBC35000F50000400800EB5C
:10028000C350F0BC00F0E2BA6142012202EB41012E
:10029000001BF6E7F0BC704781F00041AAE780F050
:1002A0000040A7E72DE9FE4F804681EA0300C00F1A
:1002B0000C46009021F0004123F00045B8EB02000D
:1002C000A94105D24046214690461C460B460246AF
:1002D00023F00040104347D0270DC7F30A00C3F3B3
:1002E0000A510290401A019040286BDAC3F31300C0
:1002F00040F4801B0098924620B10023D2EB030A01
:1003000063EB0B0B01985946C0F14002504600F0D8
:100310002EFA06460D4650465946019A00F036FA26
:1003200010EB08006141002487EA115284EAE77368
:100330001A4340D0009A62B3019A012A4FEA075249
:1003400015DC001B61EB02014FF0004202EA07528C
:10035000CDE90042001C41F5801132462B4600F0E9
:10036000BBFA03B0BDE8F08F40462146F9E7001B19
:1003700061EB0201001C41F5801300185B4120185D
:10038000A2F5001747EB030140EAD570B6196D419D
:1003900011E06D084FEA360645EAC0754FEA07528C
:1003A000001B61EB0201001C41F5801149084FEA76
:1003B00030000019514132462B4603B0BDE8F04FE2
:1003C00000F07BBA0098012240000023D0EB02022B
:1003D00063EBE073009821464FEAE074B8EB00004D
:1003E00061EB0401E9E783F000435BE781F0004142
:1003F00058E72DE9FE4F81EA030404F0004421F0A0
:10040000004100944FF0000B23F0004350EA010438
:100410005ED052EA03045BD0C3F30A54C1F30A5519
:100420002C44A4F2F3340194A0FB0254C1F3130151
:1004300041F48011C3F3130343F4801301FB02441E
:1004400000FB034E840A970A44EA815447EA835723
:10045000A4FB076802958D0A05FB07854FEA932CDC
:1004600004FB0C542705029D4FEA065847EA16374D
:10047000B5EB08056EEB070C870E920E47EA811765
:1004800042EA8312A7FB0201B6EB0B0164EB000406
:100490002B0D43EA0C335E1844EB1C50DA465146F0
:1004A000E7FB0201C5F313044FEA0B3343EA14538D
:1004B0004FEA0432019C43EA0603A4F10C040294BF
:1004C000009CCDE900B400F007FA03B0BDE8F08F5E
:1004D00000200146F9E72DE9F04D81EA030404F01C
:1004E000004B21F0004514464FF0000A23F0004174
:1004F00050EA050220D054EA01021DD0C5F30A5784
:100500000246C5F31303C1F31300C1F30A5640F4C6
:10051000801543F48013A7EB0608101BD64608F29B
:10052000FD3873EB050002D308F1010801E09218D1
:100530005B41B8F1000F03DA00200146BDE8F08D01
:1005400000204FF48011064684460EE0171B73EB23
:10055000050705D3121B63EB050306434CEA010CA8
:1005600049084FEA300092185B4150EA0107EDD18B
:1005700052EA030012D082EA040083EA050108432C
:1005800005D0101BAB4106D20122002306E0002259
:100590004FF0004302E06FF0010253101AEB060027
:1005A0004CEB085110EB0A0041EB0B01BDE8F04D9C
:1005B00000F083B970B521F0004303430CD0C1F3C0
:1005C0000A550024D5EB040564EB0403D617AD1AD5
:1005D000B34102DB0020014670BD201841EB0251FF
:1005E00070BD96230022114600F039B90EB5C10F37
:1005F00080EAE0700844CA07002140F233438DE8E6
:100600000E000A460B4600F067F903B000BD0EB5B8
:1006100040F2334102910021CDE900110A460B4618
:1006200000F05AF903B000BD20F00040C10DC0F346
:10063000160040F400007F2901DA00207047962957
:1006400003DCC1F19601C840704796398840704775
:10065000C1F30A5210B5C1F3130140F2FF3341F464
:1006600080119A4201DA002010BD40F233439A42D1
:10067000A2F2334203DC5242FFF776FD10BD9040F8
:1006800010BD00F0004230F000400AD0C10D01F56D
:100690006071C0F3160042EA0151C20840071143DD
:1006A000704700200146704701F0004330B421F04C
:1006B000004150EA010206D00A0DA2F56072C1F3B2
:1006C0001301002A02DC30BC00207047440F44EACA
:1006D000C104C100E01830BC00EBC25000F0B6B855
:1006E00030B50B46014600202022012409E021FA02
:1006F00002F59D4205D303FA02F5491B04FA02F5FF
:100700002844151EA2F10102F1DC30BD2DE9F05F95
:100710000546002092469B46884606468146402470
:100720001BE02846414647462246FFF71DFD53463B
:100730005A46C01A914110D311461846224600F07D
:1007400016F82D1A67EB01084F46224601200021BA
:1007500000F00DF817EB00094E41201EA4F1010432
:10076000DFDC484631462A464346BDE8F09F202A52
:1007700004DB203A00FA02F1002070479140C2F1F8
:10078000200320FA03F3194390407047202A06DB28
:10079000CB17203A41FA02F043EAE07306E041FA4F
:1007A00002F3D040C2F1200291400843194670473D
:1007B0000FB4002300B589B00CA900910B996FF01C
:1007C0000042CB601E4B06931E4B07930423CDE9DA
:1007D00001321D4A089202466B46002000F0A6F93D
:1007E00009B05DF814FB70B586B006464FF0FF30D7
:1007F0000091CDE90101002015460C4604903246D7
:10080000694604A8FFF7D4FF02460498211825B1D1
:1008100008B1084600E020462860049800280DD062
:10082000002A02DD0098884208D0081B0094CDE918
:1008300001043246694604A8FFF7BAFF06B070BD4E
:10084000650D0008830D0008F90900080029A8BFFC
:100850007047401C490008BF20F00100704710B4E9
:10086000B0FA80FC00FA0CF050EA010404BF10BC9E
:10087000704749B1CCF1200421FA04F411FA0CF1CB
:1008800018BF012121430843A3EB0C01CB1D4FEA04
:1008900000614FEA102042BF002010BC704700EBFF
:1008A000C35010440029A4BF10BC7047401C49002D
:1008B00008BF20F0010010BC704710B5141E73F182
:1008C000000408DA401C41F1000192185B411A4310
:1008D00001D120F0010010BD2DE9F04D92469B465C
:1008E00011B1B1FA81F202E0B0FA80F22032904602
:1008F000FFF73DFF04460F4640EA0A0041EA0B01BC
:1009000053465A46084313D0114653EA010019D002
:10091000C8F140025046FFF727FC05460E465046F8
:1009200059464246FFF723FF084305D0012004E063
:1009300020463946BDE8F08D0020054346EAE076C2
:100940002C4337430A986305E40AA0EB0800002211
:10095000FD0A44EA47540A3002D500200146E9E77F
:10096000010510196941DDE9084500196941BDE833
:10097000F04DA2E7C1F30A52C1F3130140F2FF3375
:1009800041F480119A4202DA00200146704740F299
:1009900033439A42A2F2334202DC5242FFF7E4BBF5
:1009A000FFF7E5BE30B5041E71F1000404DB4FF023
:1009B0000044404264EB0101141E73F1000405DBA6
:1009C0001C464FF00043524263EB0403994208BFB8
:1009D000904230BD064C074D06E0E06840F0010350
:1009E00094E8070098471034AC42F6D3FFF7A4FB15
:1009F00030A5000850A50008C0B24FF4F05100F037
:100A0000F1B900002DE9FF4F087883B09946FF281F
:100A100005D0491C2D2804D00024002008E0002027
:100A20000BE00124F9E700EB800003EB4000491CD8
:100A30000B78FF2BF7D104B14042002302931478C6
:100A400019461D462D2C01D02B2C04D1521C2D2CC7
:100A500013D000240294AA461478FF2C0FD00A2544
:100A6000A3FB057801FB05814FF0000C03FB0C1183
:100A7000521CE3194AEB0101EEE70124EAE7814445
:100A800053EA010002D019F5C87F06DA0398002165
:100A9000C0E9001107B0BDE8F08F0025AE4E2F462B
:100AA000DFF8B882184600F0B1F9CDE90001B9F1DC
:100AB000000002DAC9F1000400E004460023A74A5E
:100AC0001AEB030B42EB045A12E0E00707D02A4668
:100AD000334638464146FFF78CFC074688462A468F
:100AE000334610461946FFF784FC05460E4664104F
:100AF000002CEAD1DDE90001B9F1000F5A46534656
:100B000006DAFFF7E8FC3A464346FFF7E4FC05E067
:100B1000FFF76FFC3A464346FFF76BFC029A0AB1B7
:100B200081F00041039AC2E90001B3E72DE9FF4FCC
:100B30001F468DB0D7E901464FF0FF382E204546BD
:100B40004FF000090B90B9696D1C0E988847396AFF
:100B5000824688470028F6D1BAF1FF3F0AD024F434
:100B6000D064002E11DDBAF12B0F08D0BAF12D0F91
:100B70000BD102E0404611B08DE744F48064B969BE
:100B80006D1C0E9888478246761E6946600501D521
:100B90002D2000E02B208DF8000001F1010B0DF15C
:100BA000200809E0B9696D1C0E98884782460F98A5
:100BB00044F40074761E0560002E02DDBAF1300F99
:100BC000F0D00B998A453ED144F0800406E00F999D
:100BD000681CA9F1010944F400740860B9696D1C2E
:100BE000761E0E98884782463028F0D02BE00B996D
:100BF0008A4505D1200603D444F08004761E18E00F
:100C0000504607F041F908B30DF11301761E44F484
:100C100000748B4508D2AAF130000BF8010B2006B6
:100C200007D5A9F1010003E0200602D409F1010073
:100C30008146A00502D50F99681C0860B9696D1C32
:100C40000E9888478246002ED1DC53E0002E51DDFD
:100C5000BAF1650F02D0BAF1450F4BD1A00549D5C5
:100C6000B9696D1C24F44074761E0E98884782463C
:100C7000002E0CDD2B2804D0BAF12D0F07D144F43F
:100C80008074B9696D1C0E9888478246761EE0050F
:100C900001D52D2100E02B2108F8011BCDF82C8077
:100CA00021E00DF12901761E44F4007488450CD230
:100CB000AAF1300010F0FF0088F8000002D10B9973
:100CC000884509D908F1010806E0E00501D5244866
:100CD00001E042F20F708146B9696D1C0E98884799
:100CE00082460F980560002E04DD504607F0CCF8D0
:100CF0000028D6D1F9690E988847FF208BF80000AC
:100D000088F800000020069007904B466A4608A924
:100D100006A8FFF777FEA00502D46FF001002AE7CE
:100D200014F0240F0AD0E00714D1DDE90612386868
:100D3000031D3B600068C0E900120BE0DDE906011D
:100D4000FFF7B2FC0146E00704D13868021D3A60A3
:100D50000068016028460EE7000014400000F03FE4
:100D6000F1D8FFFF426842B1016811F8013B23B19D
:100D7000521EC0E90012184670470121C160881E4A
:100D8000704742685AB1C368016843B983688B42AF
:100D900005D0491E521CC0E90012002070474FF0D8
:100DA000FF30704770B5C1F30A5201F000450024CE
:100DB000C1F3130140F2FF3341F480119A4201DA8A
:100DC000002070BD40F233439A42A2F2334203DC6A
:100DD0005242FFF7C9F900E090402C43F1D0404265
:100DE00070BD00007F2801D9002208E0064A02EB0E
:100DF0005002C007127800D1120902F00F02012040
:100E00009040084070470000F0A400080EB540F282
:100E1000334202920022CDE900221346FFF75CFD27
:100E200003B000BDFEE70000014800F08FBA0000EB
:100E300054030020014800F089BA00009803002004
:100E4000704700002DE9F0410446FFF7EDFB86B244
:100E50003046FFF7C6FB2146FFF721FAFFF711FCEA
:100E60000022104BFFF7C5FA0D460446FFF7F0FBD2
:100E700087B23846FFF7CBFB0B4602462046294691
:100E8000FFF7B1FAFFF710FC044606EB4600C0EB93
:100E9000C61007EBC000FFF7A4FB2146BDE8F041F8
:100EA000FFF7A8B900004E402DE9F04FB84991B0C6
:100EB000087800287ED0B74DB74E00242F88DFF881
:100EC000DCB289464FF4807A4FF00108012804D043
:100ED000022811D0032828D020E0D221B048FFF703
:100EE0006CF93A46AF49AE48FFF74EF989F8004031
:100EF0002C8086F802800DE0D221A848FFF75DF92A
:100F00003A46A849A548FFF73FF989F800402C80E8
:100F10008BF8D2805146A348FFF74FF9707800272D
:100F2000F8B19F4D7470413D15E09D484121413815
:100F3000FFF743F99A483A469A494138FFF724F9AE
:100F400089F800402C8086F80180E3E77F1CFFB21F
:100F5000102F0ED0451C94A12846FFF739F9002820
:100F6000F4D18D4800278078A8B18B488C4D8470CF
:100F70000BE0421B88482946401DFFF705F9F0E7C2
:100F80007F1CFFB2042F1FD0054687A12846FFF71C
:100F90001FF90028F4D181489BF8D22000F1D40138
:100FA0000C9124310791C91D00F1EA0A00F1EC0906
:100FB000089100E0E9E02039FA300D910390AAB3DE
:100FC0008BF8D240002717E0421B73482946C01C0B
:100FD000FFF7DAF8DFE77FB16D1C73A12846FFF752
:100FE000F7F8060040D0092F15D2DFE807F0140B00
:100FF0000F2024282C3034006BA16848FFF7E8F854
:10100000054631E0721B29460C9802E0721B294606
:1010100010A8FFF7B9F88BF8D3809DF8402035462B
:101020004146412A1BD0562A1ED11BE020E0721BEC
:1010300029460D98EDE7721B29465046E9E7721BD9
:1010400029464846E5E7721B29460798E1E7721BE7
:1010500029460398DDE7721B29460898D9E78BF8E3
:10106000041101E08BF804417F1CFFB2082FB2D9B4
:101070009BF8D3005D4600284AD0474885F8D34006
:10108000464680F8008049A14A480C9A06F0D6FAF4
:1010900095F80401DFF820B1484FDFF82481C0B390
:1010A0003D4B85F804414720DB1C00909A1C45A16C
:1010B0004C4806F0C3FACDE9009A4BA14D48079B76
:1010C0000D9A06F0BBFA4CA14D48039A06F0B6FA09
:1010D000039807F07DFAFFF7E7FACBF800000D98C8
:1010E00007F076FAFFF7E0FA46490860484607F04D
:1010F0006FFAFFF7D9FA38604348444A4549067009
:1011000088F800400020C2E900004148806A086079
:1011100036E0FFE7204B4E20DB1C00909A1C29A1F3
:10112000304806F08BFACDE9009A2FA13148079B91
:101130000D9A06F083FA30A13148039A06F07EFA40
:101140000D9807F045FAFFF7AFFA2E4908604846B8
:1011500007F03EFAFFF7A8FA3860039807F038FA6C
:10116000FFF7A2FACBF80000089807F031FAFFF772
:101170009BFA2949086098F8001009B988F80060BE
:1011800011B0BDE8F04F07F039BA11B0BDE8F08FEB
:101190003E0000203C000020480000204E040020BB
:1011A00094050020D40100202C0000005554433A3F
:1011B00025730000BE0000201C000020200000203D
:1011C0001300002050444F503A257320536174653A
:1011D0006C6C697465733A2573204D4F44453A250C
:1011E00063000000FA00002025733A257320257360
:1011F0003A257300DC0000202573206B6E6F7400AD
:1012000018010020240000201200002028000020E7
:10121000E803002018000020380000202DE9F05FCE
:1012200090F821100024022903D0042181630124B5
:1012300085E001680A6822F00E020A6001680A6807
:1012400022F001020A603F4E3E4FB215DFF8F4C0B3
:10125000DFF8F090DFF8ECA0DFF8E8B0DFF8E4E0CA
:101260000168783F13011502ACF1640CA9F1500933
:10127000AAF13C0AABF1280BAEF1140E4FF4801822
:10128000B14227D9B9420ED0614512D049451DD08F
:10129000514518D0594518D0714501D1424615E045
:1012A000294EB14201D1012210E0274E1436B1423D
:1012B00001D110220AE0244E2836B14206D0224A3B
:1012C0003C32914201D11A4600E02A461E49091FCC
:1012D0000A602BE0B94213D0614517D0494522D0AE
:1012E00051451DD059451DD0714501D142461AE0E6
:1012F000B14202D14FF0807215E0134EB14201D1DC
:10130000012210E0104E1436B14201D110220AE041
:101310000D4E2836B14206D00B4A3C32914201D1E3
:101320001A4600E02A46074980394A60012180F8C0
:101330002110002180F82010416B01B18847204620
:10134000BDE8F09F80000240080402402DE9F05FF4
:10135000C16B0A6801680B68046C4FF0040808FA56
:1013600004F8844D844E854FDFF814C2DFF81492E0
:10137000DFF814A2DFF814B2DFF814E218EA020F63
:1013800065D05FEA437862D50A68920603D40A689A
:1013900022F004020A60DFF8F0814FF480620168F5
:1013A00008F1140813011402414524D9A9420DD0B3
:1013B000B1420FD0B9421AD0614515D0494515D078
:1013C000514501D1120312E0594501D104220EE02A
:1013D000714501D140220AE06D4D1435A94206D075
:1013E0006B4A2832914201D11A4600E022466749F1
:1013F000091F0A6029E0A94213D0B14215D0B942B1
:1014000020D061451BD049451BD0514502D14FF436
:10141000800217E0414502D14FF0806212E0594549
:1014200001D104220EE0714501D140220AE0584D5D
:101430001435A94206D0564A2832914201D11A46A3
:1014400000E022464B4908394A60C16A71E04FF01A
:10145000020808FA04F818EA020F70D05FEA8378ED
:101460006DD50A68920606D40A6822F00A020A605C
:10147000012180F82110DFF810814FF4007201681B
:1014800008F1140813011402414524D9A9420DD0D2
:10149000B1420FD0B9421AD0614515D0494515D097
:1014A000514501D1120312E0594501D102220EE04B
:1014B000714501D120220AE0354D1435A94206D0EC
:1014C000334A2832914201D11A4600E022462F4980
:1014D000091F0A6029E0A94213D0B14215D0B942D0
:1014E00020D061451BD049451BD0514502D14FF456
:1014F000001217E0414502D14FF0007212E0594549
:1015000001D102220EE0714501D120220AE0204DD6
:101510001435A94206D01E4A2832914201D11A46FA
:1015200000E02246134908394A60002180F8201063
:10153000816A00291CD0BDE8F05F0847FFE7082555
:10154000A540154214D01A0712D50A6822F00E02DF
:101550000A6090F84020C36B012101FA02F25A6040
:10156000816380F82110002180F82010016BE0E7F2
:10157000BDE8F09F080002401C000240300002401D
:1015800044000240580002406C000240080402403F
:101590001C04024030B560B11C4A03681421934218
:1015A00009D21B4A1A44B2FBF1F1890001641949BE
:1015B0000AE0012030BD154A52421A44B2FBF1F153
:1015C0008900016411490839C163022180F82110A2
:1015D0001A6843F6F0718A43F0E901142143D0E917
:1015E00002452C4321430469214344692143846912
:1015F000214311431960002141628162C16201638C
:101600004163012242770177084630BD0804024059
:10161000F8FFFDBF0000024070B5044600F008F975
:101620000546601C02D004480078044400F000F92C
:10163000401BA042FAD370BD000000202DE9F84FF6
:10164000DFF8B8A100220AF1040B144601274FF07D
:101650000F090BF1040E00BF0B6807FA04F52B40CD
:10166000AB4274D1DFF898C14E68A6EB0C08664512
:101670002BD00DDC032E34D005DC36B3012E19D06F
:10168000022E2FD11BE0112E16D0122E2AD119E0D6
:10169000B8F5881F19D006DCB8F5803F15D0B8F52D
:1016A000801F1FD111E0B8F5001F0ED0B8F5041F40
:1016B00018D10AE0CA6815E0CA68121D12E0CA68AB
:1016C00008320FE0CA680C320CE08A682AB1012A9D
:1016D0004FF0080203D0456104E0042202E00561F6
:1016E00000E00022FF2B01D8064601E000F10406CD
:1016F0004FEA840501D9A5F12005D6F800C009FA02
:1017000005F82CEA080C02FA05F54CEA050CC6F8B7
:1017100000C04D68ED006AD53A4DAE6946F001064D
:10172000AE61AD6924F0030605F001050095364D64
:1017300006EB050CDCF80850A6074FEA167809FA04
:1017400008F6B543314EB04202D100261AE04EE011
:101750002F4EB04201D1012614E02E4EB04201D1ED
:1017600002260FE02C4EB04201D103260AE02B4E98
:10177000B04201D1042605E0294EB04201D1052630
:1017800000E0062606FA08F62E43CCF808604D68FD
:10179000DAF80060ED03554601D51E4300E09E4394
:1017A0002E604D68AD0305D5DBF800601E43CBF815
:1017B000006004E0DBF800509D43CBF800504D681A
:1017C000DEF80060ED02754601D51E4300E09E4341
:1017D0002E604D68AD0205D5084D0C352E681E43B0
:1017E0002E6004E0054E0C3635689D433560641C60
:1017F000102CFFF431AFBDE8F88F00000004014069
:1018000000001110001002400000014000080140DB
:10181000000C01400010014000140140001801407C
:10182000001C01400AB1016170470904FBE7000098
:10183000014880687047000000000020024881686D
:10184000027811448160704700000020074810B5FD
:10185000016841F010010160032000F095F80020BC
:1018600000F006F800F024F8002010BD002002402F
:1018700070B50D4D04464FF47A712878B1FBF0F045
:101880000A490968B1FBF0F000F025FB48B9102CBB
:1018900007D200222146501E00F056F800206C604E
:1018A00070BD012070BD0000000000200C00002071
:1018B0001D4808B5816941F001018161806900F02E
:1018C00001000090032000F05FF8002211466FF045
:1018D0000B0000F039F8002211466FF00A0000F00A
:1018E00033F8002211466FF0090000F02DF80022B5
:1018F0001146501F00F028F800221146101F00F07A
:1019000023F800221146901E00F01EF80022114616
:10191000501E00F019F80548416821F0E06141F0DF
:101920000071416008BD000000100240000001404D
:1019300000F01F02012191404009800000F1E020E9
:10194000C0F8001170470000F0B40E4B1B680C4645
:10195000C3F30223C3F10705042D00D90425191D83
:10196000072901D2002300E0DB1E012606FA05F15B
:10197000491E214099409E40761E16403143F0BCDE
:1019800005F052BB0CED00E0064900F007020868C4
:101990004FF6FF03184040EA0220034A1043086054
:1019A000704700000CED00E00000FA052DE9F0475B
:1019B000DFF83C8105460E46D8F8000000F007002D
:1019C000B0420CD2D8F8001021F007013143C8F81A
:1019D0000010D8F8000000F00700B04263D128786A
:1019E000444C800705D56068A96820F0F0000843E2
:1019F00060602878C00745D06868012816D0216843
:101A0000022816D0890700294DDA616821F0030108
:101A100001436160FFF70CFF6968074641F28830B7
:101A200001290FD00229814619D027E021688903B6
:101A3000E9E78901E7E700BFFFF7FAFEC11B494567
:101A400001D918E081466068C0F381000128F3D114
:101A500018E000BFFFF7ECFEC11B49450BD86068DA
:101A6000C0F381000228F5D10CE000BFFFF7E0FED3
:101A7000C11B494502D90320BDE8F087606810F01A
:101A80000C0FF3D1D8F80010404601F00701B14225
:101A90000BD9016821F0070131430160006800F0B3
:101AA0000700B04201D00120E6E72878400705D5BD
:101AB0006068E96820F4E060084360602878000707
:101AC00006D56068296920F4605040EAC100606072
:101AD00000F03CF86168084AC1F30311515CC8404A
:101AE000064908600020FFF7C3FE0020C4E700009D
:101AF0000020024000100240F48B00080C0000207F
:101B000001480068704700000C00002004480549A7
:101B100000684968044AC1F30221515CC84070471B
:101B20000C00002000100240048C00080448054905
:101B300000684968044AC1F3C221515CC84070473B
:101B40000C00002000100240048C000812A185B097
:101B50000FC98DE80F0014A0144A00680490516862
:101B6000134801F00C03042B10D0082B0ED1C1F345
:101B70008343C9031DF803000AD5516804AAC1F3C1
:101B80004041515C0A4A5043B0FBF1F005B0704748
:101B900008494843FAE7000002030405060708095C
:101BA0000A0B0C0D0E0F1010010200000010024075
:101BB00000127A0000093D002DE9F84F0446007834
:101BC000B94DC00748D06868C0F38100012807D02C
:101BD0006868C0F38100022809D16868C00306D58F
:101BE0002868800338D5606800286FD034E06068CA
:101BF000B0F5803F0BD010B1B0F5A02F11D0286800
:101C000020F480302860286820F4802002E02868D2
:101C100040F480302860606888B1FFF709FE06460E
:101C200009E0286840F480202860F0E7FFF700FE14
:101C3000801B642875D828688003F7D50CE0FFF76F
:101C4000F7FD064605E000BFFFF7F2FD801B6428A4
:101C5000F0D828688003F7D42078944E80074FF09E
:101C600001094FF000083BD5686810F00C0F07D051
:101C70006868C0F38100022809D16868C00306D4EF
:101C80002868800714D5206901281FD110E0206939
:101C9000B0B1C6F80090FFF7CBFD074605E000BFE6
:101CA000FFF7C6FDC01B0228C4D828688007F7D5F7
:101CB0002868616920F0F80040EAC10028600FE060
:101CC000C6F80080FFF7B4FD074606E0E9E000BF74
:101CD000FFF7AEFDC01B022823D828688007F7D481
:101CE000207800072CD57248A169D9B1C0F80090BE
:101CF000FFF79EFD074604E0FFF79AFDC01B022890
:101D00000FD8686A8007F7D56A484FF4FA5100681F
:101D1000B0FBF1F0009000BF0098411E0091FAD294
:101D20000EE080E0C0F80080FFF782FD074604E087
:101D3000FFF77EFDC01B022875D8686A8007F7D4BC
:101D40002078400760D5E8690027C00008D4E8691A
:101D500040F08050E861E869012700F08050009071
:101D600055480168C90513D40168834641F4807160
:101D70000160FFF75DFD824606E000BFFFF758FDFA
:101D8000A0EB0A0064284ED8DBF80000C005F5D5AA
:101D9000E06801280AD008B1052813D0286A20F08D
:101DA00001002862286A20F0040002E0286A40F05E
:101DB00001002862E06841F2883B98B1FFF738FDE6
:101DC00082460BE0286A40F004002862EEE700BF7C
:101DD000FFF72EFDA0EB0A0159455AD8286A800763
:101DE000F6D50CE0FFF724FD824605E0FFF720FD65
:101DF000A0EB0A0159454CD8286A8007F6D41FB1D8
:101E0000E86920F08050E861E06988B36968C1F34F
:101E10008101022945D00228C6F8608004D0FFF76E
:101E200007FD044638E034E0FFF702FD074604E012
:101E3000FFF7FEFCC01B02282BD828688001F7D4CE
:101E4000206AB0F5803F05D16868A16820F40030B1
:101E500008436860D4E908010843696821F47411F3
:101E600008436860C6F86090FFF7E2FC044606E0AD
:101E700015E000BFFFF7DCFC001B022809D828682A
:101E80008001F7D50BE000BFFFF7D2FC001B022852
:101E900002D90320BDE8F88F28688001F4D400201F
:101EA000F8E70120F6E7000000100240000042427F
:101EB000800442420C000020007000404FF0E021FE
:101EC0000428086903D020F004000861704740F03E
:101ED0000400FAE7704710B5401EB0F1807F01D3CF
:101EE000012010BD4FF0E02460610F21601705F064
:101EF0009BF80020A06107202061002010BD10B5D4
:101F0000FFF7E8FF10BD7047704730B590F83C20F0
:101F1000012A20D0012280F83C20022380F83D30A5
:101F200003685C6824F070045C6003685C680D689A
:101F30002C435C6003689C6824F080049C60036808
:101F40009C6849680C439C6080F83D20002180F823
:101F50003C10084630BD022030BD10B5040003D04F
:101F600094F83D0010B107E0012010BD002084F876
:101F70003C00204600F00CF8022084F83D00211DB2
:101F8000206805F0CFF8012084F83D00002010BD46
:101F900008B50C4A01680C48914207D1C16941F06B
:101FA0000201C161C06900F0020009E0074A9142E4
:101FB00007D1C16941F00801C161C06900F00800A2
:101FC000009008BD0004004000100240000C0040DA
:101FD0000168CA6842F00102CA600068016841F005
:101FE00001010160002070470168CA6822F0010207
:101FF000CA600068016A41F21112114207D1016AF8
:102000009210114203D1016821F00101016000200A
:10201000704770B5044690F83C00012817D00125A0
:1020200084F83C50022084F83D002068826822F049
:10203000770222F47F4282600868502837D00DDC96
:10204000202859D005DC88B3102841D151E0022066
:1020500070BD302853D040283AD13FE060282ED0C0
:1020600070280BD0B0F5805F03D0B0F5005F2FD1A2
:1020700010E02068816821F0070115E0CB68D1E904
:102080000121206805F094F82168886840F0770005
:1020900088601DE0CB68D1E90121206805F088F84F
:1020A0002068816841F48041816011E01EE0CA68C7
:1020B0004968206805F08EF85021206806E0CA685B
:1020C0004968206805F097F86021206805F07AF8E3
:1020D00084F83D50002084F83C0070BDCA6849680F
:1020E000206805F077F840212068EFE7002120689C
:1020F000ECE710212068E9E720212068E6E730219D
:102100002068E3E7704770B50446006801694FF046
:102110000005C943890715D4C168C943890711D48B
:10212000E91E016101202077206880698007204630
:1021300002D0FFF7E7FF04E000F098F8204600F037
:1021400096F8257720680169C943490717D4C16803
:10215000C943490713D46FF00401016102202077BD
:102160002068806910F4407F204602D0FFF7CAFF44
:1021700004E000F07BF8204600F079F8257720682D
:102180000169C943090716D4C168C943090712D4B4
:102190006FF008010161042020772068C069800782
:1021A000204602D0FFF7AEFF04E000F05FF82046C3
:1021B00000F05DF8257720680169C943C90617D486
:1021C000C168C943C90613D46FF01001016108202A
:1021D00020772068C06910F4407F204602D0FFF7C6
:1021E00091FF04E000F042F8204600F040F8257727
:1021F00020680169C943C90708D1C168C943C90733
:1022000004D1891E0161204600F032F8206801697E
:10221000C943090609D4C168C943090605D46FF04A
:10222000800101612046FFF76EFE20680169C94305
:10223000490609D4C168C943490605D46FF0400175
:102240000161204600F038F820680169C943890619
:102250000BD4C168C943890607D46FF0200101611E
:102260002046BDE87040FFF74FBE70BD7047704715
:102270000D4A01681268914203D10C490A68521C48
:102280000A600B490068096888420BD1094801219E
:1022900001708288521C92B28280092A02D9417050
:1022A0000021818070470000940100205800002028
:1022B00054010020100000207047704770B502687C
:1022C00004461068D168536910F00F0F50D003F026
:1022D000010501F4907635435DD0C20705D0CA05EB
:1022E00003D5E26B42F00102E263420705D5DA074B
:1022F00003D0E26B42F00202E263820705D5DA07FF
:1023000003D0E26B42F00402E263020705D5DA076C
:1023100003D0E26B42F00802E263E26B002A33D0A2
:10232000800604D5880602D5204604F08CFF20687C
:102330004069E16BC0F38010090700D428B3204640
:1023400004F073FF2068416949061AD5416921F0FC
:1023500040014161606BA0B11B494163606BFEF7B6
:102360005DFF002810D0606B416BBDE870400847EE
:10237000830610D58B060ED52046BDE8704004F0CC
:1023800062BF2046FFF799FF70BD2046FFF795FF1B
:102390000020E06370BD030606D50B0604D5204679
:1023A000BDE8704005F052B84006F3D54806F1D5B7
:1023B000D168204621F04001D160202184F83910F5
:1023C00000F014F970BD00001B72000870B5040025
:1023D00004D094F83900002510B106E0012070BD4A
:1023E00084F83850204600F023F8242084F839007F
:1023F0002068C16821F40051C160204604F06EFFDE
:102400002068016921F4904101612068416921F04F
:102410002A0141612068C16841F40051C160E5634F
:10242000202084F8390084F83A00002070BD0000B4
:10243000F0B50646DFF8D0C0036800243348022216
:102440000321334D802785B063452BD1836943F445
:10245000804383618069039100F4804004901002FE
:10246000CDE9000269462846FFF7E8F82815CDE9CE
:102470000004694628460294FFF7E0F8264D2548F7
:10248000C5E90004C5E902472C616C61AC612846CE
:10249000EC61FFF77FF808B1902131E075636E625F
:1024A00005B0F0BDDFF874C06345F9D1C36943F4EA
:1024B0000033C361C069039100F40030049004202C
:1024C000CDE9000269462846FFF7B8F80820CDE9B3
:1024D0000004694628460294FFF7B0F80E4D0D48F7
:1024E00044351430C5E90004C5E902472C616C612C
:1024F000AC612846EC61FFF74DF80028CED0BB2137
:1025000007A005F08AF8C9E7003801400010024032
:1025100000080140580002405403002000440040DD
:102520002E2E2F5372632F75736172742E63000009
:1025300070472DE9F843044690F839001F461646C7
:102540000D46202850D1A5B19EB194F8380001283D
:102550004AD0012084F838004FF00008C4F83C80CD
:10256000212084F83900FFF763F9A6848146E684C8
:1025700026E00120BDE8F883E08C401EE084A068DE
:102580004B46B0F5805F4FF000024FF080012046CF
:10259000009703D004F08BFFE8B90DE004F087FF4B
:1025A000C8B928882168C0F308004860206908B1CC
:1025B0006D1C05E0AD1C03E0216815F8010B4860B7
:1025C000E08C0028D8D14B460022402120460097BD
:1025D00004F06DFF08B10320CCE7202084F8390017
:1025E00084F838800020C5E70220C3E77047FEE783
:1025F0002DE9F0431B4C8146002520886688464320
:10260000A088A0F5D041043902D1A07901280CD0CE
:102610000021084604F024F804F080FA12484FF430
:1026200080734115114C802218E00020A0712A27E8
:1026300067814FF02B08A4F80C80014604F010F8D5
:102640000120A071A4F80A80A781E5E70361416138
:10265000C4F800904261026101616D1CB542F5D37E
:10266000BDE8F08366060020001001400C0C01401C
:102670002DE9F04F4A492A242B25898845F2105A22
:102680004FF4305B4FF4285E4FF448764FF0F00C77
:1026900049F241394FF4A07345F210374FF4F0720C
:1026A00080B13F484FF00108494580F8068003801B
:1026B000A0F802C001D0B9423ED12C260681448147
:1026C000858157E036484FF00008494580F806807C
:1026D000A0F800C0438006D0A1F5D04CBCF1040C9A
:1026E00001D0B9420CD12C2606814481A1F5D044F9
:1026F0008581043C01D0B94244D10380428041E04D
:10270000514507D1A0F808B0A0F80AE04FF42C51C9
:1027100081810EE0A1F5C853633B06D022210181DF
:1027200020214181212181812CE02C2101814581C1
:1027300084810280468025E0A1F5D04CBCF1040CD8
:1027400009D051450BD1A0F808B0A0F80AE04FF429
:102750002C54848121E02C260681458109E0A1F5D5
:10276000C85CBCF1630C12D0222404812124448172
:1027700020248481A1F5D044043C01D0B94201D188
:1027800002804380BDE8F04F002003F0C1BD4FF050
:102790002C0CA0F808C04481858106804280E9E7BE
:1027A000660600202DE9F74F07468F4881B0DFF815
:1027B0003CA2818802983E0A00F0FF094FEA1028E7
:1027C000F8B200908848A1F513434FF4807B42890A
:1027D0004FF40074413B18D00546A1F5A6401038CF
:1027E00013D0A1F5AA40103833D02846A1F5C85619
:1027F00083790088C01B401E633E5ED0A1F5D046A1
:10280000043E7CD0012B7BD0CEE0104604F074F95E
:10281000774DC5F810B06C615746CAF80060802645
:102820006E612E612C61C5F810B06C610098CAF819
:1028300000006E612E612C616B48808904F05CF9A8
:10284000C5F810B06C61C7F800806E612E612C6114
:102850002DE0104604F050F9654DC5F810B06C61DC
:102860005746CAF8006080266E612E612C615E4872
:102870004089401C80B204F03FF9C5F810B06C618B
:10288000009838606E612E612C615748808904F091
:1028900033F9C5F810B06C61C7F800806E612E6125
:1028A0002C6151488089401C80B204F025F9C5F89C
:1028B00010B06C61C7F8009071E003B987B21046A0
:1028C00004F01AF94A4DC5F810B06C61380ACAF81C
:1028D000000080266E612E612C61C5F810B06C611D
:1028E000F9B2CAF800106E612E612C61C5F810B003
:1028F0006C61CAF800006E612E612C6101E022E07B
:1029000051E0C5F810B06C61CAF800106E612E611C
:102910002C613548808904F0EFF8C5F810B06C617F
:102920005146CAF800806E612E612C61C5F810B066
:102930006C61CAF800906E612E612C61C5F810B010
:102940006C61404622E0012B00D187B2104604F0B2
:10295000D3F8274DC5F810B06C61390ACAF80010D9
:1029600080266E612E612C61C5F810B06C61F9B2E1
:10297000CAF800106E612E612C611B48808904F03A
:10298000BBF8C5F810B06C614046514608606E61F6
:102990002E612C61C5F810B06C61C1F800906E61B9
:1029A0002E612C6108E087B23946104604F0BCF86D
:1029B000A889029904F0B8F80D48C0F814B0446131
:1029C00009490989CAF80010802141610161046147
:1029D000C0F810B04461039ACAF800204161016157
:1029E0000461BDE8FF8F0000660600200C0C01406A
:1029F000001001402DE9F04FFE4887B0816941F099
:102A000008018161816901F008010091816941F04B
:102A10001001816180694FF0010A00F01000009000
:102A20004FF4F860CDE9020A0320CDE904A002A921
:102A3000F148FEF703FE4FF6FF70029002A9EF483F
:102A4000FEF7FCFDEE48416821F0E06141F0806155
:102A500041603220FEF7E0FD0121002004F064F81F
:102A60003220FEF7D9FD002003F0FCFBE54C49F2D3
:102A7000413746F60408A08045F2103945F2105659
:102A8000FF2806D3A0F57F41FF3902D0B0F5134FE0
:102A900070D1D32004F030F803F0ACFB03F0AAFBB4
:102AA00003F0A8FB4FF6FF7505EA0020A08003F0B5
:102AB000A1FBA1880843A080B8425BD0BF2004F0EE
:102AC0001BF803F097FB03F095FB03F093FB03F077
:102AD00091FB05EA0020A08003F08CFBA18808434D
:102AE000A080404546D0D42004F006F803F082FBD5
:102AF00003F080FB03F07EFB05EA0020A08003F0DA
:102B000079FBA1880843A080484533D04FF45A4050
:102B100003F0F2FF03F06EFB4FF45B4003F0ECFFB9
:102B200003F068FB05EA0020A0804FF45C4003F04E
:102B3000E3FF03F05FFBA1880843A080B0F5004FDE
:102B40007ED0B04216D0A12003F0D6FF03F052FB96
:102B5000A08003F04FFB05EA0020A08003F04AFBB1
:102B6000A1880843A0F5AE41A080613902D141F6A9
:102B70006310A080A188A4A004F050FDA088B842F2
:102B80007ED1CF2003F0B8FF002003F0A3FFC120C7
:102B900003F0A0FF302003F09DFFED2003F0ACFF19
:102BA000642003F097FF032003F094FF122003F04A
:102BB00091FF812003F08EFFE82003F09DFF852028
:102BC00003F088FF102003F085FF7A2003F082FFD6
:102BD000CB2003F091FF392003F07CFF2C2003F081
:102BE00079FF002003F076FF342003F073FF02200A
:102BF00003F070FFF72003F07FFF202003F06AFF4F
:102C0000EA2003F079FF002003F064FF002003F0C6
:102C100061FFC02003F070FF1B2003F05BFFC120A9
:102C200003F06AFF012003F055FFC52003F064FFA5
:102C3000302003F04FFF302003F04CFFC72000E0AE
:102C4000B2E003F059FFB72003F044FF362003F051
:102C500053FF482003F03EFF3A2003F04DFF55207C
:102C600003F038FFB12003F047FF002003F032FFEC
:102C70001A2003F02FFFB62003F03EFF0A2000E0E9
:102C800094E003F027FFA22003F024FFF22003F0DA
:102C900033FF002003F01EFF262003F02DFF01204C
:102CA00003F018FFE02003F027FF0F2003F012FFCE
:102CB0002A2003F00FFF282003F00CFF082003F068
:102CC00009FF0E2003F006FF082003F003FF542045
:102CD00003F000FFA92003F0FDFE432003F0FAFEFD
:102CE0000A2003F0F7FE0F2003F0F4FE002003F0AB
:102CF000F1FE002003F0EEFE002003F0EBFE0020CA
:102D000003F0E8FEE12003F0F7FE002003F0E2FE0E
:102D1000152003F0DFFE172003F0DCFE072003F090
:102D2000D9FE112003F0D6FE062003F0D3FE2B209F
:102D300003F0D0FE562003F0CDFE3C2003F0CAFE87
:102D4000052003F0C7FE102003F0C4FE0F2003F09F
:102D5000C1FE3F2003F0BEFE3F2003F0BBFE0F206C
:102D600003F0B8FE2B2003F0C7FE002003F0B2FEF4
:102D7000002003F0AFFE012003F0ACFE3F2003F083
:102D8000A9FE2A2003F0B8FE002003F0A3FE0020D5
:102D900003F0A0FE002003F09DFEEF2003F09AFE5A
:102DA000112003F0A9FEBAE0A680E3E640457DD1FC
:102DB000112003F0A1FE1420FEF72EFCD02003F01A
:102DC0009BFE072003F086FE422003F083FE1D20B9
:102DD00003F080FED12003F08FFE002003F07AFE86
:102DE0001A2003F077FE092003F074FED22003F0CE
:102DF00083FE11E00010024000100140000C014071
:102E00000000014066060020204C43442049443A1B
:102E100025780D0A00000000012003F05BFE22204F
:102E200003F058FEC02003F067FE102003F052FEAE
:102E30003B2003F04FFE002003F04CFE022003F085
:102E400049FE112003F046FEC52003F055FE032085
:102E500003F040FEC82003F04FFE002003F03AFECE
:102E6000252003F037FE212003F034FE052003F077
:102E700031FE002003F02EFE0A2003F02BFE652019
:102E800003F028FE252003F025FE772003F022FE24
:102E9000502003F01FFE0F2003F01CFE002003F063
:102EA00019FEF82003F028FE012000E03DE003F0C9
:102EB00011FEFE2003F020FE002003F00BFE022096
:102EC00003F008FE202003F017FE362003F014FE66
:102ED000082003F0FFFD3A2003F00EFE552003F01A
:102EE000F9FD2B2003F008FE002003F0F3FD002085
:102EF00003F0F0FD012003F0EDFD3F2003F0EAFDBB
:102F00002A2003F0F9FD002003F0E4FD002003F087
:102F1000E1FD012003F0DEFDDF2003F0DBFD782082
:102F2000FEF77AFB292001F0FBBE48457ED1ED205B
:102F300003F0E2FD012003F0CDFDFE2003F0CAFD09
:102F4000EE2003F0D9FDDE2003F0C4FD212003F0C4
:102F5000C1FDF12003F0D0FD012003F0BBFDDF2017
:102F600003F0CAFD102003F0B5FDC42003F0C4FD3A
:102F70008F2003F0AFFDC62003F0BEFD002003F05C
:102F8000A9FDE22003F0A6FDE22003F0A3FDE2206C
:102F900003F0A0FDBF2003F0AFFDAA2003F09AFDCF
:102FA000B02003F0A9FD0D2003F094FD002003F0F4
:102FB00091FD0D2003F08EFD002003F08BFD11200C
:102FC00003F088FD002003F085FD192003F082FD49
:102FD000002003F07FFD212003F07CFD002003F0A2
:102FE00079FD2D2003F076FD002003F073FD3D20D8
:102FF00003F070FD002003F06DFD5D2003F06AFD1D
:10300000002003F067FD5D2003F064FD002003F065
:1030100061FDB12003F070FD802003F05BFD002016
:1030200003F058FD8B2003F055FD00E0FDE3002088
:1030300003F050FD962003F04DFD002003F04AFD03
:10304000B22003F059FD002003F044FD002003F0FE
:1030500041FD022003F03EFD002003F03BFD032074
:1030600003F038FD002003F035FDB32003F044FDEC
:10307000002003F02FFD002003F02CFD002003F0C2
:1030800029FD002003F026FD002003F023FD002091
:1030900003F020FD002003F01DFD002003F01AFDC9
:1030A000002003F017FD002003F014FD002003F0C2
:1030B00011FD002003F00EFD002003F00BFD0020A9
:1030C00003F008FD002003F005FD002003F002FDE1
:1030D000002003F0FFFC002003F0FCFC002003F0C4
:1030E000F9FC002003F0F6FC002003F0F3FC0020C4
:1030F00003F0F0FC002003F0EDFC002003F0EAFCFC
:10310000B42003F0F9FC8B2003F0E4FC002003F072
:10311000E1FC962003F0DEFC002003F0DBFCA120A4
:1031200003F0D8FC002003F0D5FCB52003F0E4FC4C
:10313000022003F0CFFC002003F0CCFC032003F0BE
:10314000C9FC002003F0C6FC042003F0C3FC0020EF
:1031500003F0C0FCB62003F0CFFC002003F0BAFC63
:10316000002003F0B7FCB72003F0C6FC002003F0FA
:10317000B1FC002003F0AEFC3F2003F0ABFC0020CC
:1031800003F0A8FC5E2003F0A5FC002003F0A2FCE5
:10319000642003F09FFC002003F09CFC8C2003F0D3
:1031A00099FC002003F096FCAC2003F093FC002077
:1031B00003F090FCDC2003F08DFC002003F08AFC7F
:1031C000702003F087FC002003F084FC902003F0C3
:1031D00081FC002003F07EFCEB2003F07BFC002050
:1031E00003F078FCDC2003F075FC002003F072FC97
:1031F000B82003F081FC002003F06CFC002003F0F9
:1032000069FC002003F066FC002003F063FC002052
:1032100003F060FC002003F05DFC002003F05AFC8A
:10322000002003F057FCBA2003F066FC242003F0D2
:1032300051FC002003F04EFC002003F04BFC00206A
:1032400003F048FCC12003F057FC202003F042FCAF
:10325000002003F03FFC542003F03CFC002003F06E
:1032600039FCFF2003F036FC002003F033FCC220C1
:1032700003F042FC0A2003F02DFC002003F02AFC9E
:10328000042003F027FC002003F024FCC32003F0FB
:1032900033FC3C2003F01EFC002003F01BFC3A2012
:1032A00003F018FC002003F015FC392003F012FC99
:1032B000002003F00FFC372003F00CFC002003F08B
:1032C00009FC3C2003F006FC002003F003FC362040
:1032D00003F000FC002003F0FDFB322003F0FAFBBA
:1032E000002003F0F7FB2F2003F0F4FB002003F095
:1032F000F1FB2C2003F0EEFB002003F0EBFB292078
:1033000003F0E8FB002003F0E5FB262003F0E2FBDE
:10331000002003F0DFFB242003F0DCFB002003F09F
:10332000D9FB242003F0D6FB002003F0D3FB23209D
:1033300003F0D0FB002003F0CDFB3C2003F0CAFBE0
:10334000002003F0C7FB362003F0C4FB002003F08D
:10335000C1FB322003F0BEFB002003F0BBFB2F209B
:1033600003F0B8FB002003F0B5FB2C2003F0B2FB08
:10337000002003F0AFFB292003F0ACFB002003F09A
:10338000A9FB262003F0A6FB002003F0A3FB2420CA
:1033900003F0A0FB002003F09DFB242003F09AFB28
:1033A000002003F097FB232003F094FB002003F0A0
:1033B00091FBC42003F0A0FB622003F08BFB0020F4
:1033C00003F088FB052003F085FB002003F082FB5F
:1033D000842003F07FFB002003F07CFBF02003F04F
:1033E00079FB002003F076FB182003F073FB00202C
:1033F00003F070FBA42003F06DFB002003F06AFBD8
:10340000182003F067FB002003F064FB502003F05A
:1034100061FB002003F05EFB0C2003F05BFB00204F
:1034200003F058FB172003F055FB002003F052FB7C
:10343000952003F04FFB002003F04CFBF32003F03A
:1034400049FB002003F046FBE62003F043FB00208D
:1034500003F040FBC52003F04FFB322003F03AFBA2
:10346000002003F037FB442003F034FB002003F07E
:1034700031FB652003F02EFB002003F02BFB7620B0
:1034800003F028FB002003F025FB882003F022FB3B
:10349000002003F01FFBC62003F02EFB202003F0CA
:1034A00019FB002003F016FB172003F013FB00208C
:1034B00003F010FB012003F00DFB002003F00AFBDA
:1034C000C72003F019FB002003F004FB002003F0E9
:1034D00001FB002003F0FEFA002003F0FBFAC820F5
:1034E00003F00AFB002003F0F5FA002003F0F2FAE3
:1034F000002003F0EFFA002003F0ECFAC92003F0FB
:10350000FBFA002003F0E6FA002003F0E3FA0020C3
:1035100003F0E0FA002003F0DDFA002003F0DAFA0D
:10352000002003F0D7FA002003F0D4FA002003F0C3
:10353000D1FA002003F0CEFA002003F0CBFA0020ED
:1035400003F0C8FA002003F0C5FA002003F0C2FA25
:10355000002003F0BFFA002003F0BCFA002003F0C3
:10356000B9FAE02003F0C8FA162003F0B3FA0020FD
:1035700003F0B0FA1C2003F0ADFA002003F0AAFA21
:10358000212003F0A7FA002003F0A4FA362003F06C
:10359000A1FA002003F09EFA462003F09BFA0020D7
:1035A00003F098FA522003F095FA002003F092FA03
:1035B000642003F08FFA002003F08CFA7A2003F0E5
:1035C00089FA002003F086FA8B2003F083FA0020AA
:1035D00003F080FA992003F07DFA002003F07AFAD4
:1035E000A82003F077FA002003F074FAB92003F062
:1035F00071FA002003F06EFAC42003F06BFA002089
:1036000003F068FACA2003F065FA002003F062FABA
:10361000D22003F05FFA002003F05CFAD92003F017
:1036200059FA002003F056FAE02003F053FA002084
:1036300003F050FAF32003F04DFA002003F04AFAA9
:10364000E12003F059FA162003F044FA002003F0B9
:1036500041FA1C2003F03EFA002003F03BFA22203E
:1036600003F038FA002003F035FA362003F032FA7E
:10367000002003F02FFA452003F02CFA002003F07D
:1036800029FA522003F026FA002003F023FA6420DE
:1036900003F020FA002003F01DFA7A2003F01AFA52
:1036A000002003F017FA8B2003F014FA002003F037
:1036B00011FA992003F00EFA002003F00BFAA8206B
:1036C00003F008FA002003F005FAB92003F002FA2B
:1036D000002003F0FFF9C42003F0FCF9002003F000
:1036E000F9F9CA2003F0F6F9002003F0F3F9D2202B
:1036F00003F0F0F9002003F0EDF9D82003F0EAF927
:10370000002003F0E7F9E02003F0E4F9002003F0E3
:10371000E1F9F32003F0DEF9002003F0DBF9E22009
:1037200003F0EAF9052003F0D5F9002003F0D2F9FF
:103730000B2003F0CFF9002003F0CCF91B2003F09D
:10374000C9F9002003F0C6F9342003F0C3F90020C2
:1037500003F0C0F9442003F0BDF9002003F0BAF9EA
:103760004F2003F0B7F9002003F0B4F9612003F013
:10377000B1F9002003F0AEF9792003F0ABF9002095
:1037800003F0A8F9882003F0A5F9002003F0A2F9BE
:10379000972003F09FF9002003F09CF9A62003F086
:1037A00099F9002003F096F9B72003F093F900206F
:1037B00003F090F9C22003F08DF9002003F08AF99C
:1037C000C72003F087F9002003F084F9D12003F02B
:1037D00081F9002003F07EF9D62003F07BF9002068
:1037E00003F078F9DD2003F075F9002003F072F999
:1037F000F32003F06FF9002003F06CF9E32003F0ED
:103800007BF9052003F066F9002003F063F90A2034
:1038100003F060F9002003F05DF91C2003F05AF971
:10382000002003F057F9332000E0FAE203F052F9E8
:10383000002003F04FF9442003F04CF9002003F07E
:1038400049F9502003F046F9002003F043F96220C3
:1038500003F040F9002003F03DF9782003F03AF935
:10386000002003F037F9882003F034F9002003F03A
:1038700031F9972003F02EF9002003F02BF9A62050
:1038800003F028F9002003F025F9B72003F022F90E
:10389000002003F01FF9C22003F01CF9002003F000
:1038A00019F9C72003F016F9002003F013F9D1200D
:1038B00003F010F9002003F00DF9D52003F00AF908
:1038C000002003F007F9DD2003F004F9002003F0E5
:1038D00001F9F32003F0FEF8002003F0FBF8E420E8
:1038E00003F00AF9012003F0F5F8002003F0F2F8E4
:1038F000012003F0EFF8002003F0ECF8022003F0C1
:10390000E9F8002003F0E6F82A2003F0E3F80020AD
:1039100003F0E0F83C2003F0DDF8002003F0DAF8D3
:103920004B2003F0D7F8002003F0D4F85D2003F01B
:10393000D1F8002003F0CEF8742003F0CBF800207B
:1039400003F0C8F8842003F0C5F8002003F0C2F8A3
:10395000932003F0BFF8002003F0BCF8A22003F08E
:10396000B9F8002003F0B6F8B32003F0B3F8002054
:1039700003F0B0F8BE2003F0ADF8002003F0AAF881
:10398000C42003F0A7F8002003F0A4F8CD2003F032
:10399000A1F8002003F09EF8D32003F09BF800204C
:1039A00003F098F8DD2003F095F8002003F092F87A
:1039B000F32003F08FF8002003F08CF8E52003F0EB
:1039C0009BF8002003F086F8002003F083F8002025
:1039D00003F080F8002003F07DF8022003F07AF86D
:1039E000002003F077F8292003F074F8002003F09A
:1039F00071F83C2003F06EF8002003F06BF84B20C8
:103A000003F068F8002003F065F85D2003F062F829
:103A1000002003F05FF8742003F05CF8002003F04E
:103A200059F8842003F056F8002003F053F893204F
:103A300003F050F8002003F04DF8A22003F04AF8FC
:103A4000002003F047F8B32003F044F8002003F00F
:103A500041F8BE2003F03EF8002003F03BF8C420FC
:103A600003F038F8002003F035F8CD2003F032F8E9
:103A7000002003F02FF8D32003F02CF8002003F0EF
:103A800029F8DC2003F026F8002003F023F8F320C7
:103A900003F020F8002003F01DF8E62003F02CF8D6
:103AA000112003F017F8002003F014F8342003F07D
:103AB00011F8002003F00EF8562003F00BF8002058
:103AC00003F008F8762003F005F8002003F002F870
:103AD000772002F0FFFF002002F0FCFF662002F0DA
:103AE000F9FF002002F0F6FF882002F0F3FF00202B
:103AF00002F0F0FF992002F0EDFF002002F0EAFF53
:103B0000BB2002F0E7FF002002F0E4FF992002F062
:103B1000E1FF002002F0DEFF662002F0DBFF002064
:103B200002F0D8FF552002F0D5FF002002F0D2FFAE
:103B3000552002F0CFFF002002F0CCFF452002F01C
:103B4000C9FF002002F0C6FF432002F0C3FF00209F
:103B500002F0C0FF442002F0BDFF002002F0BAFFD7
:103B6000E72002F0C9FF322002F0B4FF002002F08B
:103B7000B1FF552002F0AEFF002002F0ABFF76202F
:103B800002F0A8FF002002F0A5FF662002F0A2FFCD
:103B9000002002F09FFF672002F09CFF002002F04F
:103BA00099FF672002F096FF002002F093FF872024
:103BB00002F090FF002002F08DFF992002F08AFFB2
:103BC000002002F087FFBB2002F084FF002002F0FB
:103BD00081FF992002F07EFF002002F07BFF77201A
:103BE00002F078FF002002F075FF442002F072FF1F
:103BF000002002F06FFF562002F06CFF002002F060
:103C000069FF232002F066FF002002F063FF3320EB
:103C100002F060FF002002F05DFF452002F05AFF35
:103C2000002002F057FFE82002F066FF002002F0BB
:103C300051FF002002F04EFF992002F04BFF0020C0
:103C400002F048FF872002F045FF002002F042FF0B
:103C5000882002F03FFF002002F03CFF772002F0B6
:103C600039FF002002F036FF662002F033FF00200B
:103C700002F030FF882002F02DFF002002F02AFF22
:103C8000AA2002F027FF002002F024FFBB2002F050
:103C900021FF002002F01EFF992002F01BFF0020F0
:103CA00002F018FF662002F015FF002002F012FF5C
:103CB000552002F00FFF002002F00CFF552002F00B
:103CC00009FF002002F006FF442002F003FF00205D
:103CD00002F000FF442002F0FDFE002002F0FAFE98
:103CE000552002F0F7FE002002F0F4FEE92002F079
:103CF00003FFAA2002F0EEFE002002F0EBFE0020FF
:103D000002F0E8FE002002F0E5FE002002F0F4FEE2
:103D1000AA2002F0DFFECF2002F0EEFE002002F02B
:103D2000D9FE002002F0D6FE002002F0D3FE0020D3
:103D300002F0D0FE002002F0CDFE002002F0CAFE0C
:103D4000002002F0C7FE002002F0C4FE002002F0B6
:103D5000C1FE002002F0BEFE002002F0BBFE0020EB
:103D600002F0B8FE002002F0B5FE002002F0B2FE24
:103D7000002002F0AFFE002002F0ACFE002002F0B6
:103D8000A9FEF02002F0B8FE002002F0A3FE5020B1
:103D900002F0A0FE002002F09DFE002002F09AFE3C
:103DA000002002F097FEF32002F0A6FE002002F0B1
:103DB00091FEF92002F0A0FE062002F08BFE1020FA
:103DC00002F088FE292002F085FE002002F082FE2B
:103DD0003A2002F091FE552002F07CFE112002F004
:103DE0008BFE6420FDF718FC292002F085FE3520AB
:103DF00002F082FE002002F06DFE512002F07CFEF7
:103E0000FF2002F067FE532002F076FE2C2002F025
:103E100061FE552002F070FE822002F05BFE2C2035
:103E2000FDE3B0427DD14FF470445521204602F0AD
:103E30007BFE651CAA21284602F076FEA61C5221B4
:103E4000304602F071FEE71C0821384602F06CFE95
:103E50004FF204080121404602F066FE0D214FF4A6
:103E6000304002F061FE0D214BF2010002F05CFED9
:103E70000D214BF2020002F057FE4FF43649342177
:103E8000484602F051FE34214BF2016002F04CFE34
:103E900034214BF2026002F047FE4FF4314B0D210A
:103EA000584602F041FE0D214BF2011002F03CFE9B
:103EB0000D214BF2021002F037FE34214FF437404F
:103EC00002F032FE34214BF2017002F02DFE34215B
:103ED0004BF2027002F028FE00214FF4324002F053
:103EE00023FE00214BF2012002F01EFE00214BF2C6
:103EF000022002F019FE24214FF4384002F014FE93
:103F000024214BF6010002F00FFE24214BF60200A3
:103F100002F00AFE01214FF43F4002F005FE0F219E
:103F200000E0FDE34FF4334002F0FEFD0F214BF2C1
:103F3000013002F0F9FD0F214BF2023002F0F4FDE6
:103F400034214FF4394002F0EFFD34214BF60110DB
:103F500002F0EAFD34214BF6021002F0E5FD0821E3
:103F60004FF4354002F0E0FD08214BF2015002F021
:103F7000DBFD08214BF2025002F0D6FD03214FF485
:103F8000424002F0D1FD24214FF43A4002F0CCFD32
:103F900024214BF6012002F0C7FD24214BF602201C
:103FA00002F0C2FD00214FF43C4002F0BDFD78213B
:103FB0004BF6014002F0B8FD00214BF6024002F042
:103FC000B3FD00214FF43D4002F0AEFD78214BF6E9
:103FD000015002F0A9FD00214BF6025002F0A4FDB1
:103FE00000214FF43E4002F09FFD64214BF601603A
:103FF00002F09AFD00214FF4514002F095FD33216B
:104000004DF2011002F090FD00214DF2021002F07D
:104010008BFD34214DF2031002F086FD00214DF29C
:10402000041002F081FD3A214DF2051002F07CFDF2
:1040300000214DF2061002F077FD4A214DF20710E3
:1040400002F072FD00214DF2081002F06DFD5C21BE
:104050004DF2091002F068FD00214DF20A1002F045
:1040600063FD81214DF20B1002F05EFD00214DF247
:104070000C1002F059FDA6214DF20D1002F054FD76
:1040800000214DF20E1002F04FFDE5214DF20F1010
:1040900002F04AFD01214DF2101002F045FD1321FE
:1040A0004DF2111002F040FD01214DF2121002F00C
:1040B0003BFD54214DF2131002F036FD01214DF26B
:1040C000141002F031FD82214DF2151002F02CFD8A
:1040D00001214DF2161002F027FDCA214DF21710F2
:1040E00002F022FD02214DF2181002F01DFD002108
:1040F0004DF2191002F018FD02214DF21A1002F0D3
:1041000013FD01214DF21B1002F00EFD02214DF2B4
:104110001C1002F009FD34214DF21D1002F004FDC7
:1041200002214DF21E1002F0FFFC67214DF21F101C
:1041300002F0FAFC02214DF2201002F0F5FC84217D
:104140004DF2211002F0F0FC02214DF2221002F09B
:10415000EBFCA4214DF2231002F0E6FC02214DF20B
:10416000241002F0E1FCB7214DF2251002F0DCFC36
:1041700002214DF2261002F0D7FCCF214DF227107C
:1041800002F0D2FC02214DF2281002F0CDFCDE211B
:104190004DF2291002F0C8FC02214DF22A1002F063
:1041A000C3FCF2214DF22B1002F0BEFC02214DF2B5
:1041B0002C1002F0B9FCFE214DF22D1002F0B4FCDF
:1041C00003214DF22E1002F0AFFC10214DF22F1002
:1041D00002F0AAFC03214DF2301002F0A5FC3321BD
:1041E0004DF2311002F0A0FC03214DF2321002F02A
:1041F0009BFC6D214DF2331002F096FC00214FF430
:10420000524002F091FC33214DF2012002F08CFC6F
:1042100000214DF2022002F087FC34214DF20320F0
:1042200002F082FC00214DF2042002F07DFC3A21D4
:104230004DF2052002F078FC00214DF2062002F03C
:1042400073FC4A214DF2072002F06EFC00214DF272
:10425000082002F069FC5C214DF2092002F064FCA8
:1042600000214DF20A2002F05FFC81214DF20B206B
:1042700002F05AFC00214DF20C2002F055FCA62160
:104280004DF20D2002F050FC00214DF20E2002F004
:104290004BFCE5214DF20F2002F046FC01214DF2CE
:1042A000102002F041FC13214DF2112002F03CFCE1
:1042B00001214DF2122002F037FC54214DF213205F
:1042C00002F032FC01214DF2142002F02DFC82217B
:1042D0004DF2152002F028FC01214DF2162002F0CB
:1042E00023FCCA214DF2172002F01EFC02214DF2E0
:1042F000182002F019FC00214DF2192002F014FCE4
:1043000002214DF21A2002F00FFC01214DF21B2078
:1043100002F00AFC02214DF21C2002F005FC3421BF
:104320004DF21D2002F000FC02214DF21E2002F091
:10433000FBFB67214DF21F2002F0F6FB02214DF23C
:10434000202002F0F1FB84214DF2212002F0ECFB51
:1043500002214DF2222002F0E7FBA4214DF223209E
:1043600002F0E2FB02214DF2242002F0DDFBB72136
:104370004DF2252002F0D8FB02214DF2262002F05A
:10438000D3FBCF214DF2272002F0CEFB02214DF2CC
:10439000282002F0C9FBDE214DF2292002F0C4FBE7
:1043A00002214DF22A2002F0BFFBF2214DF22B2018
:1043B00002F0BAFB02214DF22C2002F0B5FBFE21E7
:1043C0004DF22D2002F0B0FB03214DF22E2002F021
:1043D000ABFB10214DF22F2002F0A6FB03214DF282
:1043E000302002F0A1FB33214DF2312002F09CFB82
:1043F00003214DF2322002F097FB6D214DF2332064
:1044000002F092FB00214FF4534002F08DFB332168
:104410004DF2013002F088FB00214DF2023002F033
:1044200083FB34214DF2033002F07EFB00214DF27C
:10443000043002F079FB3A214DF2053002F074FBB2
:1044400000214DF2063002F06FFB4A214DF2073099
:1044500002F06AFB00214DF2083002F065FB5C219E
:104460004DF2093002F060FB00214DF20A3002F0FB
:104470005BFB81214DF20B3002F056FB00214DF227
:104480000C3002F051FBA6214DF20D3002F04CFB36
:1044900000214DF20E3002F047FBE5214DF20F30C6
:1044A00002F042FB01214DF2103002F03DFB1321DE
:1044B0004DF2113002F038FB01214DF2123002F0C2
:1044C00033FB54214DF2133002F02EFB01214DF24B
:1044D000143002F029FB82214DF2153002F024FB4A
:1044E00001214DF2163002F01FFBCA214DF21730A8
:1044F00002F01AFB02214DF2183002F015FB0021E8
:104500004DF2193002F010FB02214DF21A3002F088
:104510000BFB01214DF21B3002F006FB02214DF294
:104520001C3002F001FB34214DF21D3002F0FCFA88
:1045300002214DF21E3002F0F7FA67214DF21F30D2
:1045400002F0F2FA02214DF2203002F0EDFA84215D
:104550004DF2213002F0E8FA02214DF2223002F051
:10456000E3FAA4214DF2233002F0DEFA02214DF2EB
:10457000243002F0D9FAB7214DF2253002F0D4FAF6
:1045800002214DF2263002F0CFFACF214DF2273032
:1045900002F0CAFA02214DF2283002F0C5FADE21FB
:1045A0004DF2293002F0C0FA02214DF22A3002F019
:1045B000BBFAF2214DF22B3002F0B6FA02214DF295
:1045C0002C3002F0B1FAFE214DF22D3002F0ACFA9F
:1045D00003214DF22E3002F0A7FA10214DF22F30B8
:1045E00002F0A2FA03214DF2303002F09DFA33219D
:1045F0004DF2313002F098FA03214DF2323002F0E0
:1046000093FA6D214DF2333002F08EFA00214FF40F
:10461000544002F089FA33214DF2014000E07FE37B
:1046200002F082FA00214DF2024002F07DFA3421BC
:104630004DF2034002F078FA00214DF2044002F0FE
:1046400073FA3A214DF2054002F06EFA00214DF264
:10465000064002F069FA4A214DF2074002F064FA7E
:1046600000214DF2084002F05FFA5C214DF2094052
:1046700002F05AFA00214DF20A4002F055FA812167
:104680004DF20B4002F050FA00214DF20C4002F0C6
:104690004BFAA6214DF20D4002F046FA00214DF2F0
:1046A0000E4002F041FAE5214DF20F4002F03CFAD3
:1046B00001214DF2104002F037FA13214DF2114062
:1046C00002F032FA01214DF2124002F02DFA54218B
:1046D0004DF2134002F028FA01214DF2144002F08D
:1046E00023FA82214DF2154002F01EFA01214DF20B
:1046F000164002F019FACA214DF2174002F014FADE
:1047000002214DF2184002F00FFA00214DF219403B
:1047100002F00AFA02214DF21A4002F005FA00E016
:1047200002E301214DF21B4002F0FEF902214DF29D
:104730001C4002F0F9F934214DF21D4002F0F4F969
:1047400002214DF21E4002F0EFF967214DF21F40A9
:1047500002F0EAF902214DF2204002F0E5F984214D
:104760004DF2214002F0E0F902214DF2224002F028
:10477000DBF9A4214DF2234002F0D6F902214DF2DB
:10478000244002F0D1F9B7214DF2254002F0CCF9D6
:1047900002214DF2264002F0C7F9CF214DF2274009
:1047A00002F0C2F902214DF2284002F0BDF9DE21EB
:1047B0004DF2294002F0B8F902214DF22A4002F0F0
:1047C000B3F9F2214DF22B4002F0AEF902214DF285
:1047D0002C4002F0A9F9FE214DF22D4002F0A4F97F
:1047E00003214DF22E4002F09FF910214DF22F408F
:1047F00002F09AF903214DF2304002F095F933218D
:104800004DF2314002F090F903214DF2324002F0B6
:104810008BF96D214DF2334002F086F900214FF4FF
:10482000554002F081F933214DF2015002F07CF93C
:1048300000214DF2025002F077F934214DF203507D
:1048400002F072F900214DF2045002F06DF93A21A4
:104850004DF2055002F068F900214DF2065002F0C9
:1048600063F94A214DF2075002F05EF900214DF242
:10487000085002F059F95C214DF2095002F054F948
:1048800000214DF20A5002F04FF981214DF20B50F8
:1048900002F04AF900214DF20C5002F045F9A62130
:1048A0004DF20D5002F040F900214DF20E5002F091
:1048B0003BF9E5214DF20F5002F036F901214DF29E
:1048C000105002F031F913214DF2115002F02CF981
:1048D00001214DF2125002F027F954214DF21350EC
:1048E00002F022F901214DF2145002F01DF982214B
:1048F0004DF2155002F018F901214DF2165002F058
:1049000013F9CA214DF2175002F00EF902214DF2AF
:10491000185002F009F900214DF2195002F004F983
:1049200002214DF21A5002F0FFF801214DF21B5006
:1049300002F0FAF802214DF21C5002F0F5F8342191
:104940004DF21D5002F0F0F802214DF21E5002F01F
:10495000EBF867214DF21F5002F0E6F802214DF20C
:10496000205002F0E1F884214DF2215002F0DCF8F1
:1049700002214DF2225002F0D7F8A4214DF223502B
:1049800002F0D2F802214DF2245002F0CDF8B72106
:104990004DF2255002F0C8F802214DF2265002F0E7
:1049A000C3F8CF214DF2275002F0BEF802214DF29C
:1049B000285002F0B9F8DE214DF2295002F0B4F887
:1049C00002214DF22A5002F0AFF8F2214DF22B50A5
:1049D00002F0AAF802214DF22C5002F0A5F8FE21B7
:1049E0004DF22D5002F0A0F803214DF22E5002F0AE
:1049F0009BF810214DF22F5002F096F803214DF252
:104A0000305002F091F833214DF2315002F08CF821
:104A100003214DF2325002F087F86D214DF23350F0
:104A200002F082F800214FF4564002F07DF8332165
:104A30004DF2016002F078F800214DF2026002F0C0
:104A400073F834214DF2036002F06EF800214DF24C
:104A5000046002F069F83A214DF2056002F064F852
:104A600000214DF2066002F05FF84A214DF2076026
:104A700002F05AF800214DF2086002F055F85C216E
:104A80004DF2096002F050F800214DF20A6002F088
:104A90004BF881214DF20B6002F046F800214DF2F7
:104AA0000C6002F041F8A6214DF20D6002F03CF8D6
:104AB00000214DF20E6002F037F8E5214DF20F6053
:104AC00002F032F801214DF2106002F02DF81321AE
:104AD0004DF2116002F028F801214DF2126002F04F
:104AE00023F854214DF2136002F01EF801214DF21B
:104AF000146002F019F882214DF2156002F014F8EA
:104B000001214DF2166002F00FF8CA214DF2176034
:104B100002F00AF802214DF2186002F005F80021B7
:104B20004DF2196002F000F802214DF21A6001F016
:104B3000FBFF01214DF21B6001F0F6FF02214DF257
:104B40001C6001F0F1FF34214DF21D6001F0ECFF1B
:104B500002214DF21E6001F0E7FF67214DF21F6058
:104B600001F0E2FF02214DF2206001F0DDFF84211F
:104B70004DF2216001F0D8FF02214DF2226001F0D8
:104B8000D3FFA4214DF2236001F0CEFF02214DF2AC
:104B9000246001F0C9FFB7214DF2256001F0C4FF88
:104BA00002214DF2266001F0BFFFCF214DF22760B8
:104BB00001F0BAFF02214DF2286001F0B5FFDE21BD
:104BC0004DF2296001F0B0FF02214DF22A6001F0A0
:104BD000ABFFF2214DF22B6001F0A6FF02214DF256
:104BE0002C6001F0A1FFFE214DF22D6001F09CFF31
:104BF00003214DF22E6001F097FF10214DF22F603E
:104C000001F092FF03214DF2306001F08DFF33215E
:104C10004DF2316001F088FF03214DF2326001F066
:104C200083FF6D214DF2336001F07EFF5521204658
:104C300001F07AFFAA21284601F076FF5221304682
:104C400001F072FF0821384601F06EFF0021404656
:104C500001F06AFFCC21584601F066FF00214BF2BB
:104C6000011001F061FF0521484601F05DFF702150
:104C70004FF4374001F058FF70214BF2017001F002
:104C800053FF01214FF4384001F04EFF03214BF652
:104C9000010001F049FF03214BF6020001F044FF3F
:104CA00003214BF6030001F03FFF02214FF43C408B
:104CB00001F03AFF00214BF6014001F035FF0021E1
:104CC0004BF6024001F030FFD0214FF4494001F093
:104CD0002BFF02214CF6011001F026FF50214CF66B
:104CE000021001F021FF50214CF6031001F01CFFCF
:104CF00050214CF6041001F017FF00214FF45450DE
:104D000001F012FF55214FF4685001F00DFF4FF4F0
:104D1000885001F0F1FE782003F09AFC4FF4245003
:104D200001F0EAFE01F053BAA0F513414FF4807789
:104D30004FF4E06640F2022840F23F144FF4274956
:104D4000253933D0F51DA0F5134128397DD0A0F5C4
:104D500013414FF48879203978D0A0F513414FF4EE
:104D6000007B313973D0A0F5A841083970D0A0F587
:104D7000A8514FF4407905396BD0A0F5354105397C
:104D800068D0A0F54541053965D0A0F509418939BC
:104D90007DD0A0F58A4131397AD0A0F58A413539E4
:104DA00077D0A0F5C851633974D0BBE747F6F0015E
:104DB000E52001F0B9FE3946012001F0B5FE31468B
:104DC000022001F0B1FE41F23001032001F0ACFEFF
:104DD0000021042001F0A8FE4146082001F0A4FEB5
:104DE0000021092001F0A0FE00210A2001F09CFE14
:104DF00000210C2001F098FE00210D2001F094FE0E
:104E000000210F2001F090FE0021102001F08CFE07
:104E10000721112001F088FE0021122001F084FEFC
:104E20000021132001F080FE0021072001F07CFE0C
:104E300041F29061102001F077FE40F2272111200D
:104E400001F072FE9D21122006E087E042E1E6E1DA
:104E5000B9E254E3FEE3FEE301F066FE4FF4C8510D
:104E6000132001F061FE2521292001F05DFE0D21B6
:104E70002B2001F059FE0721302001F055FE40F2B1
:104E80000331312001F050FE0321322003E0FDE325
:104E9000FDE3FDE3FDE301F047FE40F2062135208E
:104EA00001F042FE0821362001F03EFE40F20641AC
:104EB000372001F039FE4FF44171382001F034FE03
:104EC0000721392001F030FE40F202613C2001F060
:104ED0002BFE08213D2001F027FE0021502001F08B
:104EE00023FEEF21512001F01FFE0021522001F08E
:104EF0001BFE2146532001F017FE4946602001F0B9
:104F000013FE0121612001F00FFE00216A2001F053
:104F10000BFE0021802001F007FE0021812001F01E
:104F200003FE0021822001F0FFFD0021832001F01B
:104F3000FBFD0021842001F0F7FD0021852001F018
:104F4000F3FD1021902001F0EFFD4FF4C06192209D
:104F500001F0EAFD40F233110720FDE341F28F0139
:104F6000EC2001F0E1FD41F23421EF2001F0DCFD05
:104F70003946012001F0D8FD3146022001F0D4FD70
:104F800041F23001032001F0CFFD0021042001F0A7
:104F9000CBFD4146082001F0C7FD0021092001F0AA
:104FA000C3FD00210A2001F0BFFD01210C2001F00A
:104FB000BBFD00210D2001F0B7FD00210F2001F005
:104FC000B3FD0021102001F0AFFD0721112001F0F9
:104FD000ABFD0021122001F0A7FD0021132001F0FC
:104FE000A3FD0121072001F09FFD3220FCF714FBF7
:104FF00041F29041102001F097FD40F2272111204D
:1050000001F092FD3220FCF707FB8A21122001F00B
:105010008BFD3220FCF700FB4FF4D051132001F040
:1050200083FD0621292001F07FFD0D212B2001F0B9
:105030007BFD3220FCF7F0FA0021202001F074FD06
:105040000021212001F070FD3220FCF7E5FA00215B
:10505000302001F069FD40F20461312001F064FD6F
:1050600040F20531322001F05FFD0021352001F0D2
:105070005BFD40F60941362001F056FD4FF4017109
:10508000372001F051FD40F20131382001F04CFD94
:105090002946392001F048FD00213C2001F044FD63
:1050A00040F60A213D2001F03FFD3220FCF7B4FA22
:1050B0000021502001F038FDEF21512001F034FD96
:1050C0000021522001F030FD2146532001F02CFD3B
:1050D00049464DE10021084601F026FD39460120F0
:1050E00001F022FD3146022001F01EFD41F23001A7
:1050F000032001F019FD0021042001F015FD4146B7
:10510000082001F011FD0021092001F00DFD002112
:105110000A2001F009FD01210C2001F005FD00210C
:105120000D2001F001FD00210F2001F0FDFC3220D7
:10513000FCF772FA40F20111072001F0F5FC322071
:10514000FCF76AFA4FF48651102001F0EDFC0721BC
:10515000112001F0E9FC4D464946122001F0E4FC23
:105160004FF43061132001F0DFFC0021292001F011
:10517000DBFC44F210012B2001F0D6FC0021502072
:1051800001F0D2FCEF21512001F0CEFC0021522091
:1051900001F0CAFC2146532001F0C6FC4FF41C511B
:1051A000602001F0C1FC0121612001F0BDFC002163
:1051B0006A2001F0B9FC0021802001F0B5FC00213B
:1051C000812001F0B1FC0021822001F0ADFC002122
:1051D000832001F0A9FC0021842001F0A5FC00211E
:1051E000852001F0A1FC1021902001F09DFC002100
:1051F000922001F099FC0121932001F095FC2946B1
:10520000952001F091FC0021972001F08DFC0021F8
:10521000982001F089FC40F2731107207EE341F2EF
:105220001401E72001F080FC3946012001F07CFCEC
:105230005946022001F078FC41F23801032001F0C8
:1052400073FC4146082001F06FFC0021092001F0A9
:105250006BFC00210A2001F067FC00210C2001F00A
:1052600063FC00210D2001F05FFC00210F2001F004
:105270005BFC0021102001F057FC0721112001F0F8
:1052800053FC0021122001F04FFC0021132001F0FB
:105290004BFCC820FCF7C0F941F29061102001F0EE
:1052A00043FC40F22721112001F03EFC3220FCF7A4
:1052B000B3F90C21122001F037FC3220FCF7ACF9D5
:1052C0004FF40061132001F02FFC1121292001F07F
:1052D0002BFC0B212B2001F027FC3220FCF79CF942
:1052E0000021202001F020FC2146212001F01CFC9F
:1052F0000021302001F018FC4FF483763146312034
:1053000001F012FC0021322001F00EFC4FF401717B
:10531000352001F009FC41F20A61362001F004FC5D
:105320002946372001F000FC3146382001F0FCFB13
:105330002946392001F0F8FB40F202413C2001F0FF
:10534000F3FB40F60F413D2001F0EEFB0021502021
:1053500001F0EAFBEF21512001F0E6FB0021522091
:1053600001F0E2FB2146532001F0DEFB4FF41C511B
:10537000602001F0D9FB0121612001F0D5FB002163
:105380006A2001F0D1FB0021802001F0CDFB00213B
:10539000812001F0C9FB0021822001F0C5FB002122
:1053A000832001F0C1FB0021842001F0BDFB00211E
:1053B000852001F0B9FB1021902001F0B5FB4FF4DE
:1053C000C0619220FEE33946012001F0ADFB314679
:1053D000022001F0A9FB41F23001032001F0A4FBFF
:1053E0000021042001F0A0FB40F20721082001F079
:1053F0009BFB0021092001F097FB00210A2001F00E
:1054000093FB00210C2001F08FFB00210D2001F007
:105410008BFB00210F2001F087FB1420FCF7FCF828
:1054200041F2B061102001F07FFB0121112001F059
:105430007BFB0121172001F077FB4FF49C711220B8
:1054400001F072FB4FF40061132001F06DFB0921A4
:10545000292001F069FB09212A2001F065FB0021C8
:10546000A42001F061FB0021502001F05DFBEF2141
:10547000512001F059FB0021522001F055FB21463B
:10548000532001F051FB4FF41C51602001F04CFB04
:105490000121612001F048FB00216A2001F044FB5A
:1054A0000021802001F040FB0021812001F03CFB25
:1054B0000021822001F038FB0021832001F034FB21
:1054C0000021842001F030FB0021852001F02CFB1D
:1054D0001321902001F028FB0021922001F024FBF1
:1054E0000321932001F020FB4946952001F01CFB8D
:1054F00040F27311072001F017FB32200EE100216A
:10550000072001F011FB3220FCF786F84FF48E7172
:10551000122001F009FB0121A42001F005FB0F215D
:10552000082001F001FB08210A2001F0FDFA082102
:105530000D2001F0F9FA2946302001F0F5FA072193
:10554000312001F0F1FA40F20361322001F0ECFA6F
:105550003146332001F0E8FA4146342001F0E4FA04
:105560000221352001F0E0FA41F60F71362001F0FA
:10557000DBFA2946372001F0D7FA0021382001F064
:10558000D3FA0021392001F0CFFA29463A2001F060
:10559000CBFA00213B2001F0C7FA07213C2001F0A3
:1055A000C3FA00213D2001F0BFFA3220FCF734F8A5
:1055B0000121072001F0B8FA0121172001F0B4FA07
:1055C0003220FCF729F84FF4BD51102001F0ACFA5D
:1055D00040F21721112001F0A7FA4FF48F71122029
:1055E00001F0A2FA4FF47061132001F09DFA00213E
:1055F0002A2001F099FA0A21292001F095FA4FF4A6
:105600009F71122001F090FA0021502001F08CFAD5
:10561000EF21512001F088FA0021522001F084FA94
:105620002146532001F080FA4FF41C51602001F014
:105630007BFA0121612001F077FA00216A2001F054
:1056400073FA0021802001F06FFA0021812001F01F
:105650006BFA01E065E062E10021822001F064FA6A
:105660000021832001F060FA0021842001F05CFA1F
:105670000021852001F058FA1321902001F054FAFE
:105680004946922001F050FA052103E00FE2C3E2FF
:1056900077E3FDE3932001F047FA0021952001F024
:1056A00043FA0021972001F03FFA0021982001F0F1
:1056B0003BFA3946012001F037FA3146022001F069
:1056C00033FA41F23801032001F02EFA00210420C0
:1056D00001F02AFA00210C2001F026FA00210F2007
:1056E00001F022FA0021202001F01EFA00212120E1
:1056F00001F01AFA2121072001F016FA1420FBF715
:105700008BFF6121072001F00FFA1420FBF784FFC3
:1057100040F27311072001F007FA1420FBF77CFF19
:105720002EE30021084601F0FFF90021084601F0B0
:10573000FBF90021084601F0F7F90021084601F0C5
:10574000F3F90121A42001F0EFF91420FBF764FF25
:105750004FF41C59494600E0DCE0602001F0E4F918
:1057600045464146082001F0DFF94FF4057130202D
:1057700001F0DAF943F21571312001F0D5F940F268
:105780000461322001F0D0F940F61661332001F0B7
:10579000CBF942F21121342001F0C6F94FF4A8519F
:1057A000352001F0C1F948F20751362001F0BCF96B
:1057B00041F20741372001F0B7F941F203413820A7
:1057C00001F0B2F92021392001F0AEF91A21902020
:1057D00001F0AAF90021102001F0A6F907211120FB
:1057E00001F0A2F90021122001F09EF900211320FE
:1057F00001F09AF91420FBF70FFF4FF4E661102037
:1058000001F092F940F23711112001F08DF91420C6
:10581000FBF702FF4FF4DC71122001F085F9142030
:10582000FBF7FAFE4FF47061132001F07DF980213F
:105830002A2001F079F94821292001F075F9142076
:10584000FBF7EAFE3946012001F06EF931460220ED
:1058500001F06AF941F23801032001F065F92946A7
:10586000082001F061F900210A2001F05DF9002112
:105870000C2001F059F900210D2001F055F93021DB
:105880000E2001F051F90021502001F04DF9EF21D7
:10589000512001F049F90021522001F045F921463B
:1058A000532001F041F94946602001F03DF9012102
:1058B000612001F039F900216A2001F035F9112148
:1058C000902001F031F94FF4C061922001F02CF9E1
:1058D00040F20241932001F027F90221942001F0C7
:1058E00023F91420FBF798FE0121072001F01CF991
:1058F0001420FBF791FE6121072001F015F940F219
:105900007311072001F010F90021202001F00CF99B
:105910000021212001F008F9222100202EE200219F
:10592000084601F001F90021084601F0FDF81420B5
:10593000FBF772FE0021084601F0F6F80021084648
:1059400001F0F2F80021084601F0EEF800210846C7
:1059500001F0EAF80121A42001F0E6F81420FBF799
:105960005BFE4FF41C51602001F0DEF840F60601AA
:10597000082001F0D9F840F203763146302001F0DA
:10598000D3F80121312001F0CFF80421322001F0B9
:10599000CBF84FF48171332001F0C6F84D464946EB
:1059A000342001F0C1F840F20311352001F0BCF8B9
:1059B0001F21362001F0B8F83146372001F0B4F845
:1059C0000121382001F0B0F80421392001F0ACF8B1
:1059D0001521902001F0A8F84FF48261102001F009
:1059E000A3F840F24721112001F09EF84FF4DE7138
:1059F000122001F099F84FF46061132001F094F83F
:105A00007820FBF709FE3946012001F08DF8594650
:105A1000022001F089F841F23001032001F084F8FE
:105A200008210A2001F080F800210C2001F07CF808
:105A300020210E2001F078F800210F2001F074F8E9
:105A40000021202001F070F80021212001F06CF8E5
:105A50003D212A2001F068F81420FBF7DDFD2D21FF
:105A6000292001F061F80021502001F05DF84DF28D
:105A7000EF01512001F058F80021522001F054F8B4
:105A80002146532001F050F80021612001F04CF82C
:105A900000216A2001F048F82946922001F044F8DC
:105AA0000521932001F040F83946FFF7B6BB0121EC
:105AB000002001F039F84AF6A401032001F034F87F
:105AC00000210C2001F030F840F60C010D2001F00F
:105AD0002BF84FF42C510E2001F026F8B0211E2097
