:020000040800F2
:10000000A006002045010008A71600086F1400088C
:10001000A5160008B1010008A11B0008000000009F
:10002000000000000000000000000000CB160008E7
:10003000CD01000800000000C9160008CD16000818
:100040005F0100085F0100085F0100085F01000810
:100050005F0100085F0100085F0100085F01000800
:100060005F0100085F0100085F0100085F010008F0
:100070005F0100085F0100085F010008B50100088A
:10008000C10100085F0100085F0100085F0100086E
:100090005F0100085F0100085F0100085F010008C0
:1000A0005F0100085F0100085F0100085F010008B0
:1000B0005F0100088D1700085F0100085F0100085C
:1000C0005F0100085F0100085F0100085F01000890
:1000D0005F010008311B0008951B00085F01000844
:1000E0005F0100085F0100085F0100085F01000870
:1000F0005F0100085F0100085F0100085F01000860
:100100005F0100085F010008991700085F010008FF
:100110005F0100085F0100085F0100085F0100083F
:100120005F0100085F0100085F0100085F0100082F
:10013000DFF80CD000F02AF800480047C51B000883
:10014000A00600200648804706480047FEE7FEE775
:10015000FEE7FEE7FEE7FEE7FEE7FEE7FEE7FEE777
:10016000451700083101000840EA01039B0703D04E
:1001700009E008C9121F08C0042AFAD203E011F8E6
:10018000013B00F8013B521EF9D27047064C074D67
:1001900006E0E06840F0010394E807009847103457
:1001A000AC42F6D3FFF7C8FF441C0008641C0008EB
:1001B000FEE70000014800F0A3B800001402002090
:1001C000014800F09DB80000580200207047000070
:1001D0002DE9F05F90F821100024022903D00421BA
:1001E0008163012485E001680A6822F00E020A603A
:1001F00001680A6822F001020A603F4E3E4FB215C4
:10020000DFF8F4C0DFF8F090DFF8ECA0DFF8E8B03A
:10021000DFF8E4E00168783F13011502ACF1640CEB
:10022000A9F15009AAF13C0AABF1280BAEF1140E6A
:100230004FF48018B14227D9B9420ED0614512D08F
:1002400049451DD0514518D0594518D0714501D1A7
:10025000424615E0294EB14201D1012210E0274E5D
:100260001436B14201D110220AE0244E2836B142A0
:1002700006D0224A3C32914201D11A4600E02A4679
:100280001E49091F0A602BE0B94213D0614517D0FF
:10029000494522D051451DD059451DD0714501D148
:1002A00042461AE0B14202D14FF0807215E0134E7F
:1002B000B14201D1012210E0104E1436B14201D1F9
:1002C00010220AE00D4E2836B14206D00B4A3C32CD
:1002D000914201D11A4600E02A46074980394A6016
:1002E000012180F82110002180F82010416B01B11C
:1002F00088472046BDE8F09F800002400804024085
:100300002DE9F05FC16B0A6801680B68046C4FF05F
:10031000040808FA04F8844D844E854FDFF814C2AF
:10032000DFF81492DFF814A2DFF814B2DFF814E259
:1003300018EA020F65D05FEA437862D50A68920630
:1003400003D40A6822F004020A60DFF8F0814FF457
:100350008062016808F1140813011402414524D990
:10036000A9420DD0B1420FD0B9421AD0614515D083
:10037000494515D0514501D1120312E0594501D12B
:1003800004220EE0714501D140220AE06D4D143582
:10039000A94206D06B4A2832914201D11A4600E0A8
:1003A00022466749091F0A6029E0A94213D0B142D9
:1003B00015D0B94220D061451BD049451BD05145CD
:1003C00002D14FF4800217E0414502D14FF0806224
:1003D00012E0594501D104220EE0714501D14022BD
:1003E0000AE0584D1435A94206D0564A28329142A7
:1003F00001D11A4600E022464B4908394A60C16AD9
:1004000071E04FF0020808FA04F818EA020F70D001
:100410005FEA83786DD50A68920606D40A6822F0EE
:100420000A020A60012180F82110DFF810814FF4E0
:100430000072016808F1140813011402414524D91F
:10044000A9420DD0B1420FD0B9421AD0614515D0A2
:10045000494515D0514501D1120312E0594501D14A
:1004600002220EE0714501D120220AE0354D1435FB
:10047000A94206D0334A2832914201D11A4600E0FF
:1004800022462F49091F0A6029E0A94213D0B14230
:1004900015D0B94220D061451BD049451BD05145EC
:1004A00002D14FF4001217E0414502D14FF0007223
:1004B00012E0594501D102220EE0714501D12022FE
:1004C0000AE0204D1435A94206D01E4A2832914236
:1004D00001D11A4600E02246134908394A6000213A
:1004E00080F82010816A00291CD0BDE8F05F084721
:1004F000FFE70825A540154214D01A0712D50A684F
:1005000022F00E020A6090F84020C36B012101FA2C
:1005100002F25A60816380F82110002180F82010D7
:10052000016BE0E7BDE8F09F080002401C000240BC
:100530003000024044000240580002406C0002407B
:10054000080402401C04024030B560B11C4A036834
:100550001421934209D21B4A1A44B2FBF1F18900DB
:10056000016419490AE0012030BD154A52421A447B
:10057000B2FBF1F18900016411490839C16302211C
:1005800080F821101A6843F6F0718A43F0E90114EB
:100590002143D0E902452C432143046921434469A6
:1005A0002143846921431143196000214162816222
:1005B000C16201634163012242770177084630BD81
:1005C00008040240F8FFFDBF000002402DE9F84F8B
:1005D000DFF8B8A100220AF1040B144601274FF0FE
:1005E0000F090BF1040E00BF0B6807FA04F52B404E
:1005F000AB4274D1DFF898C14E68A6EB0C08664593
:100600002BD00DDC032E34D005DC36B3012E19D0EF
:10061000022E2FD11BE0112E16D0122E2AD119E056
:10062000B8F5881F19D006DCB8F5803F15D0B8F5AD
:10063000801F1FD111E0B8F5001F0ED0B8F5041FC0
:1006400018D10AE0CA6815E0CA68121D12E0CA682B
:1006500008320FE0CA680C320CE08A682AB1012A1D
:100660004FF0080203D0456104E0042202E0056176
:1006700000E00022FF2B01D8064601E000F104064D
:100680004FEA840501D9A5F12005D6F800C009FA82
:1006900005F82CEA080C02FA05F54CEA050CC6F838
:1006A00000C04D68ED006AD53A4DAE6946F00106CE
:1006B000AE61AD6924F0030605F001050095364DE5
:1006C00006EB050CDCF80850A6074FEA167809FA85
:1006D00008F6B543314EB04202D100261AE04EE092
:1006E0002F4EB04201D1012614E02E4EB04201D16E
:1006F00002260FE02C4EB04201D103260AE02B4E19
:10070000B04201D1042605E0294EB04201D10526B0
:1007100000E0062606FA08F62E43CCF808604D687D
:10072000DAF80060ED03554601D51E4300E09E4314
:100730002E604D68AD0305D5DBF800601E43CBF895
:10074000006004E0DBF800509D43CBF800504D689A
:10075000DEF80060ED02754601D51E4300E09E43C1
:100760002E604D68AD0205D5084D0C352E681E4330
:100770002E6004E0054E0C3635689D433560641CE0
:10078000102CFFF431AFBDE8F88F000000040140E9
:10079000000011100010024000000140000801405C
:1007A000000C0140001001400014014000180140FD
:1007B000001C0140014880687047000000000020D4
:1007C000024881680278114481607047000000206F
:1007D000074810B5016841F010010160032000F0E6
:1007E00095F8002000F006F800F024F8002010BD75
:1007F0000020024070B50D4D04464FF47A71287800
:10080000B1FBF0F00A490968B1FBF0F000F025FBFC
:1008100048B9102C07D200222146501E00F056F88D
:1008200000206C6070BD012070BD00000000002041
:100830000C0000201D4808B5816941F0010181616B
:10084000806900F001000090032000F05FF80022B2
:1008500011466FF00B0000F039F8002211466FF0DE
:100860000A0000F033F8002211466FF0090000F092
:100870002DF800221146501F00F028F800221146E2
:10088000101F00F023F800221146901E00F01EF801
:1008900000221146501E00F019F80548416821F069
:1008A000E06141F00071416008BD000000100240AD
:1008B0000000014000F01F0201219140400980002A
:1008C00000F1E020C0F8001170470000F0B40E4BBA
:1008D0001B680C46C3F30223C3F10705042D00D99E
:1008E0000425191D072901D2002300E0DB1E012683
:1008F00006FA05F1491E214099409E40761E164099
:100900003143F0BC00F0D0BE0CED00E0064900F031
:10091000070208684FF6FF03184040EA0220034A26
:1009200010430860704700000CED00E00000FA057D
:100930002DE9F047DFF83C8105460E46D8F8000067
:1009400000F00700B0420CD2D8F8001021F00701E7
:100950003143C8F80010D8F8000000F00700B0429A
:1009600063D12878444C800705D56068A96820F0D9
:10097000F000084360602878C00745D06868012807
:1009800016D02168022816D0890700294DDA61683F
:1009900021F0030101436160FFF70CFF696807461E
:1009A00041F2883001290FD00229814619D027E071
:1009B00021688903E9E78901E7E700BFFFF7FAFE4D
:1009C000C11B494501D918E081466068C0F3810028
:1009D0000128F3D118E000BFFFF7ECFEC11B494529
:1009E0000BD86068C0F381000228F5D10CE000BF8D
:1009F000FFF7E0FEC11B494502D90320BDE8F0879F
:100A0000606810F00C0FF3D1D8F80010404601F0E8
:100A10000701B1420BD9016821F0070131430160A0
:100A2000006800F00700B04201D00120E6E7287816
:100A3000400705D56068E96820F4E060084360601D
:100A40002878000706D56068296920F4605040EADC
:100A5000C100606000F03CF86168084AC1F303110E
:100A6000515CC840064908600020FFF7C3FE002023
:100A7000C4E7000000200240001002402C1C0008C7
:100A80000C00002001480068704700000C000020A6
:100A90000448054900684968044AC1F30221515CD1
:100AA000C84070470C000020001002403C1C0008A9
:100AB0000448054900684968044AC1F3C221515CF1
:100AC000C84070470C000020001002403C1C000889
:100AD00012A185B00FC98DE80F0014A0144A006858
:100AE00004905168134801F00C03042B10D0082B1C
:100AF0000ED1C1F38343C9031DF803000AD5516821
:100B000004AAC1F34041515C0A4A5043B0FBF1F0E2
:100B100005B0704708494843FAE70000020304059E
:100B2000060708090A0B0C0D0E0F10100102000039
:100B30000010024000127A0000093D002DE9F84F34
:100B400004460078B94DC00748D06868C0F38100FA
:100B5000012807D06868C0F38100022809D16868BD
:100B6000C00306D52868800338D5606800286FD098
:100B700034E06068B0F5803F0BD010B1B0F5A02F25
:100B800011D0286820F480302860286820F4802064
:100B900002E0286840F480302860606888B1FFF780
:100BA00009FE064609E0286840F480202860F0E746
:100BB000FFF700FE801B642875D828688003F7D5EE
:100BC0000CE0FFF7F7FD064605E000BFFFF7F2FD7A
:100BD000801B6428F0D828688003F7D42078944ECE
:100BE00080074FF001094FF000083BD5686810F00E
:100BF0000C0F07D06868C0F38100022809D168682B
:100C0000C00306D42868800714D5206901281FD1A5
:100C100010E02069B0B1C6F80090FFF7CBFD0746A1
:100C200005E000BFFFF7C6FDC01B0228C4D8286836
:100C30008007F7D52868616920F0F80040EAC10014
:100C400028600FE0C6F80080FFF7B4FD074606E015
:100C5000E9E000BFFFF7AEFDC01B022823D82868DB
:100C60008007F7D4207800072CD57248A169D9B144
:100C7000C0F80090FFF79EFD074604E0FFF79AFDDD
:100C8000C01B02280FD8686A8007F7D56A484FF45E
:100C9000FA510068B0FBF1F0009000BF0098411ECF
:100CA0000091FAD20EE080E0C0F80080FFF782FDEC
:100CB000074604E0FFF77EFDC01B022875D8686A6E
:100CC0008007F7D42078400760D5E8690027C00086
:100CD00008D4E86940F08050E861E869012700F035
:100CE0008050009055480168C90513D401688346B7
:100CF00041F480710160FFF75DFD824606E000BFB0
:100D0000FFF758FDA0EB0A0064284ED8DBF800007E
:100D1000C005F5D5E06801280AD008B1052813D030
:100D2000286A20F001002862286A20F0040002E00E
:100D3000286A40F001002862E06841F2883B98B1DF
:100D4000FFF738FD82460BE0286A40F00400286275
:100D5000EEE700BFFFF72EFDA0EB0A0159455AD878
:100D6000286A8007F6D50CE0FFF724FD824605E0EF
:100D7000FFF720FDA0EB0A0159454CD8286A8007EF
:100D8000F6D41FB1E86920F08050E861E06988B3CB
:100D90006968C1F38101022945D00228C6F8608044
:100DA00004D0FFF707FD044638E034E0FFF702FD0A
:100DB000074604E0FFF7FEFCC01B02282BD828687A
:100DC0008001F7D4206AB0F5803F05D16868A1683A
:100DD00020F4003008436860D4E9080108436968DA
:100DE00021F4741108436860C6F86090FFF7E2FCD4
:100DF000044606E015E000BFFFF7DCFC001B0228FC
:100E000009D828688001F7D50BE000BFFFF7D2FCB6
:100E1000001B022802D90320BDE8F88F2868800152
:100E2000F4D40020F8E70120F6E7000000100240AB
:100E300000004242800442420C000020007000404A
:100E40004FF0E0210428086903D020F00400086175
:100E5000704740F00400FAE7704710B5401EB0F14B
:100E6000807F01D3012010BD4FF0E02460610F218D
:100E7000601700F019FC0020A0610720206100200D
:100E800010BD10B5FFF7E8FF10BD7047704730B5D3
:100E900090F83C20012A20D0012280F83C20022337
:100EA00080F83D3003685C6824F070045C6003687F
:100EB0005C680D682C435C6003689C6824F08004C7
:100EC0009C6003689C6849680C439C6080F83D20E6
:100ED000002180F83C10084630BD022030BD10B51E
:100EE000040003D094F83D0010B107E0012010BDCC
:100EF000002084F83C00204600F00CF8022084F822
:100F00003D00211D206800F04DFC012084F83D00CB
:100F1000002010BD08B50C4A01680C48914207D169
:100F2000C16941F00201C161C06900F0020009E03D
:100F3000074A914207D1C16941F00801C161C06906
:100F400000F00800009008BD0004004000100240BE
:100F5000000C004070B5044690F83C00012817D002
:100F6000012584F83C50022084F83D002068826806
:100F700022F0770222F47F4282600868502837D03E
:100F80000DDC202859D005DC88B3102841D151E070
:100F9000022070BD302853D040283AD13FE060286D
:100FA0002ED070280BD0B0F5805F03D0B0F5005F75
:100FB0002FD110E02068816821F0070115E0CB688F
:100FC000D1E90121206800F033FC2168886840F0F5
:100FD000770088601DE0CB68D1E90121206800F02E
:100FE00027FC2068816841F48041816011E01EE0A7
:100FF000CA684968206800F02DFC5021206806E08E
:10100000CA684968206800F036FC6021206800F05A
:1010100019FC84F83D50002084F83C0070BDCA687B
:101020004968206800F016FC40212068EFE70021A5
:101030002068ECE710212068E9E720212068E6E736
:1010400030212068E3E7704770B504460068016905
:101050004FF00005C943890715D4C168C943890702
:1010600011D4E91E01610120207720688069800782
:10107000204602D0FFF7E7FF04E000F098F8204692
:1010800000F096F8257720680169C943490717D40D
:10109000C168C943490713D46FF0040101610220FC
:1010A00020772068806910F4407F204602D0FFF747
:1010B000CAFF04E000F07BF8204600F079F82577BD
:1010C00020680169C943090716D4C168C9430907E3
:1010D00012D46FF008010161042020772068C069F4
:1010E0008007204602D0FFF7AEFF04E000F05FF873
:1010F000204600F05DF8257720680169C943C906DC
:1011000017D4C168C943C90613D46FF01001016137
:10111000082020772068C06910F4407F204602D064
:10112000FFF791FF04E000F042F8204600F040F89D
:10113000257720680169C943C90708D1C168C94337
:10114000C90704D1891E0161204600F032F82068E9
:101150000169C943090609D4C168C943090605D410
:101160006FF0800101612046FFF78FFE2068016962
:10117000C943490609D4C168C943490605D46FF07B
:1011800040010161204600F015F820680169C9435B
:1011900089060BD4C168C943890607D46FF02001C2
:1011A00001612046BDE87040FFF770BE70BD70471A
:1011B000704770477047704770B502680446106802
:1011C000D168536910F00F0F50D003F0010501F4FE
:1011D000907635435DD0C20705D0CA0503D5E26BD2
:1011E00042F00102E263420705D5DA0703D0E26B61
:1011F00042F00202E263820705D5DA0703D0E26B10
:1012000042F00402E263020705D5DA0703D0E26B7D
:1012100042F00802E263E26B002A33D0800604D574
:10122000880602D5204600F04EFB20684069E16B3D
:10123000C0F38010090700D428B3204600F035FB26
:101240002068416949061AD5416921F04001416190
:10125000606BA0B11B494163606BFEF7B9FF0028CA
:1012600010D0606B416BBDE870400847830610D515
:101270008B060ED52046BDE8704000F024BB20460A
:10128000FFF799FF70BD2046FFF795FF0020E06350
:1012900070BD030606D50B0604D52046BDE8704098
:1012A00000F014BC4006F3D54806F1D5D1682046BD
:1012B00021F04001D160202184F8391000F0D6F8E7
:1012C00070BD00009B18000870B5040004D094F8AD
:1012D0003900002510B106E0012070BD84F83850B7
:1012E000204600F023F8242084F839002068C168E3
:1012F00021F40051C160204600F030FB20680169F4
:1013000021F4904101612068416921F02A01416185
:101310002068C16841F40051C160E563202084F871
:10132000390084F83A00002070BD0000F0B5064690
:10133000DFF8D0C003680024334802220321334D74
:10134000802785B063452BD1836943F48043836153
:101350008069039100F4804004901002CDE90002FE
:1013600069462846FFF732F92815CDE90004694699
:1013700028460294FFF72AF9264D2548C5E90004BE
:10138000C5E902472C616C61AC612846EC61FFF74E
:10139000DBF808B1902131E075636E6205B0F0BDF5
:1013A000DFF874C06345F9D1C36943F40033C36106
:1013B000C069039100F4003004900420CDE90002DC
:1013C00069462846FFF702F90820CDE9000469467E
:1013D00028460294FFF7FAF80E4D0D4844351430B4
:1013E000C5E90004C5E902472C616C61AC6128467F
:1013F000EC61FFF7A9F80028CED0BB2107A000F0D0
:10140000D0FBC9E70038014000100240000801404D
:101410005800024014020020004400402E2E2F539A
:1014200072632F75736172742E630000704790F8B9
:101430003930202B18D1A9B1A2B190F83830012B46
:1014400012D001628284C2840021C163212280F80B
:10145000392080F838100068C16841F08001C1600F
:101460000020704701207047022070477047FEE758
:10147000054808B5416941F001014161406900F04A
:101480000100009008BD000000100240094808B5A6
:10149000816941F020018161816901F020010091A1
:1014A000816941F004018161806900F004000090CD
:1014B00008BD00000010024010B500221146252092
:1014C000FFF704FA2520FFF7F5F900221146262040
:1014D000FFF7FCF92620FFF7EDF900221146322034
:1014E000FFF7F4F93220FFF7E5F9002211460F204B
:1014F000FFF7ECF90F20FFF7DDF90022114610206D
:10150000FFF7E4F91020FFF7D5F9002211461D205E
:10151000FFF7DCF9BDE810401D20FFF7CBB9000054
:1015200010B5184886B01649016041F61F410024E5
:10153000C0E9011440F2E731C0E903148461FFF708
:10154000CEFC18B1402110A000F02BFB4FF48050CE
:10155000009069460B48FFF7FDFC18B146210AA030
:1015600000F01FFB049404A906480594FFF78FFCC4
:10157000002803D04D2104A000F013FB06B010BDDD
:1015800000040040140000202E2E2F5372632F748D
:10159000696D2E630000000010B5174886B015492C
:1015A000016017210024C0E901140221C0E90314DD
:1015B0008461FFF794FC18B15F2110A000F0F1FAEC
:1015C0004FF48050009069460B48FFF7C3FC18B1F8
:1015D00065210AA000F0E5FA049404A906480594E0
:1015E000FFF755FC002803D06C2104A000F0D9FAC5
:1015F00006B010BD000C0040540000202E2E2F53CA
:1016000072632F74696D2E63000000000D4810B5E1
:101610000B4901604FF416514160002181600C229A
:10162000C160C0E904128161C161FFF74DFE00286D
:1016300005D0BDE81040522103A000F0B2BA10BDA1
:1016400000380140940100202E2E2F5372632F7515
:10165000736172742E6300000D4810B50B49016070
:101660004FF4E1314160002181600C22C160C0E98A
:1016700004128161C161FFF727FE002805D0BDE893
:101680001040652103A000F08CBA10BD004400405A
:10169000D40100202E2E2F5372632F757361727444
:1016A0002E630000FEE770470907090E002806DADE
:1016B00000F00F0000F1E02080F8141D704700F1E9
:1016C000E02080F8001470477047704710B5FFF7AE
:1016D00077F8BDE81040FFF7D4BB30B58FB00121DB
:1016E0000804CDE900100024029402250491CDE9FC
:1016F00007504FF4E01009906846FFF71FFA00B159
:10170000FEE70F20CDE90A054FF48060CDE90C40DB
:1017100002210AA80E94FFF70BF900B1FEE7FFF7CC
:10172000B1F94FF47A71B0FBF1F0FFF796FB0420AA
:10173000FFF786FB00221146501EFFF7C7F80FB0D7
:1017400030BD00000D48016841F0010101604168B1
:101750000B4A1140416001680A4A1140016001686A
:1017600021F480210160416821F4FE0141604FF4C1
:101770001F0181600449C0030860704700100240E7
:101780000000FFF8FFFFF6FE08ED00E00148FFF75C
:101790005BBC0000140000200148FFF755BC0000AE
:1017A00054000020F0B502681C4B1D4D1D4E1E4F0D
:1017B0001E4C4FF0804C984209D0A04207D06045A3
:1017C00005D0A84203D0B04201D0B84204D122F0E3
:1017D000700E4A6842EA0E02984209D0A04207D031
:1017E000604505D0A84203D0B04201D0B84203D131
:1017F00022F44075CA682A4322F080054A692A43C8
:1018000002608A68C2620A688262984201D0A0427D
:1018100001D10969016301214161F0BD002C014042
:101820000004004000080040000C0040003401406B
:1018300010B5846842EA032224F47F440A43224319
:10184000826010BD826822F070020A4342F00701F4
:101850008160704710B5036A046A24F001040462D1
:10186000846924F0F00444EA021423F00A020A43D3
:101870008461026210BD10B5036A23F01003036295
:101880008369046A23F4704343EA023224F0A0031C
:1018900043EA01118261016210BD10B5406A002166
:1018A000C185C184FFF787FC10BD0168CA6822F4B6
:1018B0009072CA6001684A6922F001024A612021DF
:1018C00080F83A10704710B590F83A10222901D0EC
:1018D000022010BD8168B1F5805F11D00169002937
:1018E00001681FD0496801F07F03816A4A1C826247
:1018F0000B70C18D491E0904090CC18518D02BE05D
:101900000269816A002A0268526805D0D2B20A8050
:10191000816A491C8162ECE7C2F308020A80816A8D
:10192000891CF7E74A68816A4B1C83620A70E0E70A
:101930000168CA6822F02002CA600168CA6822F4FD
:101940008072CA6001684A6922F001024A6120215E
:1019500080F83A10FFF76AFD002010BD2DE9F04134
:10196000044600680169E26821F4405111430161B5
:101970002169A0680843616908432168CA6841F287
:101980000C639A430243CA6020684169A26921F44A
:101990004071114341614C492068642532268842D8
:1019A0003CD1FFF785F800EBC00101EB0010616846
:1019B0008900B0FBF1F7FFF77BF800EBC00101EB0A
:1019C00000106168B0468900B0FBF1F0B0FBF5F0A3
:1019D0006FF01801484307EB800106EB0110B0FBE4
:1019E000F5F000F0F006FFF763F800EBC00101EB43
:1019F000001061688900B0FBF1F0B0FBF5F006EB78
:101A00000016FFF755F800EBC00101EB001061680C
:101A10008900B0FBF1F7FFF74BF83BE0FFF738F830
:101A200000EBC00101EB001061688900B0FBF1F729
:101A3000FFF72EF800EBC00101EB00106168B04623
:101A40008900B0FBF1F0B0FBF5F06FF018014843EE
:101A500007EB800106EB0110B0FBF5F000F0F0069B
:101A6000FFF716F800EBC00101EB00106168890078
:101A7000B0FBF1F0B0FBF5F006EB0016FFF708F84D
:101A800000EBC00101EB001061688900B0FBF1F7C9
:101A9000FEF7FEFF00EBC00101EB0010616889005A
:101AA000B0FBF1F0B0FBF5F06FF01801484307EB25
:101AB000800108EB0110B0FBF5F0216800F00F0089
:101AC00030448860BDE8F0810038014090F839105A
:101AD000212901D0022070478168B1F5805F016A39
:101AE0000BD04A1C0262026809785160C18C491E01
:101AF0000904090CC1840ED017E009880268C1F3FB
:101B00000801516001690029016A02D0491C016283
:101B1000ECE7891CFBE70168CA6822F08002CA6012
:101B20000068C16841F04001C160002070470000BA
:101B3000134810B50068C068800602D511480068D7
:101B4000C2B21148242A01D1002101800F49038823
:101B5000CA545B1C9BB203800C78242C0AD10C79EC
:101B60004D2C07D14979432904D10A2A02D1084AC8
:101B700001211170FF2B02D94FF48071018010BD3B
:101B8000940100200438014010000020940000203F
:101B9000120000200148FFF70FBB0000D401002015
:101BA000FEE7FEE702E008C8121F08C1002AFAD1CA
:101BB00070477047002001E001C1121F002AFBD1CD
:101BC00070470000C0B0FEF703FEFFF786FDFFF789
:101BD0005DFCFFF74DFCFFF719FDFFF73DFDFFF73B
:101BE000DBFCFFF79DFCFFF767FC0C480068C16851
:101BF00041F02001C1600A4E0A4C002530780028CF
:101C0000FCD0228808496846FEF7AEFA3570228873
:101C1000258069460148FFF70AFCEFE794010020A0
:101C2000120000201000002094000020000000009E
:101C3000000000000102030406070809000000007C
:101C400001020304641C00080000002014000000CE
:101C5000A41B0008781C0008140000208C0600005B
:101C6000B41B00080100000010000000000000008C
:081C700000A24A04000000007C
:0400000508000131BD
:00000001FF
