:020000040800F2
:10000000001A0020450100088B1900081718000885
:10001000891900082B020008653300080000000061
:10002000000000000000000000000000F71C0008B5
:100030008D02000800000000F51C0008F91C0008F3
:100040005F0100085F0100085F0100085F01000810
:100050005F0100085F0100085F0100085F01000800
:100060005F0100085F0100085F0100085F010008F0
:100070005F0100085F0100085F0100085F010008E0
:100080005F0100085F0100085F010008F532000809
:10009000013300085F0100085F0100085F010008EC
:1000A0005F0100085F0100085F0100085F010008B0
:1000B0005F0100085F0100085F0100085F010008A0
:1000C0005F0100085F0100085F0100085F01000890
:1000D0005F010008612100086D2100085F01000830
:1000E0005F0100085F0100085F0100085F01000870
:1000F0005F0100085F0100085F0100085F01000860
:100100005F0100085F010008C91D00085F010008C9
:100110005F0100085F0100085F0100085F0100083F
:100120005F0100085F0100085F0100085F0100082F
:10013000DFF80CD000F03CF8004800478733000897
:10014000001A00200648804706480047FEE7FEE701
:10015000FEE7FEE7FEE7FEE7FEE7FEE7FEE7FEE777
:10016000811D00083101000840EA01039B0703D00C
:1001700009E008C9121F08C0042AFAD203E011F8E6
:10018000013B00F8013B521EF9D27047D2B201E0A8
:1001900000F8012B491EFBD270470022F6E710B58C
:1001A00013460A4604461946FFF7F0FF204610BDE5
:1001B000064C074D06E0E06840F0010394E80700B4
:1001C00098471034AC42F6D3FFF7B6FF003400086E
:1001D0002034000870B58C1810F8015B15F0070387
:1001E00001D110F8013B2A1106D110F8012B03E0D0
:1001F00010F8016B01F8016B5B1EF9D12B0705D4D8
:100200000023521E0DD401F8013BFAE710F8013B20
:10021000CB1A921C03E013F8015B01F8015B521E3C
:10022000F9D5A142D8D3002070BDFEE70020704769
:100230000020704710B500220449054802F06CF810
:100240000449034802F062F8002010BD180E002097
:1002500080120020300A002010B50146034802F049
:1002600055F8024802F036F8002010BD8012002038
:1002700010B5D2210348FFF790FF03490020088002
:1002800010BD00002715002054000020704700001A
:1002900010B501F011FBFFF7EBFFBDE810400122A4
:1002A0000149024801F03CBAA414002000120020C9
:1002B0002DE9F05F90F821100024022903D00421D9
:1002C0008163012485E001680A6822F00E020A6059
:1002D00001680A6822F001020A603F4E3E4FB215E3
:1002E000DFF8F4C0DFF8F090DFF8ECA0DFF8E8B05A
:1002F000DFF8E4E00168783F13011502ACF1640C0B
:10030000A9F15009AAF13C0AABF1280BAEF1140E89
:100310004FF48018B14227D9B9420ED0614512D0AE
:1003200049451DD0514518D0594518D0714501D1C6
:10033000424615E0294EB14201D1012210E0274E7C
:100340001436B14201D110220AE0244E2836B142BF
:1003500006D0224A3C32914201D11A4600E02A4698
:100360001E49091F0A602BE0B94213D0614517D01E
:10037000494522D051451DD059451DD0714501D167
:1003800042461AE0B14202D14FF0807215E0134E9E
:10039000B14201D1012210E0104E1436B14201D118
:1003A00010220AE00D4E2836B14206D00B4A3C32EC
:1003B000914201D11A4600E02A46074980394A6035
:1003C000012180F82110002180F82010416B01B13B
:1003D00088472046BDE8F09F8000024008040240A4
:1003E0002DE9F84FDFF8BC91002309F1040A0AF166
:1003F000040B1C464FF00F080BF1040E01270A688E
:10040000A7403A40BA4272D1DFF89CC14D68A5EBD3
:100410000C0665452BD00DDC032D34D005DC35B33F
:10042000012D19D0022D2FD11BE0112D16D0122D28
:100430002AD119E0B6F5881F19D006DCB6F5803F41
:1004400015D0B6F5801F1FD111E0B6F5001F0ED0F4
:10045000B6F5041F18D10AE0CB6815E0CB681B1D68
:1004600012E0CB6808330FE0CB680C330CE08B68EC
:100470002BB1012B4FF0080303D0476104E00423A4
:1004800002E0076100E00023FF2A01D8064601E0F0
:1004900000F104064FEA840501D9A5F1200537686B
:1004A00008FA05FC27EA0C0703FA05F547EA0507F1
:1004B00037604D68ED006ED53C4DAE6946F00106E3
:1004C000AE61AD6924F0030605F001050095384DD5
:1004D0007719BE68A5072D0F08FA05FC26EA0C0659
:1004E000DFF8D0C0604503D14FF0000C25E052E0AA
:1004F000DFF8C4C0604502D14FF0010C1DE0DFF809
:10050000BCC0604502D14FF0020C16E0DFF8B0C06D
:10051000604502D14FF0030C0FE0DFF8A8C0604542
:1005200002D14FF0040C08E0DFF89CC0604502D116
:100530004FF0050C01E04FF0060C0CFA05FC4CEAFC
:10054000060CC7F808C04D68D9F80060ED034D46A9
:1005500001D5164300E096432E604D68DAF800603E
:10056000AD03554601D5164300E096432E604D6815
:10057000DBF80060ED025D4601D5164300E09643CE
:100580002E604D68DEF80060AD02754601D5164359
:1005900000E096432E60641C102CFFF42FAFBDE8E2
:1005A000F88F00000004014000001110001002400C
:1005B0000000014000080140000C01400010014013
:1005C0000014014000180140001C014001488068EF
:1005D000704700000400002002488168027811443E
:1005E0008160704704000020074810B5016841F0A1
:1005F00010010160032000F095F8002000F006F8DB
:1006000000F024F8002010BD0020024070B50D4D10
:1006100004464FF47A712878B1FBF0F00A49096872
:10062000B1FBF0F000F0DDFD48B9102C07D200223C
:100630002146501E00F056F800206C6070BD01206D
:1006400070BD000004000020000000201D4808B517
:10065000816941F001018161806900F00100009031
:10066000032000F05FF8002211466FF00B0000F04D
:1006700039F8002211466FF00A0000F033F800222A
:1006800011466FF0090000F02DF800221146501FAE
:1006900000F028F800221146101F00F023F8002275
:1006A0001146901E00F01EF800221146501E00F068
:1006B00019F80549486820F0E06040F00070486093
:1006C00008BD0000001002400000014000F01F02C1
:1006D000012191404009800000F1E020C0F80011A4
:1006E00070470000F0B40E4B1B68C3F30223C3F144
:1006F0000704042C00D904241D1D072D01D200235A
:1007000000E0DB1E012606FA04F56D1E0D409D403B
:100710009E40761E164045EA0601F0BC01F036B94F
:100720000CED00E0064A00F0070110684FF6FF03E9
:10073000184040EA01200349084310607047000058
:100740000CED00E00000FA0510B50C0605D501F02F
:100750007F0100EB4110283003E000EB411000F571
:100760000A7099B232B101228272C180190C0181E2
:10077000002010BD002282728180F9E7704700EBF3
:100780004112D0F85C04D26B01F08CBF00EB411237
:10079000D0F85C04D2F83C2201F0D9BF10B5044671
:1007A0000A460B0601F07F0004EB401101D5283109
:1007B00001E001F50A710870D009487094F8280426
:1007C000012809D0012084F82804206802F0B9FB30
:1007D000002084F8280410BD022010BD70B50A4620
:1007E0000446090602F07F0003D504EB40112831CE
:1007F00003E004EB421101F50A7100258D700870C9
:10080000D009487094F82804012809D0012084F800
:100810002804206802F039FC84F82854002070BDB8
:10082000022070BD01F00F0100EB4110B0F844024E
:1008300080B2704770B504460D460E0601F07F0089
:1008400004EB401101D5283101E001F50A7108706F
:10085000E80948700A61CB7094F82804012809D08F
:10086000012084F82804206802F040FA002084F86F
:10087000280470BD022070BD70B50D4601F07F04E4
:1008800000EB4411C1E98F230022C1F8442281F812
:10089000292281F8284201F50A716A06006802F0EF
:1008A0004EFC002070BD70B50D460446090605F0EB
:1008B0007F0003D504EB4011283103E004EB451120
:1008C00001F50A7101228A700870E809487094F8ED
:1008D0002804012807D084F82824206802F00AFCA4
:1008E000680602D006E0022070BD04F22C412068A8
:1008F00002F0C9FB002084F8280470BD70B50D46D5
:1009000001F07F0400EB4411C1E90F2300224A6487
:10091000012281F8292001F8284F6A06006802F0B8
:100920000EFC002070BD10B50446006802F0EEFC1D
:10093000000402D5204601F039F8206802F0E6FCF8
:1009400040050CD5206830F8441F21F480610180F7
:10095000204600F0EBF80021204600F0FCF820686B
:1009600002F0D4FC400405D5206830F8441F21F47F
:1009700080410180206802F0C9FC800405D5206810
:1009800030F8441F21F400510180206802F0BEFCC1
:10099000C00414D5206830F8401F21F00401018004
:1009A000206830F8401F21F008010180204600F047
:1009B000CAF8206830F8441F21F480510180206873
:1009C00002F0A4FC00051AD5206830F8401F41F061
:1009D00008010180206830F8441F21F40061018083
:1009E000206830F8401F41F004010180206802F0C7
:1009F0008DFCC043C00402D5204600F0E1F8206819
:100A000002F084FC800508D5206830F8441F21F4EA
:100A100000710180204600F09AF8206802F076FC10
:100A2000C00505D5206830F8441F21F4807101808D
:100A300010BD2DE9F04186B004004FF0000504D050
:100A400094F82904002620B108E0012006B0BDE892
:100A5000F08184F82864204600F04AF8032084F8E6
:100A60002904206802F008FB04F1100114228846D2
:100A70006846FFF779FB94E80F0002F060FA002166
:100A8000206802F054FC012704EB451080F829701F
:100A900000F8285F8581C670066146616D1C86611D
:100AA0000F2DF1D3002104EB411080F8296280F86A
:100AB0002812818680F82B62C0F83862C0F83C6248
:100AC000491CC0F840620F29EDD314224146684604
:100AD000FFF74AFB94E80F0002F0BFFA84F82460A5
:100AE00084F82974206802F0B6FA0020AEE700000E
:100AF00008B500680B49884212D10B48C16941F41E
:100B00000001C161C069002200F40000009011469C
:100B10001320FFF7E7FDBDE808401320FFF7D6BD1F
:100B200008BD0000005C00400010024010B5044603
:100B30000121D0F85C0401F0F3FED4F85C04BDE8B8
:100B4000104001F0BCBED0F85C0401F0D7BED0F874
:100B50005C0401F0D9BE10B5044690F828040128C1
:100B60000BD0012084F8280484F82410206802F0B7
:100B7000E0FB002084F8280410BD022010BDD0F84E
:100B80005C2400F22C41104601F0DDBE10B5044695
:100B900090F82804012810D0012084F82804014688
:100BA0002046FFF7EBFD206802F053FA206802F0C0
:100BB00099FB002084F8280410BD022010BD00001D
:100BC00010B50446D0F85C0401F00AFFA0690028C3
:100BD00004D00348016841F00601016010BD000027
:100BE00010ED00E02DE9F84304460078344FC007CB
:100BF00052D0F8690025C00008D4F86940F0805050
:100C0000F861F869012500F0805000902D480168D6
:100C1000C90511D40168804641F480710160FFF775
:100C2000D5FC064604E0FFF7D1FC801B642822D8DF
:100C3000D8F80000C005F6D5386A10F4407020D00E
:100C4000A18801F4407181421BD0386A1E490122FB
:100C500020F440700A6000220A603862C00710D099
:100C6000FFF7B4FC064641F2883807E0FFF7AEFC18
:100C7000811B414502D90320BDE8F883386A80070B
:100C8000F4D5386A616820F44070084338621DB1B9
:100C9000F86920F08050F8612078800705D57868E1
:100CA000A16820F44040084378602078C00605D54C
:100CB0007868616920F48000084378600020DBE7F1
:100CC0000010024000700040400442422DE9F0470D
:100CD000DFF8348104460E46D8F8000000F0070023
:100CE000B0420CD2D8F8001021F007013143C8F807
:100CF0000010D8F8000000F00700B04260D1207862
:100D0000424F800705D57868A16820F0F0000843BD
:100D100078602078C00742D06068012816D0396812
:100D2000022816D0890700294ADA796821F00301E0
:100D300001437960FFF74AFC0546606841F288315B
:100D400001280ED00228894617D024E0396889038B
:100D5000E9E78901E7E7FFF739FC411B494501D97C
:100D600016E089467868C0F381000128F3D116E0C7
:100D7000FFF72CFC411B49450AD87868C0F3810075
:100D80000228F5D10BE0FFF721FC411B494502D9B0
:100D90000320BDE8F087786810F00C0FF3D1D8F885
:100DA0000010404601F00701B1420BD9016821F063
:100DB000070131430160006800F00700B04201D034
:100DC0000120E6E72078400705D57868E16820F43F
:100DD000E060084378602078000706D578682169CC
:100DE00020F4605040EAC100786000F03BF8796878
:100DF000074AC1F30311515CC8400649086000204E
:100E0000FFF704FC0020C4E700200240001002406D
:100E1000E833000800000020014800687047000027
:100E2000000000200448054900684968044AC1F3ED
:100E30000221515CC84070470000002000100240B1
:100E4000F83300080448054900684968044AC1F3BA
:100E5000C221515CC84070470000002000100240D1
:100E6000F833000812A085B00FC88DE80F0014A059
:100E7000144B006804905968134801F00C02042ACE
:100E800010D0082A0ED1C1F38342C9031DF8020015
:100E90000AD5596804AAC1F34041515C0A4A50433B
:100EA000B0FBF1F005B0704708494843FAE700008D
:100EB00002030405060708090A0B0C0D0E0F10109B
:100EC000010200000010024000127A0000093D00FB
:100ED0002DE9F84F04460078B64DC00747D0686842
:100EE000C0F38100012807D06868C0F381000228A0
:100EF00009D16868C00306D52868800337D56068C3
:100F000000286ED033E06068B0F5803F0BD010B1A0
:100F1000B0F5A02F11D0286820F480302860286810
:100F200020F4802002E0286840F480302860606867
:100F300088B1FFF74BFB064609E0286840F48020A3
:100F40002860F0E7FFF742FB801B642873D828680D
:100F50008003F7D50BE0FFF739FB064604E0FFF707
:100F600035FB801B6428F1D828688003F7D42078EB
:100F7000DFF8448280074FF0010A4FF0000939D5AD
:100F8000686810F00C0F07D06868C0F38100022871
:100F900009D16868C00306D42868800713D5206982
:100FA00001281ED10FE02069A8B1C8F800A0FFF702
:100FB0000DFB064604E0FFF709FB801B0228C5D89D
:100FC00028688007F7D52868616920F0F80040EAB2
:100FD000C10028600EE0C8F80090FFF7F7FA064657
:100FE00005E0E5E0FFF7F2FA801B022823D8286825
:100FF0008007F7D4207800072CD57049A069D8B1B4
:10100000C1F800A0FFF7E2FA064604E0FFF7DEFAB7
:10101000801B02280FD8686A8007F7D568484FF40C
:10102000FA510068B0FBF1F0009000BF0098411E3B
:101030000091FAD20EE07CE0C1F80090FFF7C6FA0A
:10104000064604E0FFF7C2FA801B022871D8686ADE
:101050008007F7D4207840075BD5E8690027C000F7
:1010600008D4E86940F08050E861E869012700F0A1
:101070008050009053480168C90511D40168834627
:1010800041F480710160FFF7A1FA064604E0FFF722
:101090009DFA801B64284CD8DBF80000C005F6D50B
:1010A000E06801280AD008B1052813D0286A20F08A
:1010B00001002862286A20F0040002E0286A40F05B
:1010C00001002862E06841F2883B88B1FFF77EFAB0
:1010D000064609E0286A40F004002862EEE7FFF7C0
:1010E00075FA811B59455BD8286A8007F7D50BE054
:1010F000FFF76CFA064604E0FFF768FA811B5945D2
:101100004ED8286A8007F7D41FB1E86920F08050D4
:10111000E861E069A8B36968C1F38101022947D099
:101120000228484606D0C8F86000FFF74FFA044688
:1011300039E035E04746C8F86000FFF747FA064651
:1011400004E0FFF743FA801B022829D828688001B1
:10115000F7D4206AB0F5803F05D16868A16820F413
:10116000003008436860D4E908010843696821F445
:10117000741108436860C7F860A0FFF727FA0446B7
:1011800005E013E0FFF722FA001B022808D82868C0
:101190008001F7D50AE0FFF719FA001B022802D9EF
:1011A0000320BDE8F88F28688001F4D40020F8E718
:1011B0000120F6E700100240000042428004424253
:1011C00000000020007000404FF0E0210428086972
:1011D00003D020F004000861704740F00400FAE7F3
:1011E000704710B5401EB0F1807F01D3012010BDC3
:1011F0004FF0E02460610F21601700F0C7FB002072
:10120000A06107202061002010BD10B5FFF7E8FFA6
:1012100010BD7047704730B590F83C20012A20D0AF
:10122000012380F83C30022280F83D200268546897
:1012300024F070045460026854680D682C435460B4
:101240000268946824F08004946002689468496895
:101250000C43946080F83D30002180F83C10084633
:1012600030BD022030BD10B5040003D094F83D001D
:1012700010B107E0012010BD002084F83C0020469A
:1012800000F00CF8022084F83D00211D206800F0D9
:10129000A1FD012084F83D00002010BD08B50068C4
:1012A0000649884208D10648C16941F00801C16178
:1012B000C06900F00800009008BD0000000C00406C
:1012C0000010024070B5044690F83C00012817D089
:1012D000012584F83C50022084F83D002068826893
:1012E00022F0770222F47F4282600868502836D0CC
:1012F0000DDC202858D005DC80B3102840D150E008
:10130000022070BD302852D0402839D13EE06028FC
:101310002DD070280BD0B0F5805F03D0B0F5005F02
:101320002ED110E02068816821F0070109E0CB6828
:10133000D1E90121206800F093FD2068816841F027
:10134000770181601CE0CB68D1E90121206800F0C1
:1013500087FD2068816841F48041F2E71EE0CA6899
:101360004968206800F08EFD5021206806E0CA68B8
:101370004968206800F097FD6021206800F07AFD40
:1013800084F83D50002084F83C0070BDCA6849686C
:10139000206800F077FD40212068EFE700212068F9
:1013A000ECE710212068E9E720212068E6E73021FA
:1013B0002068E3E7704770B50446006801694FF0A4
:1013C0000005C943890715D4C168C943890711D4E9
:1013D000E91E01610120207720688069800720468E
:1013E00002D0FFF7E7FF04E000F098F8204600F095
:1013F00096F8257720680169C943490717D4C16861
:10140000C943490713D46FF004010161022020771A
:101410002068806910F4407F204602D0FFF7CAFFA1
:1014200004E000F07BF8204600F079F8257720688A
:101430000169C943090716D4C168C943090712D411
:101440006FF008010161042020772068C0698007DF
:10145000204602D0FFF7AEFF04E000F05FF8204620
:1014600000F05DF8257720680169C943C90617D4E3
:10147000C168C943C90613D46FF010010161082087
:1014800020772068C06910F4407F204602D0FFF723
:1014900091FF04E000F042F8204600F040F8257784
:1014A00020680169C943C90708D1C168C943C90790
:1014B00004D1891E0161204600F032F820680169DC
:1014C000C943090609D4C168C943090605D46FF0A8
:1014D000800101612046FFF79CFE20680169C94335
:1014E000490609D4C168C943490605D46FF04001D3
:1014F0000161204600F015F820680169C94389069A
:101500000BD4C168C943890607D46FF0200101617B
:101510002046BDE87040FFF77DBE70BD7047704744
:10152000704770477047000070B502680446106845
:10153000D168536910F00F0F50D003F0010501F48A
:10154000907635435DD0C20705D0CA0503D5E26B5E
:1015500042F00102E263420705D5DA0703D0E26BED
:1015600042F00202E263820705D5DA0703D0E26B9C
:1015700042F00402E263020705D5DA0703D0E26B0A
:1015800042F00802E263E26B002A33D0800604D501
:10159000880602D5204600F0AEFC20684069E16B69
:1015A000C0F38010090700D428B3204600F095FC52
:1015B0002068416949061AD5416921F0400141611D
:1015C000606BA0B11B494163606BFEF771FE0028A0
:1015D00010D0606B416BBDE870400847830610D5A2
:1015E0008B060ED52046BDE8704000F084BC204636
:1015F000FFF798FF70BD2046FFF794FF0020E063DF
:1016000070BD030606D50B0604D52046BDE8704024
:1016100000F074BD4006F3D54806F1D5D1682046E8
:1016200021F04001D160202184F8391000F0F2F857
:1016300070BD0000CB1E000870B5040004D094F803
:101640003900002510B106E0012070BD84F8385043
:10165000204600F023F8242084F839002068C1686F
:1016600021F40051C160204600F090FC206801691F
:1016700021F4904101612068416921F02A01416112
:101680002068C16841F40051C160E563202084F8FE
:10169000390084F83A00002070BD000070B51C4E7F
:1016A000016800241B4A022003231B4D86B0B1426F
:1016B00011D1916941F4804191619169039301F4E1
:1016C000804104910102CDE9001069462846FEF7E9
:1016D00087FE281513E0114EB14217D1D16941F4AC
:1016E0000031D161D169039301F4003104910421E7
:1016F000CDE9001069462846FEF772FE0820CDE9C4
:101700000004694628460294FEF76AFE06B070BDE2
:101710000038014000100240000801400044004031
:1017200090F83A30202B22D1F9B1F2B190F838304C
:10173000012B1CD081628285C2850021C1632222D7
:1017400080F83A2080F838100168CA6842F4807244
:10175000CA6001684A6942F001024A610068C168D2
:1017600041F02001C1600020704701207047022035
:10177000704700002DE9F0410168224881423FD1C5
:1017800001684906FCD520481E49091D00780860FB
:1017900000271E4C242800D127801B4D218883352B
:1017A0006854491C8EB22680297824291CD12979B5
:1017B0004D2919D16979432916D10A2814D150210C
:1017C000A5F17900FEF7E9FC29463246A1F179003E
:1017D000FEF7CAFCA5F17901012081F850002780AD
:1017E000D2212846FEF7D9FC2088D22801D3D22066
:1017F0002080012204490648FFF792FF0028F8D113
:10180000BDE8F08100380140A414002054000020FD
:10181000001200207047FEE7094808B5816941F0D1
:1018200020018161816901F020010091816941F00D
:1018300004018161806900F00400009008BD00008F
:101840000010024010B5174886B0154901604721C5
:101850000024C0E901140421C0E903148461FFF7E6
:1018600002FD18B1492110A001F07DFD4FF4805018
:10187000009069460B48FFF725FD18B14F210AA0DB
:1018800001F071FD049404A906480594FFF7C3FC18
:10189000002803D0562104A001F065FD06B010BD5C
:1018A000000C0040F00700202E2E2F5372632F747F
:1018B000696D2E63000000000D4810B50B490160F2
:1018C0004FF416514160002181600C22C160C0E9D3
:1018D00004128161C161FFF7AFFE002805D0BDE8A9
:1018E00010404D2103A001F03EBD10BD0038014065
:1018F000001200202E2E2F5372632F7573617274A5
:101900002E6300000D4810B50B4901604FF4E13122
:101910004160002181600C22C160C0E90412816134
:10192000C161FFF789FE002805D0BDE810406021A5
:1019300003A001F018BD10BD00440040401200207B
:101940002E2E2F5372632F75736172742E630000F5
:1019500010B500220849094800F06FFE0849074801
:1019600001F06BF80749054800F0C8FCBDE81040DD
:10197000024801F0AFB800001000002080120020E3
:101980003401002044000020FEE770470907090EDB
:10199000002806DA00F00F0000F1E02080F8141DA6
:1019A000704700F1E02080F8001470472DE9FC5FDB
:1019B00004460020ADF80000ADF8040040F68F7B2F
:1019C0004FF006094FF0020A4FF4806884E1BDF839
:1019D000001011F00F0628D030F82610ADF80410D2
:1019E000BDF80410090475D530F8261001EA0B0182
:1019F00020F8261004EB461595F8320205F50A7515
:101A00000028206867D0297830F82120B0F85030BD
:101A100052047CD50AEBC1015A1808EB4201415A25
:101A20008F05BF0D74D0EA88C7E0BDF80010C90665
:101A30002CD4018848F60F7211400180206804F10F
:101A40002805B0F850202B780AEBC3010A4408EBB4
:101A50004201405AC0F309006064E16B0844E0634E
:101A600000212046FEF78BFE94F824000028ADD01C
:101A7000A8690028AAD194F82400216840F08000C9
:101A8000A1F84C00002084F8240025E1018804F529
:101A90000A75ADF80410BDF8041009051CD5B0F89E
:101AA00050202B7809EBC3010A4408EB4201405A4D
:101AB00004F22C41C0F30903EB61AA88206801F00D
:101AC00028FC2068018801EA0B0101802046FFF70D
:101AD00056F801E195E054E0BDF804100904D4D5AE
:101AE000018801EA0B0101802068B0F850202B78B2
:101AF000464609EBC301114408EB4101405A8305F6
:101B00009B0DEB610BD0AA886969206801E04AE06F
:101B100057E001F0FEFBE96968690844686100214B
:101B20002046FEF733FE2068B0F85010891D06EB02
:101B30004101421828693E280CD9C0F34F11C00654
:101B400001D1491E89B24FF6FF7000EA812040F4AE
:101B5000004009E0C0F34F01C00701D0491C89B221
:101B60004FF6FF7000EA81201060206801884BF674
:101B70008F72114081F4405148F28002114301807C
:101B8000AAE0B0F850202B7809EBC3010A4408EB17
:101B90004201415A8F05BF0D1FD0AA883B46696993
:101BA00001F0B7FB19E009EBC1015A1808EB42013B
:101BB000415A8F05BF0D04D02A893B46696901F05F
:101BC000A8FB2978206830F8212048F68F731A4046
:101BD00048F2C0031A4320F82120E8693844E8613C
:101BE0006869C2196A61AB6913B12869B84204D93E
:101BF00029782046FEF7CAFD03E029782046FEF743
:101C00003BFEBDF80400000666D5206804EB4615CF
:101C100030F8261048F60F72114020F8261095F87B
:101C2000320028350028206812D0297830F8212089
:101C3000B0F8503052061ED50AEBC1015A1808EB15
:101C40004201405A83059B0DEB6123D0EA881DE0D9
:101C5000B0F850202B780AEBC3010A4408EB42018C
:101C6000405A83059B0DEB6120D0AA8869692068E2
:101C700001F065FB1AE009EBC1015A1808EB4201BB
:101C8000405A83059B0DEB6104D02A89696920685D
:101C900001F055FB2978206830F8212048F68F7331
:101CA0001A404CF280031A4320F821202068B0F833
:101CB00050202B780AEBC3010A4408EB4201405A3A
:101CC000C0F30900E86169690A186A612978AB699B
:101CD000204663B1FEF712FE2068B0F84410ADF85C
:101CE000001009043FF573AE0020BDE8FC9FFEF72D
:101CF00046FDF1E77047704710B5FEF76DFCBDE893
:101D00001040FFF782BA30B595B001210804CDE943
:101D100000100024029402250491CDE907504FF4ED
:101D2000E01009906846FFF7D3F800B1FEE70F20F6
:101D3000CDE90A054FF48060CDE90C4002210AA8E4
:101D40000E94FEF7C3FF00B1FEE7102014940F902D
:101D50000FA8FEF747FF00B1FEE7FFF75DF84FF46D
:101D60007A71B0FBF1F0FFF73CFA0420FFF72CFA90
:101D700000221146501EFEF7B5FC15B030BD000024
:101D80000D48016841F00101016041680B4A1140B2
:101D9000416001680A4A11400160016821F4802114
:101DA0000160416821F4FE0141604FF41F01816030
:101DB0000449C00308607047001002400000FFF8AB
:101DC000FFFFF6FE08ED00E00148FFF7F4BA00005F
:101DD000F0070020F0B502681C4D1D4E1D4FDFF8C6
:101DE00078C01E4B4FF0804EA84209D0984207D0D1
:101DF000704505D0B04203D0B84201D0604503D150
:101E000022F070044A682243A84209D0984207D0C1
:101E1000704505D0B04203D0B84201D0604503D12F
:101E200022F44074CA6822434C6922F080021443B1
:101E300004608A68C2620A688262A84201D098423D
:101E400001D10969016301214161F0BD002C01400C
:101E50000004004000080040000C00400034014035
:101E600010B5846842EA032224F47F440A432243E3
:101E7000826010BD826822F070020A4342F00701BE
:101E80008160704710B5046A036A23F0010303629E
:101E9000836923F0F00343EA021324F00A020A43A1
:101EA0008361026210BD10B5036A23F01003036260
:101EB0008469036A24F4704444EA023223F0A003E4
:101EC00043EA01118261016210BD10B5406A002130
:101ED000C185C184FFF726FB10BD0168CA6822F4E2
:101EE0009072CA6001684A6922F001024A612021A9
:101EF00080F83A10704710B590F83A10222901D0B6
:101F0000022010BD8168B1F5805F11D00169002900
:101F100001681FD0496801F07F03816A4A1C826210
:101F20000B70C18D491E0904090CC18518D02BE026
:101F30000269816A002A0268526805D0D2B20A801A
:101F4000816A491C8162ECE7C2F308020A80816A57
:101F5000891CF7E74A68816A4B1C83620A70E0E7D4
:101F60000168CA6822F02002CA600168CA6822F4C7
:101F70008072CA6001684A6922F001024A61202128
:101F800080F83A10FFF7F6FB002010BD2DE9F04174
:101F9000044600680169E26821F44051114301617F
:101FA000A16820690143606901432068C26841F269
:101FB0000C639A430A43C26020684169A26921F414
:101FC0004071114341614C492068642632278842A0
:101FD0003CD1FEF737FF00EBC00101EB0010616858
:101FE0008900B0FBF1F5FEF72DFF00EBC00101EB1E
:101FF00000106168B8468900B0FBF1F0B0FBF6F064
:102000006FF01801484305EB800107EB0110B0FBAE
:10201000F6F000F0F005FEF715FF00EBC00101EB54
:10202000001061688900B0FBF1F0B0FBF6F005EB41
:102030000015FEF707FF00EBC00101EB001061681F
:102040008900B0FBF1F7FEF7FDFE3BE0FEF7EAFE8C
:1020500000EBC00101EB001061688900B0FBF1F5F5
:10206000FEF7E0FE00EBC00101EB00106168B8462E
:102070008900B0FBF1F0B0FBF6F06FF018014843B7
:1020800005EB800107EB0110B0FBF6F000F0F00566
:10209000FEF7C8FE00EBC00101EB0010616889008B
:1020A000B0FBF1F0B0FBF6F005EB0015FEF7BAFE61
:1020B00000EBC00101EB001061688900B0FBF1F793
:1020C000FEF7B0FE00EBC00101EB00106168890073
:1020D000B0FBF1F0B0FBF6F06FF01801484307EBEE
:1020E000800108EB0110B0FBF6F0216800F00F0052
:1020F00028448860BDE8F0810038014090F839102C
:10210000212901D0022070478168B1F5805F016A02
:102110000BD04A1C0262026809785160C18C491ECA
:102120000904090CC1840ED017E009880268C1F3C4
:102130000801516001690029016A02D0491C01624D
:10214000ECE7891CFBE70168CA6822F08002CA60DC
:102150000068C16841F04001C16000207047000084
:102160000148FFF7E1B90000001200200148FFF725
:10217000DBB9000040120020D0F8180220B1002185
:10218000C0F81412084670470220704770B5054623
:10219000D0F8184200F010FBC4F80C02D5F8180271
:1021A00048B1D5F81C12D4F80402CA6804F50371CA
:1021B0009047002070BD022070BD70B50446002518
:1021C000812100F05FFA0121204600F05BFA8221B4
:1021D000204600F057FAD4F8180250B1D4F81C0287
:1021E00004F5067440688047206800F079FD0020FF
:1021F0002060284670BD10B5D0E9864159B194F8E9
:102200000002FF2807D08B6894F8012221469847E6
:10221000FF2084F80002002010BD00000A21018088
:10222000004870475C00002043210180004870474F
:10223000AC00002043210180004870476800002066
:102240004321018000487047F00000202DE9F04153
:102250000546007C00264FF4007770B3402302222D
:102260008121284600F008FB402302220121284654
:1022700000F002FB082303228221284600F0FCFA2A
:102280004FF4077000F02EFDC5F81802F0B10446B7
:10229000D5F81C02006880470021C4F81412C4F865
:1022A0001812287CD4F8042290B14023012128463A
:1022B00000F0F5FA3046BDE8F081FFE73B46022228
:1022C0008121284600F0D8FA3B46CEE70126F1E707
:1022D0003B46EBE710B5D0F8181269B1027C002A32
:1022E000D1F8042205D04023012100F0D8FA0020C3
:1022F00010BD4FF40073F7E7022010BD0246022024
:10230000002902D00020C2F81C127047D0F8180231
:10231000C0F8041200207047D0F81802C0F810224C
:10232000C0F808120020704770B50646D0F8185261
:1023300008780C4610F0600121D0202927D1E288CE
:10234000AAB10006607807D5D6F81C128B6829461A
:102350009847E288294617E085F80002A07985F8B9
:102360000102E2882946304600F038F80FE0D6F83E
:102370001C12607800228B682146984707E060783D
:102380000A2804D103490122304600F041F8002018
:1023900070BD00005800002010B5D0F8142252681B
:1023A0009047002010BD134610B50A46002100F0EA
:1023B00076FA002010BD134610B50A46002100F041
:1023C00018FB002010BD10B50446802100F0E8FA8B
:1023D0002046BDE81040002100F0E2BA10B503230A
:1023E000C0F80821C0F8F431C0F80C2113460A46A1
:1023F000002100F054FA002010BD10B50521002383
:10240000C0F8F4111A46194600F049FA002010BD30
:1024100010B502238261C0F8F431C26113460A4646
:10242000002100F0E6FA002010BD10B504210023C1
:10243000C0F8F4111A46194600F0DBFA002010BD6E
:1024400010B50A46024903A000F0D4F8004810BDB8
:102450003008002043444320436F6E6669670000E4
:1024600012200880004870473000002010B50A464E
:10247000024903A000F0BEF8004810BD300800205B
:1024800043444320496E74657266616365000000D1
:1024900004200880004870472C00002010B50A4630
:1024A000024903A000F0A6F8004810BD3008002043
:1024B00053544D6963726F656C656374726F6E69B6
:1024C0006373000010B50A46024903A000F092F8B9
:1024D000004810BD3008002053544D333220566957
:1024E000727475616C20436F6D506F7274000000E0
:1024F00010B50A46024903A000F07CF8004810BD60
:102500003008002030303030303030303030314121
:1025100000000000F8B5044648880D46010A082965
:102520004BD2DFE801F04A0409174A4A4048D4F880
:102530001012207C0A6832E0207C02260028D4F8A1
:10254000140205D0C16A684688470146467041E0DA
:10255000816AF8E7C0B206282FD2DFE800F003084E
:102560000D12171CD4F81012207C4A6817E0D4F81A
:102570001012207C8A6812E0D4F81012207CCA68FD
:102580000DE0D4F81012207C0A6908E0D4F810128B
:10259000207C4A6903E0D4F81012207C8A696946DD
:1025A0009047014616E0207C38B9D4F81402416BFC
:1025B00068468847F5E7207C20B129462046FFF78A
:1025C00002FFF8BDD4F81402016B68468847014643
:1025D00007204870BDF800000028F2D0EA88002AE1
:1025E000EFD0824200D90246ADF800202046FFF726
:1025F0000FFFF8BD70B5002300281DD0044600254C
:1026000002E06D1CEDB2641C2678002EF9D1022484
:1026100004EB45041480CC545B1C0322CA540024F0
:102620005B1C06E0CA545B1CDAB28C54521CD3B259
:10263000401C0278002AF5D170BD10B580B1D0F8E9
:10264000143213B10023C0F8143209B1C0F81012CB
:10265000012180F8FC11027000F0B2F8002010BDDA
:10266000022010BD10B50024D0F82002FEF7B6F805
:1026700030B1012801D0022801D0022400E0012459
:10268000204610BD10B50024D0F82002FEF786F8D1
:1026900030B1012801D0022801D0022400E0012439
:1026A000204610BD2DE9F0411746044641B1D4F84B
:1026B000140242698AB394F8FC01032842D043E033
:1026C000D4F8F411002504F11400022933D1D0E923
:1026D00002639E4207D9F31A83609AB239462046B4
:1026E000FFF769FE12E04068B0FBF3F103FB110154
:1026F000A1B9984212D3D4F8F81188420ED2002220
:1027000011462046FFF757FEC4F8F85100231A4639
:102710001946204600F0C3F80DE012E0D4F8140288
:10272000C16829B194F8FC01032801D120468847EB
:102730002046FFF762FE94F80002012804D184F8D5
:10274000005201E0204690470020BDE8F08170B5BE
:102750001546044641B1D4F8140282693AB394F89C
:10276000FC01032824D025E0D4F8F41104F582708C
:1027700003291FD1D0E902318B420BD95B1A836048
:102780000846834200D303469AB229462046FFF703
:102790000AFE0FE0D4F81402016929B194F8FC0193
:1027A000032801D1204688472046FFF73EFE01E07E
:1027B00020469047002070BDD0F82002FEF732B8C6
:1027C00010B504461E481F49C0F85C44C4F82002F6
:1027D000016008214160022181600321C160002164
:1027E0008161C1610162FEF724F920B14FF4987153
:1027F00015A000F0B8FD0022D4F8200218231146DD
:1028000004F50874FDF7A0FF5823002280212068FA
:10281000FDF79AFFC023002281212068FDF794FF75
:102820004FF48873002201212068FDF78DFF4FF4DB
:102830008073002282212068FDF786FF002010BDF2
:1028400090030020005C00402E2E2F5372632F75E2
:102850007362645F636F6E662E6300000A06D0F8D1
:10286000200201F07F0100EB411002D590F82A0010
:10287000704790F82A02704770B51D461346002431
:10288000D0F820022A46FDF7D5FF30B1012801D04B
:10289000022801D0022400E00124204670BD10B5BA
:1028A0000024D0F82002FDF7E7FF30B1012801D065
:1028B000022801D0022400E00124204610BD70B59A
:1028C0000022044640231146FFF7D6FF40252B4641
:1028D000002280212046C4F81051FFF7CDFF0120CF
:1028E000256284F8FC01D4F8180228B1D4F8140247
:1028F0002179426820469047002070BD90F8FD1174
:1029000080F8FC110020704710B590F8FC110329E5
:1029100004D1D0F81412C96901B18847002010BD54
:1029200001740020704710B50024D0F82002FEF793
:1029300012F930B1012801D0022801D0022400E0B0
:102940000124204610BD70B5044600F5027005460E
:1029500000F05FF80120C4F8F401B4F80E02C4F8E6
:10296000F80194F8082212F01F000AD001280DD0B7
:10297000022810D002F08001204600F011F800205B
:1029800070BD2946204600F0AAF8F8E729462046FF
:1029900000F08CF9F3E72946204600F019F9EEE73C
:1029A00010B50024D0F82002FDF77DFF30B10128DA
:1029B00001D0022801D0022400E00124204610BDED
:1029C00010B50024D0F82002FEF7E0F830B101285D
:1029D00001D0022801D0022400E00124204610BDCD
:1029E00090F8FC1180F8FD11042180F8FC11002002
:1029F000704710B50024D0F82002FDF77FFF30B1FA
:102A0000012801D0022801D0022400E00124204640
:102A100010BD0A7802704A7842708A78CB7802EB4F
:102A2000032242800A794B7902EB032282808A7961
:102A3000C97902EB0121C18070470246002011B123
:102A4000C2F8141270470220704710B5D0F8142253
:102A500002241AB11268904700B90024204610BD24
:102A600070B50D461A4E897804463170012928D870
:102A700094F8FC01022802D0032822D105E099B184
:102A80000320616084F8FC0109E091B1606888422C
:102A90000AD0C1B22046FFF77FFC31786160204642
:102AA000FFF7D3FF02280CD02046BDE87040FFF7A7
:102AB000BCBC022084F8FC0120466160FFF76CFC7E
:102AC000F2E729462046BDE87040FFF77CBC0000D5
:102AD0006C01002010B5FFF773FF002010BD2DE939
:102AE000F04100274A7801263B460A2A43D2DFE814
:102AF00002F03C584251420805422A27FFF70AFDDE
:102B000063E004468888C8B9C888B8B9887800F0F6
:102B10007F0594F8FC01032810D084F8FE51294663
:102B20002046FFF700FF2046FFF77FFC1DB1022083
:102B300084F8FC0149E084F8FC6146E020461AE094
:102B4000FFF78EFF41E0CA88012A14D190F8FC21DA
:102B5000022A02D0032A0ED104E0012200F108016A
:102B6000836014E00122011D11E090F8FC21022A8B
:102B700004D0032A02D0FFF726FC26E0C660D0F876
:102B8000041209B10321C160022200F10C01FFF718
:102B90003FFC1AE004464888012816D1C4F80462B4
:102BA0000BE0044690F8FC01022801D00328C5D1AF
:102BB0004888012809D1C4F80432D4F81402826884
:102BC000204690472046FFF730FC3846BDE8F081AC
:102BD00070B50D460446287800260979C0F34110E7
:102BE000012806D06878A0B301281FD003283FD160
:102BF00007E0D4F814022946826820469047002056
:102C000070BD94F8FC01022817D003282CD16888E5
:102C100028B921B1802902D02046FFF7C1FED4F89F
:102C20001402294682682046904713E094F8FC017C
:102C3000022802D0032817D103E0C9B180291BD193
:102C400016E06888A0B9480604D02046FFF70AFDC0
:102C5000E5E703E02046FFF7E8FB09E094F8FC0114
:102C6000022807D003280BD029462046FFF7ABFBEC
:102C7000304670BD4806FBD02046FFF791FEF7E7CF
:102C8000080601F07F0004EB001501D5143501E0C2
:102C900005F582752046FFF7E1FD00B101202860AF
:102CA000022229462046FFF7B3FBE1E770B505464F
:102CB00090F8FC010C4603280DD1207901280AD890
:102CC000D5F81402826828469047E08830B9284633
:102CD000FFF7ABFB02E02846FFF775FB002070BD55
:102CE0007047000000487047700100202DE9F04750
:102CF000CB780A7848F68F1433B1012B67D0022BBA
:102D000008D0032B0BD17FE030F82230234043F46E
:102D1000007302E030F82230234020F822300A7895
:102D200030F8224048F68F731C4048F280052C434F
:102D3000144320F822408A7A48F6BF794FF0040CF9
:102D40004BF68F7A48F2C0044CF28007F2B30A784F
:102D500030F8226048F280181E4046EA080620F843
:102D60002260CA88B0F8506022F0010291F8008019
:102D700006EBC80600EB4606C6F800240A89B0F840
:102D8000506022F0010291F800800CEBC80C664400
:102D900000EB4606C6F800244A78002A0A7830F884
:102DA00022604FEA46467DD0002E05DA30F82260D8
:102DB0001E403E4320F822600A7830F822607606F2
:102DC00008D530F822601E40264301E028E021E0CB
:102DD00020F822600A7830F822401C403C4320F85A
:102DE00022400A7830F8223003EA09032B4320F806
:102DF0002230097830F8212002EA0A022A4320F81A
:102E000021200020BDE8F08730F82230234043F431
:102E1000C06382E730F82230234043F480637CE7CC
:102E20004A78002A8A8822F001021BD0B0F850604C
:102E30000F7806EBC70600EB4606C6F800240A78B2
:102E400030F82260760605D530F822601E40264311
:102E500020F82260097830F8212002EA090282F085
:102E60002002CBE7B0F850400E780CEBC606344495
:102E700000EB4404C4F80024B0F850200C78062677
:102E800006EBC404224400EB42060A694FF6FF7CBD
:102E900006F580663E2A0CD9C2F34F14D20603D140
:102EA000641E00E021E0A4B20CEA842242F4004255
:102EB00007E0C2F34F04D20701D0641CA4B20CEAAD
:102EC000842232600A7830F82240640405D530F854
:102ED00022401C403C4320F82240097830F8212051
:102EE00002EA0A0282F4405288E7002E05DA30F83E
:102EF00022601E403E4320F822600A7830F82260AB
:102F0000760605D530F822601E40264320F8226060
:102F10000A7830F822601E40264320F822600A78A2
:102F200030F8223003EA0A0383F440532B4320F89D
:102F30002230097830F8212002EA09025EE70020F9
:102F400070472DE9F04391F80A804C780A7848F6EA
:102F5000BF794BF68F7748F2800548F2C0064CF2F5
:102F6000800C48F68F73B8F1000F2AD0002C30F88F
:102F700022404FEA444449D0002C06DA30F822407F
:102F80001C4044EA0C0420F822400A7830F8224021
:102F9000640605D530F822401C40344320F8224016
:102FA0000A7830F822401C4044EA0C0420F8224001
:102FB0000A7830F8223003EA09032B4320F8223044
:102FC0001AE0002C30F822400DD0640605D530F808
:102FD00022401C40344320F82240097830F8212058
:102FE00002EA09020CE0640406D530F822401C40D5
:102FF00044EA0C0420F82240097830F821203A40B5
:103000002A4320F821200020BDE8F083002C06DAB6
:1030100030F822401C4044EA0C0420F822400A7890
:1030200030F82240640605D530F822401C40344375
:1030300020F822400A7830F822401C40344320F81F
:1030400022400A7830F822303B402B4320F82230CF
:10305000C3E7002070470020704700B50121A0F8A9
:1030600040100021A0F84010A0F84410A0F8501023
:1030700000F038F9002000BD30F8401F21F43D4138
:103080000180002070470020704730B54C780A78E6
:10309000002C48F68F7530F8224048F2800312D099
:1030A000640607D530F822402C4048F2C0052C4376
:1030B00020F82240097830F8212048F6BF742240D9
:1030C00082F0300211E0640407D530F822402C4031
:1030D0004CF280052C4320F82240097830F821205A
:1030E0004BF68F74224082F440521A4320F821207C
:1030F000002030BD10B50A7848F2800352B14978FB
:10310000002930F8221010D048F6BF74214081F019
:1031100010010FE001884BF6BF72114081F480511D
:1031200081F010011943018007E04BF68F742140B4
:1031300081F48051194320F82210002010BD2DE9A0
:10314000F0410D460646896995F801C00023AA7A28
:10315000022728690C4648F28008BCF1010F05D00F
:10316000814252D90446081AA8614FE0814203D92E
:103170000446081AA86100E0AB617AB1287836F8F5
:1031800020104906B6F8501007EBC000084406EBC3
:103190004000C0F8004412D52A8911E0A3B2AA88E1
:1031A0003046696900F0CBF8B6F85000297807EB93
:1031B000C101084406EB4000C0F800441CE0EA8866
:1031C000A3B23046696900F0BAF8687848F68F72A1
:1031D00010B1012807D00FE0287836F820101140F0
:1031E00048F2C00205E0287836F8201011404CF271
:1031F0008002114326F82010287836F8201048F66F
:10320000BF72114081F0300165E0AB6106234FF6DB
:10321000FF711AB1BCF1000F19D054E0B6F850009C
:103220002A783E2C03EBC202104406EB400202F562
:10323000806237D9C4F34F10E30630D001EA802012
:1032400040F4004001E001EA802010603BE0B6F865
:1032500050002A783E2C07EBC202104406EB4002D5
:1032600002F580620BD9C4F34F105FEAC46C01D140
:10327000401E80B201EA802040F4004008E0C4F320
:103280004F005FEAC47C01D0401C80B201EA80207C
:10329000106068780028C1D001280AD013E0401ED1
:1032A00080B2CBE7C4F34F00E307CCD0401C80B220
:1032B000C9E7B6F85000297807EBC101084406EBCE
:1032C0004000C0F80044287836F820104BF68F7282
:1032D000114081F4405141EA080126F820100020F5
:1032E000BDE8F08130F8401F41F43F4101800020EB
:1032F000704700000148FDF716BB00009003002056
:103300000148FDF710BB000090030020B0F8440016
:1033100070475B1C00EB42005B0800F5806005D045
:1033200030F8042B21F8022B5B1EF9D170470020E6
:10333000704711B98021A0F84C100020704710B5DB
:103340005B1C00EB42005B0800F5806009D011F8BF
:10335000012B5B1E11F8014B42EA042220F8042BDA
:10336000F5D110BDFEE7FEE702E008C8121F08C154
:10337000002AFAD170477047002001E001C1121FF6
:10338000002AFBD17047FDF72FF9FEF7BCFCFEF7D2
:1033900043FAFEF791FAFEF7B5FAFEF753FAFEF795
:1033A000D7FA002211461420FDF79CF91420FDF7EE
:1033B0008DF9002211462520FDF794F92520FDF70F
:1033C00085F9002211462620FDF78CF92620FDF70D
:1033D0007DF9002211463220FDF784F93220FDF7F5
:1033E00075F9FCF755FFFEE7000000000000000043
:1033F000010203040607080900000000010203049B
:10340000203400080000002070010000D4010008F2
:10341000E0340008700100209018000078330008A4
:103420001135A24A040172101361241B0891041A79
:103430009D041AC5041AF1041A41041A6D041704F4
:103440000309041201140202021640830440571DAE
:10345000020102033D1335021B0831041A2D041A20
:10346000590481130A0632022A40601C0902432FC4
:103470001125C03209041B01020B1305241610018B
:10348000052401100901042402020524061701077E
:10349000058203081B10099233020A1D0705010269
:1034A000432C070581070938442A40072A81071160
:1034B0002B0907440A2204440A16FF44134D221420
:1034C00008BB214C082923EC1AF70C1A79041A8D31
:1034D00004C11A35281A29041A41041A1D0441008E
:0400000508000131BD
:00000001FF
