:020000040800F2
:10000000F01B0020450100081F660008AD1E000817
:100010001D660008930700086580000800000000C6
:100020000000000000000000000000008B690008D4
:10003000F507000800000000896900088D690008C4
:100040005F0100085F0100085F0100085F01000810
:100050005F0100085F0100085F0100085F01000800
:100060005F0100085F0100085F0100085F010008F0
:100070005F0100085F0100085F0100085F010008E0
:100080005F0100085F0100085F010008F57F0008BC
:10009000018000085F0100085F0100085F0100089F
:1000A0005F0100085F0100085F0100085F010008B0
:1000B0005F0100085D6A00085F0100085F01000839
:1000C0005F0100085F0100085F0100085F01000890
:1000D0005F010008616E00086D6E00085F01000896
:1000E0005F0100085F0100085F0100085F01000870
:1000F0005F0100085F0100085F0100085F01000860
:100100005F0100085F010008696A00085F010008DC
:100110005F0100085F0100085F0100085F0100083F
:100120005F0100085F0100085F0100085F0100082F
:10013000DFF80CD000F0F0FA004800479D89000875
:10014000F01B00200648804706480047FEE7FEE710
:10015000FEE7FEE7FEE7FEE7FEE7FEE7FEE7FEE777
:10016000156A000831010008202A04DB203A21FA30
:1001700002F00021704721FA02F3D040C2F12002C0
:10018000914008431946704740EA01039B0703D09A
:1001900009E008C9121F08C0042AFAD203E011F8C6
:1001A000013B00F8013B521EF9D27047D2B201E088
:1001B00000F8012B491EFBD270470022F6E710B56C
:1001C00013460A4604461946FFF7F0FF204610BDC5
:1001D0002DE9FE4F804681EA0300C00F0C460090D7
:1001E00021F0004123F00045B8EB0200A94105D2FF
:1001F0004046214690461C460B46024623F00040EE
:10020000104347D0270DC7F30A00C3F30A510290E9
:10021000401A019040286BDAC3F3130040F4801BAE
:100220000098924620B10023D2EB030A63EB0B0B3C
:1002300001985946C0F14002504600F0BEF906460A
:100240000D4650465946019A00F0C6F910EB0800D9
:100250006141002487EA115284EAE7731A4340D0CF
:10026000009A62B3019A012A4FEA075215DC001B7B
:1002700061EB02014FF0004202EA0752CDE9004271
:10028000001C41F5801132462B4600F0C6F903B040
:10029000BDE8F08F40462146F9E7001B61EB020103
:1002A000001C41F5801300185B412018A2F50017CF
:1002B00047EB030140EAD570B6196D4111E06D08B6
:1002C0004FEA360645EAC0754FEA0752001B61EB5C
:1002D0000201001C41F5801149084FEA3000001965
:1002E000514132462B4603B0BDE8F04F00F086B9CD
:1002F0000098012240000023D0EB020263EBE07380
:10030000009821464FEAE074B8EB000061EB04016D
:10031000E9E783F000435BE781F0004158E72DE90E
:10032000FE4F81EA030404F0004421F000410094F0
:100330004FF0000B23F0004350EA01045ED052EA74
:1003400003045BD0C3F30A54C1F30A552C44A4F24E
:10035000F3340194A0FB0254C1F3130141F4801162
:10036000C3F3130343F4801301FB024400FB034E69
:10037000840A970A44EA815447EA8357A4FB076832
:1003800002958D0A05FB07854FEA932C04FB0C545C
:100390002705029D4FEA065847EA1637B5EB0805D0
:1003A0006EEB070C870E920E47EA811742EA831222
:1003B000A7FB0201B6EB0B0164EB00042B0D43EA33
:1003C0000C335E1844EB1C50DA465146E7FB020141
:1003D000C5F313044FEA0B3343EA14534FEA0432D4
:1003E000019C43EA0603A4F10C040294009CCDE9AD
:1003F00000B400F012F903B0BDE8F08F0020014610
:10040000F9E72DE9F04D81EA030404F0004B21F0F7
:10041000004514464FF0000A23F0004150EA05025F
:1004200020D054EA01021DD0C5F30A570246C5F395
:100430001303C1F31300C1F30A5640F4801543F4CB
:100440008013A7EB0608101BD64608F2FD3873EBA5
:10045000050002D308F1010801E092185B41B8F1F0
:10046000000F03DA00200146BDE8F08D00204FF4B4
:100470008011064684460EE0171B73EB050705D373
:10048000121B63EB050306434CEA010C49084FEAD3
:10049000300092185B4150EA0107EDD152EA0300A7
:1004A00012D082EA040083EA0501084305D0101B3C
:1004B000AB4106D20122002306E000224FF00043A8
:1004C00002E06FF0010253101AEB06004CEB0851EA
:1004D00010EB0A0041EB0B01BDE8F04D00F08EB8C7
:1004E0000EB540F2334102910021CDE900110A46D8
:1004F0000B4600F092F803B000BDC1F30A5210B5EC
:10050000C1F3130140F2FF3341F480119A4201DA42
:10051000002010BD40F233439A42A2F2334203DC82
:100520005242FFF721FE10BD904010BD30B50B4682
:10053000014600202022012409E021FA02F59D4213
:1005400005D303FA02F5491B04FA02F52844151EE7
:10055000A2F10102F1DC30BD2DE9F05F054600207B
:1005600092469B4688460646814640241BE0284624
:10057000414647462246FFF7F7FD53465A46C01A02
:10058000914110D311461846224600F016F82D1A54
:1005900067EB01084F4622460120002100F00DF8CC
:1005A00017EB00094E41201EA4F10104DFDC484690
:1005B00031462A464346BDE8F09F202A04DB203A14
:1005C00000FA02F1002070479140C2F1200320FAA6
:1005D00003F3194390407047202A06DBCB17203ADB
:1005E00041FA02F043EAE07306E041FA02F3D04038
:1005F000C2F12002914008431946704710B5141EFD
:1006000073F1000408DA401C41F1000192185B41CB
:100610001A4301D120F0010010BD2DE9F04D9246A2
:100620009B4611B1B1FA81F202E0B0FA80F22032B9
:100630009046FFF7C2FF04460F4640EA0A0041EA2F
:100640000B0153465A46084313D0114653EA0100A2
:1006500019D0C8F140025046FFF786FD05460E4608
:10066000504659464246FFF7A8FF084305D00120EF
:1006700004E020463946BDE8F08D0020054346EAF7
:10068000E0762C4337430A986305E40AA0EB0800A0
:100690000022FD0A44EA47540A3002D500200146F0
:1006A000E9E7010510196941DDE9084500196941CB
:1006B000BDE8F04DA2E7C1F30A52C1F3130140F2C5
:1006C000FF3341F480119A4202DA0020014670475C
:1006D00040F233439A42A2F2334202DC5242FFF725
:1006E00043BDFFF76ABF000030B5041E71F100047E
:1006F00004DB4FF00044404264EB0101141E73F12F
:10070000000405DB1C464FF00043524263EB040338
:10071000994208BF904230BD064C074D06E0E068A4
:1007200040F0010394E8070098471034AC42F6D338
:10073000FFF702FDC0A20008E0A2000870B58C1807
:1007400010F8015B15F0070301D110F8013B2A11E5
:1007500006D110F8012B03E010F8016B01F8016BD2
:100760005B1EF9D12B0705D40023521E0DD401F8CE
:10077000013BFAE710F8013BCB1A921C03E013F897
:10078000015B01F8015B521EF9D5A142D8D30020CC
:1007900070BDFEE7002070470020704710B50022B2
:1007A0000449054806F038FC0449034806F02EFCCD
:1007B000002010BDDE0E002048130020F60A0020A5
:1007C00010B50146034806F021FC024806F002FC81
:1007D000002010BD4813002010B5D2210348FFF7B8
:1007E000ECFC03490020488010BD00000C170020DD
:1007F000580000207047000010B505F0A7FEFFF775
:10080000EBFFBDE8104001220149024801F0ACBAFB
:100810006C150020C81200202DE9F05F90F821101F
:100820000024022903D004218163012485E00168AA
:100830000A6822F00E020A6001680A6822F00102CA
:100840000A603F4E3E4FB215DFF8F4C0DFF8F0907B
:10085000DFF8ECA0DFF8E8B0DFF8E4E00168783F0B
:1008600013011502ACF1640CA9F15009AAF13C0A7C
:10087000ABF1280BAEF1140E4FF48018B14227D91A
:10088000B9420ED0614512D049451DD0514518D00E
:10089000594518D0714501D1424615E0294EB14263
:1008A00001D1012210E0274E1436B14201D11022AD
:1008B0000AE0244E2836B14206D0224A3C32914208
:1008C00001D11A4600E02A461E49091F0A602BE0A2
:1008D000B94213D0614517D0494522D051451DD0AA
:1008E00059451DD0714501D142461AE0B14202D1AD
:1008F0004FF0807215E0134EB14201D1012210E099
:10090000104E1436B14201D110220AE00D4E2836A5
:10091000B14206D00B4A3C32914201D11A4600E066
:100920002A46074980394A60012180F821100021B8
:1009300080F82010416B01B188472046BDE8F09F48
:10094000800002400804024070B5044600F00AF935
:100950000546601C02D004480078044400F002F907
:10096000401BA042FAD370BD040000202DE9F84FCF
:10097000DFF8BC91002309F1040A0AF1040B1C46BC
:100980004FF00F080BF1040E01270A68A7403A4008
:10099000BA4272D1DFF89CC14D68A5EB0C066545E3
:1009A0002BD00DDC032D34D005DC35B3012D19D04F
:1009B000022D2FD11BE0112D16D0122D2AD119E0B6
:1009C000B6F5881F19D006DCB6F5803F15D0B6F510
:1009D000801F1FD111E0B6F5001F0ED0B6F5041F21
:1009E00018D10AE0CB6815E0CB681B1D12E0CB687C
:1009F00008330FE0CB680C330CE08B682BB1012B74
:100A00004FF0080303D0476104E0042302E00761CC
:100A100000E00023FF2A01D8064601E000F10406A9
:100A20004FEA840501D9A5F12005376808FA05FCCD
:100A300027EA0C0703FA05F547EA050737604D6812
:100A4000ED006ED53C4DAE6946F00106AE61AD6974
:100A500024F0030605F001050095384D7719BE68AE
:100A6000A5072D0F08FA05FC26EA0C06DFF8D0C012
:100A7000604503D14FF0000C25E052E0DFF8C4C020
:100A8000604502D14FF0010C1DE0DFF8BCC06045AD
:100A900002D14FF0020C16E0DFF8B0C0604502D181
:100AA0004FF0030C0FE0DFF8A8C0604502D14FF013
:100AB000040C08E0DFF89CC0604502D14FF0050C43
:100AC00001E04FF0060C0CFA05FC4CEA060CC7F8E6
:100AD00008C04D68D9F80060ED034D4601D51643B6
:100AE00000E096432E604D68DAF80060AD0355468D
:100AF00001D5164300E096432E604D68DBF8006098
:100B0000ED025D4601D5164300E096432E604D6828
:100B1000DEF80060AD02754601D5164300E096434D
:100B20002E60641C102CFFF42FAFBDE8F88F00007E
:100B300000040140000011100010024000000140BC
:100B400000080140000C0140001001400014014069
:100B500000180140001C01400AB1016170470904FE
:100B6000FBE7000001488068704700000400002097
:100B700002488168027811448160704704000020B7
:100B8000074810B5016841F010010160032000F032
:100B900095F8002000F006F800F024F8002010BDC1
:100BA0000020024070B50D4D04464FF47A7128784C
:100BB000B1FBF0F00A490968B1FBF0F000F0DDFD8F
:100BC00048B9102C07D200222146501E00F056F8DA
:100BD00000206C6070BD012070BD0000040000208A
:100BE000000000201D4808B5816941F001018161C4
:100BF000806900F001000090032000F05FF80022FF
:100C000011466FF00B0000F039F8002211466FF02A
:100C10000A0000F033F8002211466FF0090000F0DE
:100C20002DF800221146501F00F028F8002211462E
:100C3000101F00F023F800221146901E00F01EF84D
:100C400000221146501E00F019F80549486820F0AE
:100C5000E06040F00070486008BD000000100240F5
:100C60000000014000F01F02012191404009800076
:100C700000F1E020C0F8001170470000F0B40E4B06
:100C80001B68C3F30223C3F10704042C00D9042416
:100C90001D1D072D01D2002300E0DB1E012606FAF0
:100CA00004F56D1E0D409D409E40761E164045EA9F
:100CB0000601F0BC05F0B4BC0CED00E0064A00F003
:100CC000070110684FF6FF03184040EA012003496E
:100CD00008431060704700000CED00E00000FA05CA
:100CE00010B50C0605D501F07F0100EB411028304E
:100CF00003E000EB411000F50A7099B232B1012215
:100D00008272C180190C0181002010BD0022827204
:100D10008180F9E7704700EB4112D0F85C04D26B98
:100D200006F040BB00EB4112D0F85C04D2F83C2244
:100D300006F08DBB10B504460A460B0601F07F0095
:100D400004EB401101D5283101E001F50A7108706A
:100D5000D009487094F82804012809D0012084F8AB
:100D60002804206806F06DFF002084F8280410BDD8
:100D7000022010BD70B50A460446090602F07F0045
:100D800003D504EB4011283103E004EB421101F5D7
:100D90000A7100258D700870D009487094F82804F5
:100DA000012809D0012084F82804206806F0EDFF0E
:100DB00084F82854002070BD022070BD01F00F019E
:100DC00000EB4110B0F8440280B2704770B50446A1
:100DD0000D460E0601F07F0004EB401101D52831CD
:100DE00001E001F50A710870E80948700A61CB70EA
:100DF00094F82804012809D0012084F828042068E8
:100E000006F0F4FD002084F8280470BD022070BDB7
:100E100070B50D4601F07F0400EB4411C1E98F234A
:100E20000022C1F8442281F8292281F8284201F5E4
:100E30000A716A06006807F002F8002070BD70B5FC
:100E40000D460446090605F07F0003D504EB40116A
:100E5000283103E004EB451101F50A7101228A7083
:100E60000870E809487094F82804012807D084F82D
:100E70002824206806F0BEFF680602D006E00220A3
:100E800070BD04F22C41206806F07DFF002084F83C
:100E9000280470BD70B50D4601F07F0400EB4411CD
:100EA000C1E90F2300224A64012281F8292001F8B8
:100EB000284F6A06006806F0C2FF002070BD10B51A
:100EC0000446006807F0A2F8000402D5204605F0A9
:100ED000B7FB206807F09AF840050CD5206830F879
:100EE000441F21F480610180204600F0EBF80021CE
:100EF000204600F0FCF8206807F088F8400405D58B
:100F0000206830F8441F21F480410180206807F0F8
:100F10007DF8800405D5206830F8441F21F4005185
:100F20000180206807F072F8C00414D5206830F8FA
:100F3000401F21F004010180206830F8401F21F09B
:100F400008010180204600F0CAF8206830F8441FEC
:100F500021F480510180206807F058F800051AD567
:100F6000206830F8401F41F008010180206830F807
:100F7000441F21F400610180206830F8401F41F0D7
:100F800004010180206807F041F8C043C00402D585
:100F9000204600F0E1F8206807F038F8800508D511
:100FA000206830F8441F21F400710180204600F0D1
:100FB0009AF8206807F02AF8C00505D5206830F8AF
:100FC000441F21F48071018010BD2DE9F04186B0ED
:100FD00004004FF0000504D094F82904002620B145
:100FE00008E0012006B0BDE8F08184F828642046BE
:100FF00000F04AF8032084F82904206806F0BCFEBB
:1010000004F11001142288466846FFF7BDF894E801
:101010000F0006F014FE0021206807F008F80127F1
:1010200004EB451080F8297000F8285F8581C670B0
:10103000066146616D1C86610F2DF1D3002104EB22
:10104000411080F8296280F82812818680F82B628E
:10105000C0F83862C0F83C62491CC0F840620F29F1
:10106000EDD3142241466846FFF78EF894E80F004E
:1010700006F073FE84F8246084F82974206806F072
:101080006AFE0020AEE7000008B500680B49884200
:1010900012D10B48C16941F40001C161C06900224D
:1010A00000F40000009011461320FFF7E7FDBDE8B3
:1010B00008401320FFF7D6BD08BD0000005C0040CB
:1010C0000010024010B504460121D0F85C0406F07F
:1010D000A7FAD4F85C04BDE8104006F070BAD0F866
:1010E0005C0406F08BBAD0F85C0406F08DBA10B53B
:1010F000044690F8280401280BD0012084F8280425
:1011000084F82410206806F094FF002084F8280456
:1011100010BD022010BDD0F85C2400F22C41104616
:1011200006F091BA10B5044690F82804012810D0B2
:10113000012084F8280401462046FFF7EBFD2068D3
:1011400006F007FE206806F04DFF002084F8280412
:1011500010BD022010BD000010B50446D0F85C049C
:1011600006F0BEFAA069002804D00348016841F0E7
:101170000601016010BD000010ED00E02DE9F8430C
:1011800004460078344FC00752D0F8690025C000EB
:1011900008D4F86940F08050F861F869012500F042
:1011A000805000902D480168C90511D4016880461F
:1011B00041F480710160FFF7D5FC064604E0FFF7BB
:1011C000D1FC801B642822D8D8F80000C005F6D5D1
:1011D000386A10F4407020D0A18801F44071814237
:1011E0001BD0386A1E49012220F440700A60002298
:1011F0000A603862C00710D0FFF7B4FC064641F21F
:10120000883807E0FFF7AEFC811B414502D9032077
:10121000BDE8F883386A8007F4D5386A616820F43D
:101220004070084338621DB1F86920F08050F861C1
:101230002078800705D57868A16820F440400843ED
:1012400078602078C00605D57868616920F4800050
:10125000084378600020DBE7001002400070004087
:10126000400442422DE9F047DFF8348104460E463F
:10127000D8F8000000F00700B0420CD2D8F80010F7
:1012800021F007013143C8F80010D8F8000000F041
:101290000700B04260D12078424F800705D57868BA
:1012A000A16820F0F000084378602078C00742D0A1
:1012B0006068012816D03968022816D089070029ED
:1012C0004ADA796821F0030101437960FFF74AFCAB
:1012D0000546606841F2883101280ED0022889460F
:1012E00017D024E039688903E9E78901E7E7FFF7C8
:1012F00039FC411B494501D916E089467868C0F39D
:1013000081000128F3D116E0FFF72CFC411B494571
:101310000AD87868C0F381000228F5D10BE0FFF706
:1013200021FC411B494502D90320BDE8F0877868BC
:1013300010F00C0FF3D1D8F80010404601F007016F
:10134000B1420BD9016821F0070131430160006807
:1013500000F00700B04201D00120E6E72078400706
:1013600005D57868E16820F4E0600843786020786B
:10137000000706D57868216920F4605040EAC10072
:10138000786000F03BF87968074AC1F30311515CBB
:10139000C840064908600020FFF704FC0020C4E7AD
:1013A0000020024000100240E88A000800000020EF
:1013B000014800687047000000000020044805490B
:1013C00000684968044AC1F30221515CC840704773
:1013D0000000002000100240F88A00080448054977
:1013E00000684968044AC1F3C221515CC840704793
:1013F0000000002000100240F88A000812A085B00A
:101400000FC88DE80F0014A0144B006804905968B1
:10141000134801F00C02042A10D0082A0ED1C1F39F
:101420008342C9031DF802000AD5596804AAC1F312
:101430004041515C0A4A5043B0FBF1F005B070479F
:1014400008494843FAE700000203040506070809B3
:101450000A0B0C0D0E0F10100102000000100240CC
:1014600000127A0000093D002DE9F84F044600788B
:10147000B64DC00747D06868C0F38100012807D087
:101480006868C0F38100022809D16868C00306D5E6
:101490002868800337D5606800286ED033E0606824
:1014A000B0F5803F0BD010B1B0F5A02F11D0286857
:1014B00020F480302860286820F4802002E028682A
:1014C00040F480302860606888B1FFF74BFB064627
:1014D00009E0286840F480202860F0E7FFF742FB2D
:1014E000801B642873D828688003F7D50BE0FFF7CA
:1014F00039FB064604E0FFF735FB801B6428F1D872
:1015000028688003F7D42078DFF8448280074FF002
:10151000010A4FF0000939D5686810F00C0F07D0A8
:101520006868C0F38100022809D16868C00306D446
:101530002868800713D5206901281ED10FE0206993
:10154000A8B1C8F800A0FFF70DFB064604E0FFF7BE
:1015500009FB801B0228C5D828688007F7D52868B2
:10156000616920F0F80040EAC10028600EE0C8F888
:101570000090FFF7F7FA064605E0E5E0FFF7F2FA1C
:10158000801B022823D828688007F7D4207800071A
:101590002CD57049A069D8B1C1F800A0FFF7E2FAD4
:1015A000064604E0FFF7DEFA801B02280FD8686ABF
:1015B0008007F7D568484FF4FA510068B0FBF1F0A6
:1015C000009000BF0098411E0091FAD20EE07CE02E
:1015D000C1F80090FFF7C6FA064604E0FFF7C2FA2A
:1015E000801B022871D8686A8007F7D420784007EA
:1015F0005BD5E8690027C00008D4E86940F0805056
:10160000E861E869012700F08050009053480168C4
:10161000C90511D40168834641F480710160FFF768
:10162000A1FA064604E0FFF79DFA801B64284CD817
:10163000DBF80000C005F6D5E06801280AD008B143
:10164000052813D0286A20F001002862286A20F0BB
:10165000040002E0286A40F001002862E06841F2DC
:10166000883B88B1FFF77EFA064609E0286A40F019
:1016700004002862EEE7FFF775FA811B59455BD835
:10168000286A8007F7D50BE0FFF76CFA064604E0FE
:10169000FFF768FA811B59454ED8286A8007F7D4AE
:1016A0001FB1E86920F08050E861E069A8B369687B
:1016B000C1F38101022947D00228484606D0C8F864
:1016C0006000FFF74FFA044639E035E04746C8F8B6
:1016D0006000FFF747FA064604E0FFF743FA801B75
:1016E000022829D828688001F7D4206AB0F5803F05
:1016F00005D16868A16820F4003008436860D4E927
:1017000008010843696821F4741108436860C7F848
:1017100060A0FFF727FA044605E013E0FFF722FA7E
:10172000001B022808D828688001F7D50AE0FFF7D7
:1017300019FA001B022802D90320BDE8F88F286897
:101740008001F4D40020F8E70120F6E70010024001
:10175000000042428004424200000020007000402D
:101760004FF0E0210428086903D020F0040008614C
:10177000704740F00400FAE7704710B5401EB0F122
:10178000807F01D3012010BD4FF0E02460610F2164
:10179000601704F045FF0020A061072020610020B1
:1017A00010BD10B5FFF7E8FF10BD7047704730B5AA
:1017B00090F83C20012A20D0012380F83C300222FE
:1017C00080F83D200268546824F070045460026878
:1017D00054680D682C4354600268946824F08004B7
:1017E00094600268946849680C43946080F83D30C6
:1017F000002180F83C10084630BD022030BD10B5F5
:10180000040003D094F83D0010B107E0012010BDA2
:10181000002084F83C00204600F00CF8022084F8F8
:101820003D00211D206805F025F9012084F83D00C8
:10183000002010BD08B50068104A1149904211D12E
:10184000C86940F00200C861C869002200F00200C7
:10185000009011461D20FFF711FABDE808401D2039
:10186000FFF700BA074A904207D1C86940F0080064
:10187000C861C86900F00800009008BD000400407D
:1018800000100240000C00400168CA6842F00102EA
:10189000CA600068016841F00101016000207047E2
:1018A0000168CA6822F00102CA600068016A41F258
:1018B0001112114207D1016A9210114203D101683D
:1018C00021F0010101600020704770B5044690F8D6
:1018D0003C00012817D0012584F83C50022084F8F0
:1018E0003D002068826822F0770222F47F42826005
:1018F0000868502836D00DDC202858D005DC80B38D
:10190000102840D150E0022070BD302852D040282D
:1019100039D13EE060282DD070280BD0B0F5805F23
:1019200003D0B0F5005F2ED110E02068816821F06F
:10193000070109E0CB68D1E90121206805F0E0F852
:101940002068816841F0770181601CE0CB68D1E9B3
:101950000121206805F0D4F82068816841F48041B5
:10196000F2E71EE0CA684968206805F0DBF85021FC
:10197000206806E0CA684968206805F0E4F860213C
:10198000206805F0C7F884F83D50002084F83C003A
:1019900070BDCA684968206805F0C4F84021206815
:1019A000EFE700212068ECE710212068E9E720211B
:1019B0002068E6E730212068E3E7704770B5044609
:1019C000006801694FF00005C943890715D4C16853
:1019D000C943890711D4E91E0161012020772068DD
:1019E00080698007204602D0FFF7E7FF04E000F09F
:1019F00098F8204600F096F8257720680169C943D9
:101A0000490717D4C168C943490713D46FF00401CB
:101A10000161022020772068806910F4407F204611
:101A200002D0FFF7CAFF04E000F07BF8204600F088
:101A300079F8257720680169C943090716D4C16878
:101A4000C943090712D46FF008010161042020770F
:101A50002068C0698007204602D0FFF7AEFF04E08F
:101A600000F05FF8204600F05DF8257720680169F6
:101A7000C943C90617D4C168C943C90613D46FF056
:101A800010010161082020772068C06910F4407FB0
:101A9000204602D0FFF791FF04E000F042F8204614
:101AA00000F040F8257720680169C943C90708D1CB
:101AB000C168C943C90704D1891E0161204600F0ED
:101AC00033F820680169C943090609D4C168C943CC
:101AD000090605D46FF0800101612046FFF765FE1D
:101AE00020680169C943490609D4C168C943490648
:101AF00005D46FF040010161204600F037F82068FE
:101B00000169C94389060BD4C168C943890607D452
:101B10006FF0200101612046BDE87040FFF746BE2E
:101B200070BD7047704700000C49026809688A421E
:101B300003D10B490A68521C0A600A490068096807
:101B400088420AD108490888401C80B208800A28C7
:101B500003D90120488000200880704748080020F1
:101B600068000020080800204200002070477047ED
:101B700070B5026804461068D168536910F00F0F01
:101B800050D003F0010501F4907635435DD0C207D3
:101B900005D0CA0503D5E26B42F00102E2634207B9
:101BA00005D5DA0703D0E26B42F00202E263820756
:101BB00005D5DA0703D0E26B42F00402E2630207C4
:101BC00005D5DA0703D0E26B42F00802E263E26B6C
:101BD000002A33D0800604D5880602D5204604F0BA
:101BE000DAFF20684069E16BC0F38010090700D478
:101BF00028B3204604F0C1FF2068416949061AD580
:101C0000416921F040014161606BA0B11B49416312
:101C1000606BFEF701FE002810D0606B416BBDE8E1
:101C200070400847830610D58B060ED52046BDE8C8
:101C3000704004F0B0BF2046FFF799FF70BD20460A
:101C4000FFF795FF0020E06370BD030606D50B0685
:101C500004D52046BDE8704005F0A0B84006F3D595
:101C60004806F1D5D168204621F04001D1602021FD
:101C700084F8391000F019F970BD00006B6B000892
:101C800070B5040004D094F83900002510B106E0C6
:101C9000012070BD84F83850204600F023F824203D
:101CA00084F839002068C16821F40051C1602046E1
:101CB00004F0BCFF2068016921F4904101612068B3
:101CC000416921F02A0141612068C16841F4005155
:101CD000C160E563202084F8390084F83A000020D0
:101CE00070BD000070B51C4E016800241B4A022024
:101CF00003231B4D86B0B14211D1916941F480415B
:101D000091619169039301F4804104910102CDE94D
:101D1000001069462846FEF729FE281513E0114EEB
:101D2000B14217D1D16941F40031D161D169039336
:101D300001F4003104910421CDE9001069462846E0
:101D4000FEF714FE0820CDE90004694628460294F7
:101D5000FEF70CFE06B070BD0038014000100240D6
:101D6000000801400044004090F83A30202B22D176
:101D7000F9B1F2B190F83830012B1CD08162828524
:101D8000C2850021C163222280F83A2080F83810F1
:101D90000168CA6842F48072CA6001684A6942F008
:101DA00001024A610068C16841F02001C160002061
:101DB00070470120704702207047000010B500688E
:101DC000084988420DD14FF6FF73012206490748A2
:101DD00000F00EF8012204490448FFF7C5FF00286F
:101DE000F8D110BD003801406C150020C812002049
:101DF0002DE9F843044690F839001E4617460D4673
:101E0000202850D1A5B19FB194F8380001284AD0BC
:101E1000012084F838004FF00008C4F83C802120ED
:101E200084F83900FEF79EFEA7848146E78426E009
:101E30000120BDE8F883E08C401EE084A0684B469A
:101E4000B0F5805F4FF000024FF080012046009611
:101E500003D004F0D4FFE8B90DE004F0D0FFC8B916
:101E600028882168C0F308004860206908B16D1C0B
:101E700005E0AD1C03E0216815F8010B4860E08C1B
:101E80000028D8D14B46002240212046009604F07D
:101E9000B6FF08B10320CCE7202084F8390084F88D
:101EA00038800020C5E70220C3E77047FEE7000046
:101EB0002DE9F0431C4F0646002438887D884543B1
:101EC000B888A0F5D041043902D1B87901280CD0E6
:101ED0000021084603F0FAFF04F056FA13494FF4C4
:101EE00080774B15124A80201AE00020B8714FF01D
:101EF0002A08A7F80A804FF02B09A7F80C90014692
:101F000003F0E4FF0120B871A7F80A90A7F80C804D
:101F1000E2E70F614B611660486108610B61641C68
:101F2000AC42F6D3BDE8F083DE170020001001407C
:101F30000C0C01402DE9F04F4A492A232B248988B3
:101F400045F2105A4FF4305B4FF4285E4FF4487559
:101F50004FF0F00C49F241394FF4A07745F21036BA
:101F60004FF4F07280B13F484FF00108494580F8C6
:101F700006800780A0F802C001D0B1423ED12C25D6
:101F800005814381848157E036484FF00008494578
:101F900080F80680A0F800C0478006D0A1F5D04C9C
:101FA000BCF1040C01D0B1420CD12C250581438138
:101FB000A1F5D0438481043B01D0B14244D10780D4
:101FC000428041E0514507D1A0F808B0A0F80AE0EE
:101FD0004FF42C5181810EE0A1F5C856633E06D026
:101FE0002221018120214181212181812CE02C218C
:101FF0000181448183810280458025E0A1F5D04C98
:10200000BCF1040C09D051450BD1A0F808B0A0F8E0
:102010000AE04FF42C53838121E02C250581448173
:1020200009E0A1F5C85CBCF1630C12D02223038146
:102030002123438120238381A1F5D043043B01D098
:10204000B14201D102804780BDE8F04F002003F08B
:10205000C3BD4FF02C0CA0F808C0438184810580DB
:102060004280E9E7DE1700202DE9F74F054690484A
:1020700081B0DFF840A2818802982F0A00F0FF09A2
:102080004FEA1028E8B200908948A1F513424FF4B6
:10209000807B40894FF40076413A18D0844CA1F5FA
:1020A000A642103A13D0A1F5AA42103A36D02246E1
:1020B000A1F5C85793791288521B521E633F63D013
:1020C000A1F5D047043F7DD0012B7CD0D1E004F0B6
:1020D00049F9794CC4F810B06661CAF800708025DF
:1020E000656125612661C4F810B066610098CAF880
:1020F00000006561256126616D48808904F032F930
:10210000C4F810B066615146CAF800806561256167
:102110002661C4F810B06661484631E004F022F947
:10212000654CC4F810B06661CAF80070802565611E
:10213000256126615E484089401C80B204F012F996
:10214000C4F810B066610098CAF8000065612561A6
:1021500026615748808904F005F9C4F810B066611B
:10216000CAF8008065612561266151488089401C5C
:1021700080B204F0F7F8C4F810B0666148465146E2
:1021800008606561256171E003B995B204F0EAF871
:10219000494CC4F810B06661280ACAF800008027CC
:1021A000676127612661C4F810B06661E9B2CAF8B8
:1021B0000010676127612661C4F810B06661CAF833
:1021C000000001E025E053E0676127612661C4F863
:1021D00010B06661CAF80010676127612661344853
:1021E000808904F0BFF8C4F810B066615146CAF89F
:1021F0000080676127612661C4F810B06661CAF883
:102200000090676127612661C4F810B0666140469E
:1022100021E0012B00D195B204F0A4F8264CC4F8BB
:1022200010B06661290ACAF800108027676127612B
:102230002661C4F810B06661E9B2CAF8001067619F
:10224000276126611A48808904F08CF8C4F810B020
:102250006661404651460860676127612661C4F89F
:1022600010B06661C1F8009067612761266107E0E0
:1022700095B2294604F08EF8A089029904F08AF8F4
:102280000D48C0F814B0466109490989CAF8001020
:102290008021416101610661C0F810B04661039B75
:1022A000CAF80030416101610661BDE8FF8F00009E
:1022B000DE1700200C0C0140001001402DE9F04F0A
:1022C000FE4885B0816941F008018161816901F0B2
:1022D00008010491816941F01001816180694FF02A
:1022E000010A00F0100004904FF4F860CDE9000AF4
:1022F0000320CDE902A06946F148FEF737FB4FF60F
:10230000FF7000906946EF48FEF730FBEE494868E1
:1023100020F0E06040F0806048603220FEF714FB5F
:102320000121002004F036F83220FEF70DFB0020DA
:1023300003F0FCFBE54C49F2413746F60408A08067
:1023400045F2103945F21055FF2806D3A0F57F411C
:10235000FF3902D0B0F5134F70D1D32004F002F84A
:1023600003F0ACFB03F0AAFB03F0A8FB4FF6FF76EB
:1023700006EA0020A08003F0A1FBA1880843A0800A
:10238000B8425BD0BF2003F0EDFF03F097FB03F0F2
:1023900095FB03F093FB03F091FB06EA0020A0807D
:1023A00003F08CFBA1880843A080404546D0D42090
:1023B00003F0D8FF03F082FB03F080FB03F07EFB09
:1023C00006EA0020A08003F079FBA1880843A080E2
:1023D000484533D04FF45A4003F0C4FF03F06EFB7E
:1023E0004FF45B4003F0BEFF03F068FB06EA0020F9
:1023F000A0804FF45C4003F0B5FF03F05FFBA188C1
:102400000843A080B0F5004F7ED0A84216D0A1208E
:1024100003F0A8FF03F052FBA08003F04FFB06EA95
:102420000020A08003F04AFBA1880843A0F5AE413C
:10243000A080613902D141F66310A080A188A4A0D8
:1024400005F012FEA088B8427ED1CF2003F08AFFAB
:10245000002003F075FFC12003F072FF302003F06D
:102460006FFFED2003F07EFF642003F069FF03207F
:1024700003F066FF122003F063FF812003F060FF8A
:10248000E82003F06FFF852003F05AFF102003F0CF
:1024900057FF7A2003F054FFCB2003F063FF39206D
:1024A00003F04EFF2C2003F04BFF002003F048FF09
:1024B000342003F045FF022003F042FFF72003F031
:1024C00051FF202003F03CFFEA2003F04BFF0020E7
:1024D00003F036FF002003F033FFC02003F042FF7B
:1024E0001B2003F02DFFC12003F03CFF012003F06F
:1024F00027FFC52003F036FF302003F021FF3020F6
:1025000003F01EFFC72000E0B2E003F02BFFB7206E
:1025100003F016FF362003F025FF482003F010FFDC
:102520003A2003F01FFF552003F00AFFB12003F00B
:1025300019FF002003F004FF1A2003F001FFB6206A
:1025400003F010FF0A2000E094E003F0F9FEA2205F
:1025500003F0F6FEF22003F005FF002003F0F0FE8A
:10256000262003F0FFFE012003F0EAFEE02003F046
:10257000F9FE0F2003F0E4FE2A2003F0E1FE2820FC
:1025800003F0DEFE082003F0DBFE0E2003F0D8FE91
:10259000082003F0D5FE542003F0D2FEA92003F05A
:1025A000CFFE432003F0CCFE0A2003F0C9FE0F202B
:1025B00003F0C6FE002003F0C3FE002003F0C0FEBF
:1025C000002003F0BDFE002003F0BAFEE12003F07E
:1025D000C9FE002003F0B4FE152003F0B1FE172061
:1025E00003F0AEFE072003F0ABFE112003F0A8FEBF
:1025F000062003F0A5FE2B2003F0A2FE562003F0D8
:102600009FFE3C2003F09CFE052003F099FE102065
:1026100003F096FE0F2003F093FE3F2003F090FEA0
:102620003F2003F08DFE0F2003F08AFE2B2003F0E5
:1026300099FE002003F084FE002003F081FE0120BB
:1026400003F07EFE3F2003F07BFE2A2003F08AFE8B
:10265000002003F075FE002003F072FE002003F05E
:102660006FFEEF2003F06CFE112003F07BFEBAE05A
:10267000A580E3E640457DD1112003F073FE1420D0
:10268000FEF762F9D02003F06DFE072003F058FE3C
:10269000422003F055FE1D2003F052FED12003F02E
:1026A00061FE002003F04CFE1A2003F049FE0920D1
:1026B00003F046FED22003F055FE11E00010024068
:1026C00000100140000C014000000140DE17002016
:1026D000204C43442049443A25780D0A000000006C
:1026E000012003F02DFE222003F02AFEC02003F07B
:1026F00039FE102003F024FE3B2003F021FE0020D1
:1027000003F01EFE022003F01BFE112003F018FE52
:10271000C52003F027FE032003F012FEC82003F0BB
:1027200021FE002003F00CFE252003F009FE2120ED
:1027300003F006FE052003F003FE002003F000FE78
:102740000A2003F0FDFD652003F0FAFD252003F0CB
:10275000F7FD772003F0F4FD502003F0F1FD0F208A
:1027600003F0EEFD002003F0EBFDF82003F0FAFD8E
:10277000012000E03DE003F0E3FDFE2003F0F2FD68
:10278000002003F0DDFD022003F0DAFD202003F03D
:10279000E9FD362003F0E6FD082003F0D1FD3A20E4
:1027A00003F0E0FD552003F0CBFD2B2003F0DAFD14
:1027B000002003F0C5FD002003F0C2FD012003F05E
:1027C000BFFD3F2003F0BCFD2A2003F0CBFD00201D
:1027D00003F0B6FD002003F0B3FD012003F0B0FDCF
:1027E000DF2003F0ADFD7820FEF7AEF8292001F0E0
:1027F000FBBE48457ED1ED2003F0B4FD012003F07F
:102800009FFDFE2003F09CFDEE2003F0ABFDDE20DB
:1028100003F096FD212003F093FDF12003F0A2FDCB
:10282000012003F08DFDDF2003F09CFD102003F05C
:1028300087FDC42003F096FD8F2003F081FDC620A4
:1028400003F090FD002003F07BFDE22003F078FD13
:10285000E22003F075FDE22003F072FDBF2003F0DB
:1028600081FDAA2003F06CFDB02003F07BFD0D205C
:1028700003F066FD002003F063FD0D2003F060FD12
:10288000002003F05DFD112003F05AFD002003F04D
:1028900057FD192003F054FD002003F051FD2120C5
:1028A00003F04EFD002003F04BFD2D2003F048FD0A
:1028B000002003F045FD3D2003F042FD002003F021
:1028C0003FFD5D2003F03CFD002003F039FD5D205D
:1028D00003F036FD002003F033FDB12003F042FD8C
:1028E000802003F02DFD002003F02AFD8B2003F053
:1028F00027FD00E0FDE3002003F022FD962003F019
:102900001FFD002003F01CFDB22003F02BFD002072
:1029100003F016FD002003F013FD022003F010FD6C
:10292000002003F00DFD032003F00AFD002003F05A
:1029300007FDB32003F016FD002003F001FD002089
:1029400003F0FEFC002003F0FBFC002003F0F8FC89
:10295000002003F0F5FC002003F0F2FC002003F05F
:10296000EFFC002003F0ECFC002003F0E9FC002069
:1029700003F0E6FC002003F0E3FC002003F0E0FCA1
:10298000002003F0DDFC002003F0DAFC002003F05F
:10299000D7FC002003F0D4FC002003F0D1FC002081
:1029A00003F0CEFC002003F0CBFC002003F0C8FCB9
:1029B000002003F0C5FC002003F0C2FC002003F05F
:1029C000BFFC002003F0BCFCB42003F0CBFC8B2048
:1029D00003F0B6FC002003F0B3FC962003F0B0FC3B
:1029E000002003F0ADFCA12003F0AAFC002003F0BE
:1029F000A7FCB52003F0B6FC022003F0A1FC0020E8
:102A000003F09EFC032003F09BFC002003F098FCE5
:102A1000042003F095FC002003F092FCB62003F0A4
:102A2000A1FC002003F08CFC002003F089FCB720FF
:102A300003F098FC002003F083FC002003F080FCEE
:102A40003F2003F07DFC002003F07AFC5E2003F0C1
:102A500077FC002003F074FC642003F071FC00207C
:102A600003F06EFC8C2003F06BFC002003F068FC8C
:102A7000AC2003F065FC002003F062FCDC2003F0D6
:102A80005FFC002003F05CFC702003F059FC002088
:102A900003F056FC902003F053FC002003F050FCA0
:102AA000EB2003F04DFC002003F04AFCDC2003F097
:102AB00047FC002003F044FCB82003F053FC002046
:102AC00003F03EFC002003F03BFC002003F038FC48
:102AD000002003F035FC002003F032FC002003F05E
:102AE0002FFC002003F02CFC002003F029FCBA206E
:102AF00003F038FC242003F023FC002003F020FC2A
:102B0000002003F01DFC002003F01AFCC12003F09C
:102B100029FC202003F014FC002003F011FC5420B9
:102B200003F00EFC002003F00BFCFF2003F008FC78
:102B3000002003F005FCC22003F014FC0A2003F07F
:102B4000FFFB002003F0FCFB042003F0F9FB002056
:102B500003F0F6FBC32003F005FC3C2003F0F0FB80
:102B6000002003F0EDFB3A2003F0EAFB002003F025
:102B7000E7FB392003F0E4FB002003F0E1FB372002
:102B800003F0DEFB002003F0DBFB3C2003F0D8FB6E
:102B9000002003F0D5FB362003F0D2FB002003F029
:102BA000CFFB322003F0CCFB002003F0C9FB2F2029
:102BB00003F0C6FB002003F0C3FB2C2003F0C0FB96
:102BC000002003F0BDFB292003F0BAFB002003F036
:102BD000B7FB262003F0B4FB002003F0B1FB242058
:102BE00003F0AEFB002003F0ABFB242003F0A8FBB6
:102BF000002003F0A5FB232003F0A2FB002003F03C
:102C00009FFB3C2003F09CFB002003F099FB362047
:102C100003F096FB002003F093FB322003F090FBBF
:102C2000002003F08DFB2F2003F08AFB002003F02F
:102C300087FB2C2003F084FB002003F081FB29207C
:102C400003F07EFB002003F07BFB262003F078FBE3
:102C5000002003F075FB242003F072FB002003F03A
:102C60006FFB242003F06CFB002003F069FB2320A2
:102C700003F066FB002003F063FBC42003F072FB4B
:102C8000622003F05DFB002003F05AFB052003F0F7
:102C900057FB002003F054FB842003F051FB00207D
:102CA00003F04EFBF02003F04BFB002003F048FB49
:102CB000182003F045FB002003F042FBA42003F0A2
:102CC0003FFB002003F03CFB182003F039FB002001
:102CD00003F036FB502003F033FB002003F030FB01
:102CE0000C2003F02DFB002003F02AFB172003F03B
:102CF00027FB002003F024FB952003F021FB00209C
:102D000003F01EFBF32003F01BFB002003F018FB75
:102D1000E62003F015FB002003F012FBC52003F0B2
:102D200021FB322003F00CFB002003F009FB4420C0
:102D300003F006FB002003F003FB652003F000FB1B
:102D4000002003F0FDFA762003F0FAFA002003F0E9
:102D5000F7FA882003F0F4FA002003F0F1FAC62015
:102D600003F000FB202003F0EBFA002003F0E8FA68
:102D7000172003F0E5FA002003F0E2FA012003F047
:102D8000DFFA002003F0DCFAC72003F0EBFA0020A2
:102D900003F0D6FA002003F0D3FA002003F0D0FAB3
:102DA000002003F0CDFAC82003F0DCFA002003F085
:102DB000C7FA002003F0C4FA002003F0C1FA002093
:102DC00003F0BEFAC92003F0CDFA002003F0B8FAF0
:102DD000002003F0B5FA002003F0B2FA002003F05F
:102DE000AFFA002003F0ACFA002003F0A9FA0020AB
:102DF00003F0A6FA002003F0A3FA002003F0A0FAE3
:102E0000002003F09DFA002003F09AFA002003F05E
:102E100097FA002003F094FA002003F091FA0020C2
:102E200003F08EFA002003F08BFAE02003F09AFA08
:102E3000162003F085FA002003F082FA1C2003F02C
:102E40007FFA002003F07CFA212003F079FA0020B9
:102E500003F076FA362003F073FA002003F070FADC
:102E6000462003F06DFA002003F06AFA522003F0C6
:102E700067FA002003F064FA642003F061FA00208E
:102E800003F05EFA7A2003F05BFA002003F058FAB0
:102E90008B2003F055FA002003F052FA992003F03A
:102EA0004FFA002003F04CFAA82003F049FA002062
:102EB00003F046FAB92003F043FA002003F040FA89
:102EC000C42003F03DFA002003F03AFACA2003F0D0
:102ED00037FA002003F034FAD22003F031FA002050
:102EE00003F02EFAD92003F02BFA002003F028FA81
:102EF000E02003F025FA002003F022FAF32003F08B
:102F00001FFA002003F01CFAE12003F02BFA162030
:102F100003F016FA002003F013FA1C2003F010FA55
:102F2000002003F00DFA222003F00AFA002003F03B
:102F300007FA362003F004FA002003F001FA4520D6
:102F400003F0FEF9002003F0FBF9522003F0F8F93A
:102F5000002003F0F5F9642003F0F2F9002003F0FB
:102F6000EFF97A2003F0ECF9002003F0E9F98B2067
:102F700003F0E6F9002003F0E3F9992003F0E0F90B
:102F8000002003F0DDF9A82003F0DAF9002003F0B7
:102F9000D7F9B92003F0D4F9002003F0D1F9C42007
:102FA00003F0CEF9002003F0CBF9CA2003F0C8F9F2
:102FB000002003F0C5F9D22003F0C2F9002003F08D
:102FC000BFF9D82003F0BCF9002003F0B9F9E020E4
:102FD00003F0B6F9002003F0B3F9F32003F0B0F9E1
:102FE000002003F0ADF9E22003F0BCF9052003F066
:102FF000A7F9002003F0A4F90B2003F0A1F90020A9
:1030000003F09EF91B2003F09BF9002003F098F9D0
:10301000342003F095F9002003F092F9442003F0E6
:103020008FF9002003F08CF94F2003F089F900207C
:1030300003F086F9612003F083F9002003F080F9A2
:10304000792003F07DF9002003F07AF9882003F05D
:1030500077F9002003F074F9972003F071F900204C
:1030600003F06EF9A62003F06BF9002003F068F975
:10307000B72003F065F9002003F062F9C22003F0E5
:103080005FF9002003F05CF9C72003F059F9002034
:1030900003F056F9D12003F053F9002003F050F962
:1030A000D62003F04DF9002003F04AF9DD2003F0AB
:1030B00047F9002003F044F9F32003F041F9002020
:1030C00003F03EF9E32003F04DF9052003F038F951
:1030D000002003F035F90A2003F032F9002003F054
:1030E0002FF91C2003F02CF9002003F029F93320DC
:1030F00000E0FAE203F024F9002003F021F9442073
:1031000003F01EF9002003F01BF9502003F018F91A
:10311000002003F015F9622003F012F9002003F0FB
:103120000FF9782003F00CF9002003F009F988204A
:1031300003F006F9002003F003F9972003F000F9EB
:10314000002003F0FDF8A62003F0FAF8002003F0B9
:10315000F7F8B72003F0F4F8002003F0F1F8C220EC
:1031600003F0EEF8002003F0EBF8C72003F0E8F8D6
:10317000002003F0E5F8D12003F0E2F8002003F08E
:10318000DFF8D52003F0DCF8002003F0D9F8DD20CB
:1031900003F0D6F8002003F0D3F8F32003F0D0F8C2
:1031A000002003F0CDF8E42003F0DCF8012003F068
:1031B000C7F8002003F0C4F8012003F0C1F8002094
:1031C00003F0BEF8022003F0BBF8002003F0B8F8CB
:1031D0002A2003F0B5F8002003F0B2F83C2003F0F9
:1031E000AFF8002003F0ACF84B2003F0A9F8002062
:1031F00003F0A6F85D2003F0A3F8002003F0A0F888
:10320000742003F09DF8002003F09AF8842003F066
:1032100097F8002003F094F8932003F091F8002031
:1032200003F08EF8A22003F08BF8002003F088F85A
:10323000B32003F085F8002003F082F8BE2003F0ED
:103240007FF8002003F07CF8C42003F079F8002018
:1032500003F076F8CD2003F073F8002003F070F847
:10326000D32003F06DF8002003F06AF8DD2003F0AE
:1032700067F8002003F064F8F32003F061F8002001
:1032800003F05EF8E52003F06DF8002003F058F835
:10329000002003F055F8002003F052F8002003F05E
:1032A0004FF8022003F04CF8002003F049F82920E1
:1032B00003F046F8002003F043F83C2003F040F808
:1032C000002003F03DF84B2003F03AF8002003F013
:1032D00037F85D2003F034F8002003F031F8742053
:1032E00003F02EF8002003F02BF8842003F028F8D8
:1032F000002003F025F8932003F022F8002003F0CB
:103300001FF8A22003F01CF8002003F019F8B320E6
:1033100003F016F8002003F013F8BE2003F010F8B5
:10332000002003F00DF8C42003F00AF8002003F099
:1033300007F8CD2003F004F8002003F001F8D320B3
:1033400002F0FEFF002002F0FBFFDC2002F0F8FF9D
:10335000002002F0F5FFF32002F0F2FF002002F05F
:10336000EFFFE62002F0FEFF112002F0E9FF00204F
:1033700002F0E6FF342002F0E3FF002002F0E0FF5D
:10338000562002F0DDFF002002F0DAFF762002F086
:10339000D7FF002002F0D4FF772002F0D1FF0020F9
:1033A00002F0CEFF662002F0CBFF002002F0C8FF43
:1033B000882002F0C5FF002002F0C2FF992002F031
:1033C000BFFF002002F0BCFFBB2002F0B9FF0020CD
:1033D00002F0B6FF992002F0B3FF002002F0B0FF28
:1033E000662002F0ADFF002002F0AAFF552002F097
:1033F000A7FF002002F0A4FF552002F0A1FF00204B
:1034000002F09EFF452002F09BFF002002F098FF93
:10341000432002F095FF002002F092FF442002F0CA
:103420008FFF002002F08CFFE72002F09BFF32208C
:1034300002F086FF002002F083FF552002F080FF9B
:10344000002002F07DFF762002F07AFF002002F0DB
:1034500077FF662002F074FF002002F071FF672002
:1034600002F06EFF002002F06BFF672002F068FFA1
:10347000002002F065FF872002F062FF002002F0CA
:103480005FFF992002F05CFF002002F059FFBB2093
:1034900002F056FF002002F053FF992002F050FF87
:1034A000002002F04DFF772002F04AFF002002F0DA
:1034B00047FF442002F044FF002002F041FF562065
:1034C00002F03EFF002002F03BFF232002F038FF15
:1034D000002002F035FF332002F032FF002002F01E
:1034E0002FFF452002F02CFF002002F029FFE820EA
:1034F00002F038FF002002F023FF002002F020FF3E
:10350000992002F01DFF002002F01AFF872002F030
:1035100017FF002002F014FF882002F011FF0020A6
:1035200002F00EFF772002F00BFF002002F008FFF0
:10353000662002F005FF002002F002FF882002F062
:10354000FFFE002002F0FCFEAA2002F0F9FE00209F
:1035500002F0F6FEBB2002F0F3FE002002F0F0FEC7
:10356000992002F0EDFE002002F0EAFE662002F053
:10357000E7FE002002F0E4FE552002F0E1FE00200C
:1035800002F0DEFE552002F0DBFE002002F0D8FE45
:10359000442002F0D5FE002002F0D2FE442002F0CA
:1035A000CFFE002002F0CCFE552002F0C9FE002024
:1035B00002F0C6FEE92002F0D5FEAA2002F0C0FE0D
:1035C000002002F0BDFE002002F0BAFE002002F052
:1035D000B7FE002002F0C6FEAA2002F0B1FECF2006
:1035E00002F0C0FE002002F0ABFE002002F0A8FEB8
:1035F000002002F0A5FE002002F0A2FE002002F052
:103600009FFE002002F09CFE002002F099FE0020A8
:1036100002F096FE002002F093FE002002F090FEE1
:10362000002002F08DFE002002F08AFE002002F051
:1036300087FE002002F084FE002002F081FE0020C0
:1036400002F07EFE002002F07BFEF02002F08AFEF7
:10365000002002F075FE502002F072FE002002F001
:103660006FFE002002F06CFE002002F069FEF320E5
:1036700002F078FE002002F063FEF92002F072FEF4
:10368000062002F05DFE102002F05AFE292002F012
:1036900057FE002002F054FE3A2002F063FE55204F
:1036A00002F04EFE112002F05DFE6420FDF74CF9A1
:1036B000292002F057FE352002F054FE002002F0CF
:1036C0003FFE512002F04EFEFF2002F039FE532053
:1036D00002F048FE2C2002F033FE552002F042FE9C
:1036E000822002F02DFE2C20FDE3A8427DD14FF474
:1036F00070445521204602F04DFE651CAA21284643
:1037000002F048FEA61C5221304602F043FEE71CA0
:103710000821384602F03EFE4FF2040801214046DF
:1037200002F038FE0D214FF4304002F033FE0D213F
:103730004BF2010002F02EFE0D214BF2020002F0CE
:1037400029FE4FF436493421484602F023FE342145
:103750004BF2016002F01EFE34214BF2026002F0D7
:1037600019FE4FF4314B0D21584602F013FE0D2186
:103770004BF2011002F00EFE0D214BF2021002F08E
:1037800009FE34214FF4374002F004FE34214BF29D
:10379000017002F0FFFD34214BF2027002F0FAFDDD
:1037A00000214FF4324002F0F5FD00214BF20120E0
:1037B00002F0F0FD00214BF2022002F0EBFD24218B
:1037C0004FF4384002F0E6FD24214BF6010002F0F0
:1037D000E1FD24214BF6020002F0DCFD01214FF453
:1037E0003F4002F0D7FD0F2100E0FDE34FF43340EE
:1037F00002F0D0FD0F214BF2013002F0CBFD0F2182
:103800004BF2023002F0C6FD34214FF4394002F091
:10381000C1FD34214BF6011002F0BCFD34214BF602
:10382000021002F0B7FD08214FF4354002F0B2FD5E
:1038300008214BF2015002F0ADFD08214BF202507D
:1038400002F0A8FD03214FF4424002F0A3FD242121
:103850004FF43A4002F09EFD24214BF6012002F085
:1038600099FD24214BF6022002F094FD00214FF433
:103870003C4002F08FFD78214BF6014002F08AFDBA
:1038800000214BF6024002F085FD00214FF43D403F
:1038900002F080FD78214BF6015002F07BFD002103
:1038A0004BF6025002F076FD00214FF43E4002F04C
:1038B00071FD64214BF6016002F06CFD00214FF4B4
:1038C000514002F067FD33214DF2011002F062FD1C
:1038D00000214DF2021002F05DFD34214DF2031083
:1038E00002F058FD00214DF2041002F053FD3A2180
:1038F0004DF2051002F04EFD00214DF2061002F0CF
:1039000049FD4A214DF2071002F044FD00214DF21D
:10391000081002F03FFD5C214DF2091002F03AFD63
:1039200000214DF20A1002F035FD81214DF20B10FD
:1039300002F030FD00214DF20C1002F02BFDA6210B
:103940004DF20D1002F026FD00214DF20E1002F096
:1039500021FDE5214DF20F1002F01CFD01214DF279
:10396000101002F017FD13214DF2111002F012FD9C
:1039700001214DF2121002F00DFD54214DF21310F1
:1039800002F008FD01214DF2141002F003FD822126
:103990004DF2151002F0FEFC01214DF2161002F05E
:1039A000F9FCCA214DF2171002F0F4FC02214DF28D
:1039B000181002F0EFFC00214DF2191002F0EAFCA1
:1039C00002214DF21A1002F0E5FC01214DF21B100C
:1039D00002F0E0FC02214DF21C1002F0DBFC34216D
:1039E0004DF21D1002F0D6FC02214DF21E1002F025
:1039F000D1FC67214DF21F1002F0CCFC02214DF2E8
:103A0000201002F0C7FC84214DF2211002F0C2FC0C
:103A100002214DF2221002F0BDFCA4214DF2231030
:103A200002F0B8FC02214DF2241002F0B3FCB721E1
:103A30004DF2251002F0AEFC02214DF2261002F0EC
:103A4000A9FCCF214DF2271002F0A4FC02214DF277
:103A5000281002F09FFCDE214DF2291002F09AFCA2
:103A600002214DF22A1002F095FCF2214DF22B10AA
:103A700002F090FC02214DF22C1002F08BFCFE2192
:103A80004DF22D1002F086FC03214DF22E1002F0B3
:103A900081FC10214DF22F1002F07CFC03214DF22D
:103AA000301002F077FC33214DF2311002F072FC3D
:103AB00003214DF2321002F06DFC6D214DF23310F6
:103AC00002F068FC00214FF4524002F063FC332105
:103AD0004DF2012002F05EFC00214DF2022002F0C6
:103AE00059FC34214DF2032002F054FC00214DF228
:103AF000042002F04FFC3A214DF2052002F04AFC6E
:103B000000214DF2062002F045FC4A214DF207202B
:103B100002F040FC00214DF2082002F03BFC5C2149
:103B20004DF2092002F036FC00214DF20A2002F08D
:103B300031FC81214DF20B2002F02CFC00214DF2D2
:103B40000C2002F027FCA6214DF20D2002F022FCF1
:103B500000214DF20E2002F01DFCE5214DF20F2058
:103B600002F018FC01214DF2102002F013FC132189
:103B70004DF2112002F00EFC01214DF2122002F054
:103B800009FC54214DF2132002F004FC01214DF2F6
:103B9000142002F0FFFB82214DF2152002F0FAFB07
:103BA00001214DF2162002F0F5FBCA214DF217203B
:103BB00002F0F0FB02214DF2182002F0EBFB002195
:103BC0004DF2192002F0E6FB02214DF21A2002F01C
:103BD000E1FB01214DF21B2002F0DCFB02214DF242
:103BE0001C2002F0D7FB34214DF21D2002F0D2FB45
:103BF00002214DF21E2002F0CDFB67214DF21F2065
:103C000002F0C8FB02214DF2202002F0C3FB842108
:103C10004DF2212002F0BEFB02214DF2222002F0E3
:103C2000B9FBA4214DF2232002F0B4FB02214DF296
:103C3000242002F0AFFBB7214DF2252002F0AAFBB1
:103C400002214DF2262002F0A5FBCF214DF22720C4
:103C500002F0A0FB02214DF2282002F09BFBDE21A6
:103C60004DF2292002F096FB02214DF22A2002F0AB
:103C700091FBF2214DF22B2002F08CFB02214DF240
:103C80002C2002F087FBFE214DF22D2002F082FB5A
:103C900003214DF22E2002F07DFB10214DF22F204A
:103CA00002F078FB03214DF2302002F073FB332148
:103CB0004DF2312002F06EFB03214DF2322002F072
:103CC00069FB6D214DF2332002F064FB00214FF4BB
:103CD000534002F05FFB33214DF2013002F05AFBFA
:103CE00000214DF2023002F055FB34214DF2033039
:103CF00002F050FB00214DF2043002F04BFB3A2160
:103D00004DF2053002F046FB00214DF2063002F084
:103D100041FB4A214DF2073002F03CFB00214DF2FD
:103D2000083002F037FB5C214DF2093002F032FB23
:103D300000214DF20A3002F02DFB81214DF20B30B3
:103D400002F028FB00214DF20C3002F023FBA621EB
:103D50004DF20D3002F01EFB00214DF20E3002F04C
:103D600019FBE5214DF20F3002F014FB01214DF259
:103D7000103002F00FFB13214DF2113002F00AFB5C
:103D800001214DF2123002F005FB54214DF21330A7
:103D900002F000FB01214DF2143002F0FBFA822107
:103DA0004DF2153002F0F6FA01214DF2163002F014
:103DB000F1FACA214DF2173002F0ECFA02214DF26D
:103DC000183002F0E7FA00214DF2193002F0E2FA61
:103DD00002214DF21A3002F0DDFA01214DF21B30C2
:103DE00002F0D8FA02214DF21C3002F0D3FA34214D
:103DF0004DF21D3002F0CEFA02214DF21E3002F0DB
:103E0000C9FA67214DF21F3002F0C4FA02214DF2C7
:103E1000203002F0BFFA84214DF2213002F0BAFACC
:103E200002214DF2223002F0B5FAA4214DF22330E6
:103E300002F0B0FA02214DF2243002F0ABFAB721C1
:103E40004DF2253002F0A6FA02214DF2263002F0A2
:103E5000A1FACF214DF2273002F09CFA02214DF257
:103E6000283002F097FADE214DF2293002F092FA62
:103E700002214DF22A3002F08DFAF2214DF22B3060
:103E800002F088FA02214DF22C3002F083FAFE2172
:103E90004DF22D3002F07EFA03214DF22E3002F069
:103EA00079FA10214DF22F3002F074FA03214DF20D
:103EB000303002F06FFA33214DF2313002F06AFAFD
:103EC00003214DF2323002F065FA6D214DF23330AC
:103ED00002F060FA00214FF4544002F05BFA332103
:103EE0004DF2014000E07FE302F054FA00214DF270
:103EF000024002F04FFA34214DF2034002F04AFA38
:103F000000214DF2044002F045FA3A214DF20540FD
:103F100002F040FA00214DF2064002F03BFA4A213D
:103F20004DF2074002F036FA00214DF2084002F04F
:103F300031FA5C214DF2094002F02CFA00214DF2D9
:103F40000A4002F027FA81214DF20B4002F022FADA
:103F500000214DF20C4002F01DFAA6214DF20D4059
:103F600002F018FA00214DF20E4002F013FAE5219A
:103F70004DF20F4002F00EFA01214DF2104002F016
:103F800009FA13214DF2114002F004FA01214DF219
:103F9000124002F0FFF954214DF2134002F0FAF9F9
:103FA00001214DF2144002F0F5F982214DF2154045
:103FB00002F0F0F901214DF2164002F0EBF9CA21AE
:103FC0004DF2174002F0E6F902214DF2184002F0DE
:103FD000E1F900214DF2194002F0DCF902214DF225
:103FE0001A4002F0D7F900E002E301214DF21B4034
:103FF00002F0D0F902214DF21C4002F0CBF934213D
:104000004DF21D4002F0C6F902214DF21E4002F0B1
:10401000C1F967214DF21F4002F0BCF902214DF2B7
:10402000204002F0B7F984214DF2214002F0B2F9AC
:1040300002214DF2224002F0ADF9A4214DF22340BD
:1040400002F0A8F902214DF2244002F0A3F9B721B1
:104050004DF2254002F09EF902214DF2264002F079
:1040600099F9CF214DF2274002F094F902214DF247
:10407000284002F08FF9DE214DF2294002F08AF942
:1040800002214DF22A4002F085F9F2214DF22B4037
:1040900002F080F902214DF22C4002F07BF9FE2162
:1040A0004DF22D4002F076F903214DF22E4002F040
:1040B00071F910214DF22F4002F06CF903214DF2FD
:1040C000304002F067F933214DF2314002F062F9DD
:1040D00003214DF2324002F05DF96D214DF2334083
:1040E00002F058F900214FF4554002F053F9332102
:1040F0004DF2015002F04EF900214DF2025002F053
:1041000049F934214DF2035002F044F900214DF2F7
:10411000045002F03FF93A214DF2055002F03AF90D
:1041200000214DF2065002F035F94A214DF20750B8
:1041300002F030F900214DF2085002F02BF95C2119
:104140004DF2095002F026F900214DF20A5002F01A
:1041500021F981214DF20B5002F01CF900214DF2A2
:104160000C5002F017F9A6214DF20D5002F012F991
:1041700000214DF20E5002F00DF9E5214DF20F50E5
:1041800002F008F901214DF2105002F003F9132159
:104190004DF2115002F0FEF801214DF2125002F0E2
:1041A000F9F854214DF2135002F0F4F801214DF2C8
:1041B000145002F0EFF882214DF2155002F0EAF8A7
:1041C00001214DF2165002F0E5F8CA214DF21750C8
:1041D00002F0E0F802214DF2185002F0DBF8002165
:1041E0004DF2195002F0D6F802214DF21A5002F0A9
:1041F000D1F801214DF21B5002F0CCF802214DF212
:104200001C5002F0C7F834214DF21D5002F0C2F8E4
:1042100002214DF21E5002F0BDF867214DF21F50F1
:1042200002F0B8F802214DF2205002F0B3F88421D8
:104230004DF2215002F0AEF802214DF2225002F070
:10424000A9F8A4214DF2235002F0A4F802214DF266
:10425000245002F09FF8B7214DF2255002F09AF851
:1042600002214DF2265002F095F8CF214DF2275051
:1042700002F090F802214DF2285002F08BF8DE2176
:104280004DF2295002F086F802214DF22A5002F038
:1042900081F8F2214DF22B5002F07CF802214DF210
:1042A0002C5002F077F8FE214DF22D5002F072F8FA
:1042B00003214DF22E5002F06DF810214DF22F50D7
:1042C00002F068F803214DF2305002F063F8332118
:1042D0004DF2315002F05EF803214DF2325002F0FF
:1042E00059F86D214DF2335002F054F800214FF48B
:1042F000564002F04FF833214DF2016002F04AF8C7
:1043000000214DF2026002F045F834214DF20360C5
:1043100002F040F800214DF2046002F03BF83A212F
:104320004DF2056002F036F800214DF2066002F011
:1043300031F84A214DF2076002F02CF800214DF2CD
:10434000086002F027F85C214DF2096002F022F8C3
:1043500000214DF20A6002F01DF881214DF20B6040
:1043600002F018F800214DF20C6002F013F8A621BB
:104370004DF20D6002F00EF800214DF20E6002F0D9
:1043800009F8E5214DF20F6002F004F801214DF229
:10439000106001F0FFFF13214DF2116001F0FAFFF0
:1043A00001214DF2126001F0F5FF54214DF213602E
:1043B00001F0F0FF01214DF2146001F0EBFF8221CA
:1043C0004DF2156001F0E6FF01214DF2166001F09B
:1043D000E1FFCA214DF2176001F0DCFF02214DF22E
:1043E000186001F0D7FF00214DF2196001F0D2FFF3
:1043F00002214DF21A6001F0CDFF01214DF21B6048
:1044000001F0C8FF02214DF21C6001F0C3FF34210E
:104410004DF21D6001F0BEFF02214DF21E6001F061
:10442000B9FF67214DF21F6001F0B4FF02214DF288
:10443000206001F0AFFF84214DF2216001F0AAFF5E
:1044400002214DF2226001F0A5FFA4214DF223606C
:1044500001F0A0FF02214DF2246001F09BFFB72183
:104460004DF2256001F096FF02214DF2266001F029
:1044700091FFCF214DF2276001F08CFF02214DF218
:10448000286001F087FFDE214DF2296001F082FFF4
:1044900002214DF22A6001F07DFFF2214DF22B60E6
:1044A00001F078FF02214DF22C6001F073FFFE2134
:1044B0004DF22D6001F06EFF03214DF22E6001F0F0
:1044C00069FF10214DF22F6001F064FF03214DF2CE
:1044D000306001F05FFF33214DF2316001F05AFF8F
:1044E00003214DF2326001F055FF6D214DF2336032
:1044F00001F050FF5521204601F04CFFAA2128462B
:1045000001F048FF5221304601F044FF08213846AF
:1045100001F040FF0021404601F03CFFCC2158460D
:1045200001F038FF00214BF2011001F033FF0521AB
:10453000484601F02FFF70214FF4374001F02AFF69
:1045400070214BF2017001F025FF01214FF438403A
:1045500001F020FF03214BF6010001F01BFF0321B6
:104560004BF6020001F016FF03214BF6030001F0A9
:1045700011FF02214FF43C4001F00CFF00214BF6EB
:10458000014001F007FF00214BF6024001F002FF5D
:10459000D0214FF4494001F0FDFE02214CF60110FC
:1045A00001F0F8FE50214CF6021001F0F3FE50210C
:1045B0004CF6031001F0EEFE50214CF6041001F011
:1045C000E9FE00214FF4545001F0E4FE55214FF470
:1045D000685001F0DFFE4FF4885001F0C3FE7820F0
:1045E00004F0BCF94FF4245001F0BCFE01F053BAC2
:1045F000A0F513414FF480774FF4E06640F20228B3
:1046000040F23F144FF42749253933D0F51DA0F56A
:10461000134128397DD0A0F513414FF48879203912
:1046200078D0A0F513414FF4007B313973D0A0F559
:10463000A841083970D0A0F5A8514FF44079053948
:104640006BD0A0F53541053968D0A0F54541053955
:1046500065D0A0F5094189397DD0A0F58A4131396D
:104660007AD0A0F58A41353977D0A0F5C8516339A1
:1046700074D0BBE747F6F001E52001F08BFE394628
:10468000012001F087FE3146022001F083FE41F255
:104690003001032001F07EFE0021042001F07AFEAB
:1046A0004146082001F076FE0021092001F072FE4B
:1046B00000210A2001F06EFE00210C2001F06AFEAC
:1046C00000210D2001F066FE00210F2001F062FEA6
:1046D0000021102001F05EFE0721112001F05AFE9A
:1046E0000021122001F056FE0021132001F052FE9D
:1046F0000021072001F04EFE41F29061102001F0F0
:1047000049FE40F22721112001F044FE9D21122094
:1047100006E087E042E1E6E1B9E254E3FEE3FEE3CE
:1047200001F038FE4FF4C851132001F033FE25216B
:10473000292001F02FFE0D212B2001F02BFE072157
:10474000302001F027FE40F20331312001F022FE3B
:104750000321322003E0FDE3FDE3FDE3FDE301F08F
:1047600019FE40F20621352001F014FE0821362002
:1047700001F010FE40F20641372001F00BFE4FF42D
:104780004171382001F006FE0721392001F002FEB8
:1047900040F202613C2001F0FDFD08213D2001F0C6
:1047A000F9FD0021502001F0F5FDEF21512001F02D
:1047B000F1FD0021522001F0EDFD2146532001F0D2
:1047C000E9FD4946602001F0E5FD0121612001F08D
:1047D000E1FD00216A2001F0DDFD0021802001F0D3
:1047E000D9FD0021812001F0D5FD0021822001F0BA
:1047F000D1FD0021832001F0CDFD0021842001F0B6
:10480000C9FD0021852001F0C5FD1021902001F097
:10481000C1FD4FF4C061922001F0BCFD40F23311A4
:104820000720FDE341F28F01EC2001F0B3FD41F2DE
:104830003421EF2001F0AEFD3946012001F0AAFD40
:104840003146022001F0A6FD41F23001032001F0C3
:10485000A1FD0021042001F09DFD4146082001F04A
:1048600099FD0021092001F095FD00210A2001F0A9
:1048700091FD01210C2001F08DFD00210D2001F0A2
:1048800089FD00210F2001F085FD0021102001F09D
:1048900081FD0721112001F07DFD0021122001F092
:1048A00079FD0021132001F075FD0121072001F0A1
:1048B00071FD3220FCF748F841F29041102001F0E0
:1048C00069FD40F22721112001F064FD3220FCF740
:1048D0003BF88A21122001F05DFD3220FCF734F80C
:1048E0004FF4D051132001F055FD0621292001F08D
:1048F00051FD0D212B2001F04DFD3220FCF724F855
:104900000021202001F046FD0021212001F042FD80
:104910003220FCF719F80021302001F03BFD40F275
:104920000461312001F036FD40F20531322001F002
:1049300031FD0021352001F02DFD40F609413620E2
:1049400001F028FD4FF40171372001F023FD40F202
:104950000131382001F01EFD2946392001F01AFDF1
:1049600000213C2001F016FD40F60A213D2001F017
:1049700011FD3220FBF7E8FF0021502001F00AFD75
:10498000EF21512001F006FD0021522001F002FD2F
:104990002146532001F0FEFC49464DE10021084626
:1049A00001F0F8FC3946012001F0F4FC3146022008
:1049B00001F0F0FC41F23001032001F0EBFC00219A
:1049C000042001F0E7FC4146082001F0E3FC00214F
:1049D000092001F0DFFC00210A2001F0DBFC0121AD
:1049E0000C2001F0D7FC00210D2001F0D3FC0021A8
:1049F0000F2001F0CFFC3220FBF7A6FF40F201119F
:104A0000072001F0C7FC3220FBF79EFF4FF48651D0
:104A1000102001F0BFFC0721112001F0BBFC4D4626
:104A20004946122001F0B6FC4FF43061132001F02A
:104A3000B1FC0021292001F0ADFC44F210012B2033
:104A400001F0A8FC0021502001F0A4FCEF2151202E
:104A500001F0A0FC0021522001F09CFC21465320D3
:104A600001F098FC4FF41C51602001F093FC0121EF
:104A7000612001F08FFC00216A2001F08BFC0021F5
:104A8000802001F087FC0021812001F083FC0021BF
:104A9000822001F07FFC0021832001F07BFC0021BB
:104AA000842001F077FC0021852001F073FC1021A7
:104AB000902001F06FFC0021922001F06BFC01219D
:104AC000932001F067FC2946952001F063FC00214A
:104AD000972001F05FFC0021982001F05BFC40F280
:104AE000731107207EE341F21401E72001F052FC2C
:104AF0003946012001F04EFC5946022001F04AFCE3
:104B000041F23801032001F045FC4146082001F044
:104B100041FC0021092001F03DFC00210A2001F0A8
:104B200039FC00210C2001F035FC00210D2001F0A2
:104B300031FC00210F2001F02DFC0021102001F09C
:104B400029FC0721112001F025FC0021122001F091
:104B500021FC0021132001F01DFCC820FBF7F4FE0E
:104B600041F29061102001F015FC40F22721112044
:104B700001F010FC3220FBF7E7FE0C21122001F0BF
:104B800009FC3220FBF7E0FE4FF40061132001F036
:104B900001FC1121292001F0FDFB0B212B2001F04C
:104BA000F9FB3220FBF7D0FE0021202001F0F2FBC0
:104BB0002146212001F0EEFB0021302001F0EAFB2C
:104BC0004FF483763146312001F0E4FB002132209E
:104BD00001F0E0FB4FF40171352001F0DBFB41F205
:104BE0000A61362001F0D6FB2946372001F0D2FBBE
:104BF0003146382001F0CEFB2946392001F0CAFBAE
:104C000040F202413C2001F0C5FB40F60F413D203F
:104C100001F0C0FB0021502001F0BCFBEF2151202E
:104C200001F0B8FB0021522001F0B4FB21465320D3
:104C300001F0B0FB4FF41C51602001F0ABFB0121EF
:104C4000612001F0A7FB00216A2001F0A3FB0021F5
:104C5000802001F09FFB0021812001F09BFB0021BF
:104C6000822001F097FB0021832001F093FB0021BB
:104C7000842001F08FFB0021852001F08BFB1021A7
:104C8000902001F087FB4FF4C0619220FEE339468B
:104C9000012001F07FFB3146022001F07BFB41F255
:104CA0003001032001F076FB0021042001F072FBAB
:104CB00040F20721082001F06DFB0021092001F0DE
:104CC00069FB00210A2001F065FB00210C2001F0A6
:104CD00061FB00210D2001F05DFB00210F2001F0A0
:104CE00059FB1420FBF730FE41F2B061102001F0B7
:104CF00051FB0121112001F04DFB0121172001F092
:104D000049FB4FF49C71122001F044FB4FF4006109
:104D1000132001F03FFB0921292001F03BFB092171
:104D20002A2001F037FB0021A42001F033FB0021F1
:104D3000502001F02FFBEF21512001F02BFB00212F
:104D4000522001F027FB2146532001F023FB4FF4B2
:104D50001C51602001F01EFB0121612001F01AFBB3
:104D600000216A2001F016FB0021802001F012FBD7
:104D70000021812001F00EFB0021822001F00AFBBE
:104D80000021832001F006FB0021842001F002FBBA
:104D90000021852001F0FEFA1321902001F0FAFA9B
:104DA0000021922001F0F6FA0321932001F0F2FA9B
:104DB0004946952001F0EEFA40F27311072001F008
:104DC000E9FA32200EE10021072001F0E3FA322057
:104DD000FBF7BAFD4FF48E71122001F0DBFA0121CE
:104DE000A42001F0D7FA0F21082001F0D3FA0821FE
:104DF0000A2001F0CFFA08210D2001F0CBFA294654
:104E0000302001F0C7FA0721312001F0C3FA40F247
:104E10000361322001F0BEFA3146332001F0BAFAC4
:104E20004146342001F0B6FA0221352001F0B2FAF1
:104E300041F60F71362001F0ADFA2946372001F016
:104E4000A9FA0021382001F0A5FA0021392001F04B
:104E5000A1FA29463A2001F09DFA00213B2001F0F9
:104E600099FA07213C2001F095FA00213D2001F03C
:104E700091FA3220FBF768FD0121072001F08AFA40
:104E80000121172001F086FA3220FBF75DFD4FF477
:104E9000BD51102001F07EFA40F21721112001F0DF
:104EA00079FA4FF48F71122001F074FA4FF47061A7
:104EB000132001F06FFA00212A2001F06BFA0A2179
:104EC000292001F067FA4FF49F71122001F062FA75
:104ED0000021502001F05EFAEF21512001F05AFA32
:104EE0000021522001F056FA2146532001F052FAD7
:104EF0004FF41C51602001F04DFA0121612001F0B6
:104F000049FA00216A2001F045FA0021802001F0D1
:104F100041FA0021812001F03DFA01E065E062E103
:104F20000021822001F036FA0021832001F032FABC
:104F30000021842001F02EFA0021852001F02AFAB8
:104F40001321902001F026FA4946922001F022FA1E
:104F5000052103E00FE2C3E277E3FDE3932001F0D4
:104F600019FA0021952001F015FA0021972001F08F
:104F700011FA0021982001F00DFA3946012001F0C4
:104F800009FA3146022001F005FA41F23801032006
:104F900001F000FA0021042001F0FCF900210C20AE
:104FA00001F0F8F900210F2001F0F4F90021202090
:104FB00001F0F0F90021212001F0ECF92121072076
:104FC00001F0E8F91420FBF7BFFC6121072001F094
:104FD000E1F91420FBF7B8FC40F27311072001F04F
:104FE000D9F91420FBF7B0FC2EE30021084601F0AC
:104FF000D1F90021084601F0CDF90021084601F061
:10500000C9F90021084601F0C5F90121A42001F0E9
:10501000C1F91420FBF798FC4FF41C59494600E0F5
:10502000DCE0602001F0B6F945464146082001F079
:10503000B1F94FF40571302001F0ACF943F215716C
:10504000312001F0A7F940F20461322001F0A2F909
:1050500040F61661332001F09DF942F2112134200F
:1050600001F098F94FF4A851352001F093F948F276
:105070000751362001F08EF941F20741372001F047
:1050800089F941F20341382001F084F920213920C7
:1050900001F080F91A21902001F07CF90021102004
:1050A00001F078F90721112001F074F90021122094
:1050B00001F070F90021132001F06CF91420FBF7C6
:1050C00043FC4FF4E661102001F064F940F237111F
:1050D000112001F05FF91420FBF736FC4FF4DC716E
:1050E000122001F057F91420FBF72EFC4FF47061E9
:1050F000132001F04FF980212A2001F04BF94821BB
:10510000292001F047F91420FBF71EFC3946012045
:1051100001F040F93146022001F03CF941F238013A
:10512000032001F037F92946082001F033F9002166
:105130000A2001F02FF900210C2001F02BF90021A9
:105140000D2001F027F930210E2001F023F9002174
:10515000502001F01FF9EF21512001F01BF900212F
:10516000522001F017F92146532001F013F9494666
:10517000602001F00FF90121612001F00BF90021FD
:105180006A2001F007F91121902001F003F94FF492
:10519000C061922001F0FEF840F20241932001F03C
:1051A000F9F80221942001F0F5F81420FBF7CCFB6C
:1051B0000121072001F0EEF81420FBF7C5FB612167
:1051C000072001F0E7F840F27311072001F0E2F840
:1051D0000021202001F0DEF80021212001F0DAF882
:1051E000222100202EE20021084601F0D3F8002100
:1051F000084601F0CFF81420FBF7A6FB0021084673
:1052000001F0C8F80021084601F0C4F80021084662
:1052100001F0C0F80021084601F0BCF80121A420EB
:1052200001F0B8F81420FBF78FFB4FF41C516020FD
:1052300001F0B0F840F60601082001F0ABF840F2AA
:1052400003763146302001F0A5F80121312001F02C
:10525000A1F80421322001F09DF84FF48171332030
:1052600001F098F84D464946342001F093F840F299
:105270000311352001F08EF81F21362001F08AF845
:105280003146372001F086F80121382001F082F8FC
:105290000421392001F07EF81521902001F07AF8E0
:1052A0004FF48261102001F075F840F2472111207F
:1052B00001F070F84FF4DE71122001F06BF84FF43A
:1052C0006061132001F066F87820FBF73DFB39465A
:1052D000012001F05FF85946022001F05BF841F22D
:1052E0003001032001F056F808210A2001F052F89D
:1052F00000210C2001F04EF820210E2001F04AF888
:1053000000210F2001F046F80021202001F042F892
:105310000021212001F03EF83D212A2001F03AF839
:105320001420FBF711FB2D21292001F033F8002177
:10533000502001F02FF84DF2EF01512001F02AF832
:105340000021522001F026F82146532001F022F8D6
:105350000021612001F01EF800216A2001F01AF8F6
:105360002946922001F016F80521932001F012F849
:105370003946FFF7B6BB0121002001F00BF84AF6D1
:10538000A401032001F006F800210C2001F002F82E
:1053900040F60C010D2000F0FDFF4FF42C510E20C3
:1053A00000F0F8FFB0211E2000F0F4FF42F63F317C
:1053B000012000F0EFFF4FF4C061022000F0EAFF8F
:1053C0000021102000F0E6FF46F27801112000F0E5
:1053D000E1FF0021052000F0DDFF0021062000F0A4
:1053E000D9FF4EF61C71162000F0D4FF03211720C0
:1053F00000F0D0FF40F23321072000F0CBFF002166
:105400000B2000F0C7FF00210F2000F0C3FF002198
:10541000412000F0BFFF0021422000F0BBFF00212F
:10542000482000F0B7FF2146492000F0B3FF0021DB
:105430004A2000F0AFFF00214B2000F0ABFF4FF4FB
:105440006F41442000F0A6FF0021452000F0A2FF9C
:105450002146462000F09EFF2946302000F09AFFAA
:105460004FF401742146312000F094FF2146322090
:1054700000F090FF40F202552946332000F08AFFE9
:10548000691D342000F086FF214600E082E13520CE
:1054900000F080FF2146362000F07CFF29463720AF
:1054A00000F078FF40F2023421463A2000F072FF0B
:1054B00021463B2000F06EFF0021232000F06AFF10
:1054C0000021242000F066FF4FF40041252000F069
:1054D00061FF00214F2000F05DFF00214E20B1E070
:1054E0000121002000F056FF0A20FBF72DFA41F2BF
:1054F0002861102000F04EFF0E21122000F04AFF1C
:1055000040F63921132000F045FF0A20FBF71CFA72
:105510004021112000F03EFF5021152000F03AFFFD
:105520000A20FBF711FA1E21122000F033FF0A2097
:10553000FBF70AFA4FF4B151102000F02BFF42F6AE
:105540003921132000F026FF0A20FBF7FDF9394628
:10555000012000F01FFF4946022000F01BFF41F22E
:105560003801032000F016FF4146082000F012FF2A
:1055700008210A2000F00EFF0021302000F00AFF71
:1055800040F20241312000F005FF4FF483713220D8
:1055900000F000FF40F20351332000F0FBFE4FF417
:1055A0008271342000F0F6FE40F20131352000F027
:1055B000F1FE2946362000F0EDFE40F2053137209D
:1055C00000F0E8FE4FF40271382000F0E3FE40F6F0
:1055D0000B71392000F0DEFE0221412000F0DAFEDE
:1055E0004FF41C51602000F0D5FE0121612000F035
:1055F000D1FE4FF40471902000F0CCFE4FF4857181
:10560000922000F0C7FE0421932000F0C3FE39462B
:10561000A02000F0BFFE0121072000F0BBFE2121E9
:10562000072000F0B7FE2321072000F0B3FE33214E
:10563000072000F0AFFE40F23311072000F0AAFE71
:105640000021A02000F0A6FE25E23021152000F068
:10565000A1FE10219A2000F09DFE2021112000F0D3
:1056600099FE43F22841102000F094FE02211220FE
:1056700000F090FE41F23801132000F08BFE28204C
:10568000FBF762F91221084600F084FE2820FBF7A0
:105690005BF943F22041102000F07CFE43F2380118
:1056A000132000F077FE4620FBF74EF90021302052
:1056B00000F070FE40F20241312000F06BFE40F23B
:1056C0000731322000F066FE4FF44171332000F0C4
:1056D00061FE0421342000F05DFE40F201413520DE
:1056E00000F058FE2946362000F054FE40F2053105
:1056F000372000F04FFE4FF4C2642146382000F0FE
:1057000049FE2146392000F045FE3946012000F0CF
:1057100041FE4946022000F03DFE41F230010320E7
:1057200000F038FE40F60801082000F033FE0821A2
:105730000A2000F02FFE4FF41C51602000F02AFEDA
:105740000121612000F026FE4FF49F71902000F0AF
:1057500021FE3946922000E021E000F01BFE394690
:10576000932000F017FE4FF44051A02000F012FEED
:105770001021A32000F00EFE0121072000F00AFEF8
:105780002121072000F006FE2321072000F002FE61
:105790003321072000F0FEFD40F23311E9E5E2205D
:1057A00000F0E0FDC24C27615D46C4F814B0DFF89C
:1057B00004831D21C8F80010802666612661C4F8A4
:1057C00010B02761C4F814B00220C8F80000666168
:1057D0002661C4F810B0276165610420C8F8000094
:1057E000666126612561642003F0B8F8E02000F0CE
:1057F000B9FD27616561C8F800A066612661256171
:105800000A20FBF7A1F8E02000F0ACFD27616561FC
:105810004FF0030BC8F800B06661266125610C20CB
:10582000FBF792F8012000F09DFD0A20FBF78CF8B1
:10583000E62000F097FD276165612F21C8F8001070
:1058400066612661256127616561FF20C8F8000057
:1058500066612661256127616561C8F8000066619F
:1058600026612561B02000F07DFD27616561202162
:10587000C8F80010666126612561276165614FF0F7
:105880000009C8F80090666126612561276165619D
:10589000C8F800B06661266125612761656140F244
:1058A0001F31C8F8001066612661256127616561B6
:1058B000C8F800A06661266125612761656140F234
:1058C000DF11C8F8001066612661256127616561F6
:1058D000C8F80090666126612561B42000F042FDA1
:1058E000276165610420C8F80000666126612561B2
:1058F0002761656140F21F41C8F8001066612661AA
:10590000256127616561C8F800906661266125619F
:10591000276165612E21C8F8001066612661256146
:10592000276165614146C8F800906661266125617E
:1059300027616561C8F8009066612661256127616D
:105940006561C8F80090666126612561276165611F
:10595000C1F80090666126612561B62000F002FD65
:10596000276165610220C8F8000066612661256133
:10597000276165614FF40371C8F800106661266104
:10598000256127616561C8F800906661266125611F
:10599000276165611721C8F80010666126612561DD
:1059A000276165611521C8F80010666126612561CF
:1059B00027616561C8F800906661266125612761ED
:1059C0006561C8F80090666126612561F02000F0ED
:1059D000C9FC27616561C8F800B066612661256170
:1059E000292000F0BFFCD02000F0BCFC27616561DD
:1059F000C8F80090666126612561BE2000F0B2FC07
:105A0000276165610521C8F800106661266125617E
:105A100027616561FE21C8F8001066612661256175
:105A2000276165614146C8F800A06661266125616D
:105A300027616561C8F8009066612661256127616C
:105A40006561C8F80090666126612561276165611E
:105A5000C1F80090666126612561B82000F082FCE3
:105A600027616561C8F800B066612661256127611C
:105A70006561C8F800A0666126612561BA2000F062
:105A800071FC27616561C8F800A066612661256127
:105A9000642000F053F80020FCF74CFA0649C1F8E6
:105AA000A8A14FF6FF70FCF703FA05B0BDE8F08F30
:105AB000001001400C0C0140000022422DE9F0478B
:105AC000DFF85C904FF08830C9F8000009F1040558
:105AD0002860134E00200C363060124CA81520614F
