:020000040800F2
:1000000090070020D5010008F75800086F1300087A
:10001000F5580008C1050008595C00080000000000
:100020000000000000000000000000001B59000854
:10003000C3050008000000001959000861590008B4
:10004000EF010008EF010008EF010008EF010008D0
:10005000EF010008EF010008EF010008EF010008C0
:10006000EF010008EF010008EF010008EF010008B0
:10007000EF010008EF010008EF010008EF010008A0
:10008000EF010008EF010008EF010008EF01000890
:10009000EF010008EF010008EF010008EF01000880
:1000A000EF010008EF010008EF010008EF01000870
:1000B000EF010008EF010008EF010008EF01000860
:1000C000EF010008EF010008EF010008EF01000850
:1000D000EF0100082D5C0008EF010008EF010008A7
:1000E000EF010008EF010008EF010008EF01000830
:1000F000EF010008EF010008EF010008EF01000820
:10010000EF010008EF010008EF010008EF0100080F
:10011000EF010008EF010008EF010008EF010008FF
:10012000EF010008EF010008EF010008EF010008EF
:1001300000F002F800F03FF80AA090E8000C8244BA
:100140008344AAF10107DA4501D100F034F8AFF297
:10015000090EBAE80F0013F0010F18BFFB1A43F0A5
:1001600001031847C4770000E4770000103A24BF69
:1001700078C878C1FAD8520724BF30C830C144BF0C
:1001800004680C607047000000230024002500264E
:10019000103A28BF78C1FBD8520728BF30C148BFEA
:1001A0000B607047782900F07F80002070471FB5F2
:1001B0001FBD10B510BD00F0D1F91146FFF7F7FFD4
:1001C00005F092FD00F0EFF903B4FFF7F2FF03BC76
:1001D00005F04AFD0948804709480047FEE7FEE769
:1001E000FEE7FEE7FEE7FEE7FEE7FEE7FEE7FEE7E7
:1001F00004480549054A064B704700006559000848
:100200003101000890010020900700209003002099
:1002100090030020704700000FB4044910B503AAF2
:10022000029800F085F910BC5DF814FB1000002066
:100230000FB41CB5074B06AA7B446946009005988D
:1002400000F05DF90020694600F06CF91CBC5DF817
:1002500014FB0000E902000070B5044685690068DF
:10026000C10601D5302600E02026C00707D070BDAA
:10027000D4E9012130469047206A401C20626D1E5F
:10028000F6D570BD70B5044685690078C00707D102
:1002900070BDD4E9012120209047206A401C2062D3
:1002A0006D1EF6D570BD000070B504460D462146A2
:1002B0001068AFF300802188090502D50F4A7A44FF
:1002C00002E00E4A7A440E32002104F1240305E0D4
:1002D00000F00F060009965D5E54491C0028F7D116
:1002E00020780023000704D5702D02D009B1022325
:1002F00011322046BDE8704000F0A2B82A76000016
:100300002DE9F05F894604464FF0000ADFF824B17A
:10031000FB44C0F820A02046E168884700287DD033
:10032000252806D0D4E901219047206A401C20628C
:10033000F1E700255F462046E16888472028064609
:1003400007DB312E05D2B81910F8200C08B105438F
:10035000F1E7A80701D525F00405C4F81CA0002783
:10036000C4F818A02A2E09D0304605F076FC38B320
:1003700004EB8708303EC8F8186019E059F8041BF0
:10038000204604EB87029161E1688847012F064609
:1003900018D1E069002820DA25F020051DE0D8F802
:1003A000180000EB800006EB40003038C8F8180059
:1003B0002046E1688847064605F04FFC0028EED14C
:1003C000012F0AD02E2E08D12046E16888477F1CD5
:1003D0000646022F45F02005C4DBA069002803DA99
:1003E000404245F00105A061E80701D025F0100565
:1003F000A6B1A6F14100192802D8203645F40065BF
:100400004A463146204625604D46FFF7CBFE60B197
:10041000012807D0ED1D25F0070000E007E000F1FE
:10042000080978E705F1040975E730467AE7206A9C
:10043000BDE8F09F00760000704770477047704736
:100440002DE9F0470D4699469246044600F12408EE
:100450000168880604D5E06921F01001216000E000
:100460000120A84201DD471B00E00027A1697A199D
:1004700002EB0900081AA0612078C00602D42046C9
:10048000FFF7EAFE002608E0D4E901211AF8060089
:100490009047206A401C761C20624E45F4DB207891
:1004A000C0060AD52046FFF7D7FE06E0D4E90121B1
:1004B00030209047206A401C2062381EA7F10107B7
:1004C000F4DC07E0D4E9012118F805009047206A20
:1004D000401C2062281EA5F10105F3DC2046FFF731
:1004E000D1FE2078000602D50220BDE8F087012069
:1004F000FBE7000001694A1C02610878704700B5FB
:100500008FB0CDE901310021059105497944CDE94C
:10051000031011466846FFF7F3FE0FB000BD000060
:10052000E5FFFFFF0A6802F8010B0A607047000050
:10053000074B70B50D467B44FFF7E1FF04462846A4
:1005400000F008F810B14FF0FF3070BD204670BDCC
:1005500097570000007B00F080007047754600F060
:100560002BF8AE4605006946534620F00700854645
:1005700018B020B5FFF73CFEBDE820404FF0000664
:100580004FF000074FF000084FF0000B21F007017B
:10059000AC46ACE8C009ACE8C009ACE8C009ACE8BE
:1005A000C0098D46704710B50446AFF30080204661
:1005B000BDE81040FFF708BE00487047300100203A
:1005C000FEE7704731B500F005F9044600F002F986
:1005D0000099001B8842F9D338BD00002DE9F84F7F
:1005E000DFF8BC91002309F1040A0AF1040B1C4650
:1005F0004FF00F080BF1040E01270A68A7403A409C
:10060000BA4272D1DFF89CC14D68A5EB0C06654576
:100610002BD00DDC032D34D005DC35B3012D19D0E2
:10062000022D2FD11BE0112D16D0122D2AD119E049
:10063000B6F5881F19D006DCB6F5803F15D0B6F5A3
:10064000801F1FD111E0B6F5001F0ED0B6F5041FB4
:1006500018D10AE0CB6815E0CB681B1D12E0CB680F
:1006600008330FE0CB680C330CE08B682BB1012B07
:100670004FF0080303D0476104E0042302E0076160
:1006800000E00023FF2A01D8064601E000F104063D
:100690004FEA840501D9A5F12005376808FA05FC61
:1006A00027EA0C0703FA05F547EA050737604D68A6
:1006B000ED006ED53C4DAE6946F00106AE61AD6908
:1006C00024F0030605F001050095384D7719BE6842
:1006D000A5072D0F08FA05FC26EA0C06DFF8D0C0A6
:1006E000604503D14FF0000C25E052E0DFF8C4C0B4
:1006F000604502D14FF0010C1DE0DFF8BCC0604541
:1007000002D14FF0020C16E0DFF8B0C0604502D114
:100710004FF0030C0FE0DFF8A8C0604502D14FF0A6
:10072000040C08E0DFF89CC0604502D14FF0050CD6
:1007300001E04FF0060C0CFA05FC4CEA060CC7F879
:1007400008C04D68D9F80060ED034D4601D5164349
:1007500000E096432E604D68DAF80060AD03554620
:1007600001D5164300E096432E604D68DBF800602B
:10077000ED025D4601D5164300E096432E604D68BC
:10078000DEF80060AD02754601D5164300E09643E1
:100790002E60641C102CFFF42FAFBDE8F88F000012
:1007A0000004014000001110001002400000014050
:1007B00000080140000C01400010014000140140FD
:1007C00000180140001C01400AB101617047090492
:1007D000FBE70000014800687047000004000020AB
:1007E00002480168491C01607047000004000020B5
:1007F000074810B5016841F010010160032000F0C6
:1008000047F80F2000F006F800F015F8002010BDA2
:100810000020024010B5044600F00CF94FF47A7144
:10082000B0FBF1F000F049FC00222146501E00F020
:100830000FF8002010BD704700F01F020121914009
:100840004009800000F1E020C0F80011704700006E
:10085000F0B40E4B1B68C3F30223C3F10704042C4E
:1008600000D904241D1D072D01D2002300E0DB1E4A
:10087000012606FA04F56D1E0D409D409E40761E31
:10088000164045EA0601F0BC05F036B80CED00E074
:10089000064A00F0070110684FF6FF03184040EACF
:1008A0000120034908431060704700000CED00E090
:1008B0000000FA052DE9F047DFF8688104460E468E
:1008C000D8F8000000F00700B0420CD2D8F80010B1
:1008D00021F007013143C8F80010D8F8000000F0FB
:1008E0000700B04273D120784F4F800705D5786854
:1008F000A16820F0F000084378602078C00755D048
:100900006068012201280CD0022828D0022393FA23
:10091000A3F1B1FA81F141F02001490904D039680D
:1009200003E04FF40033F2E7796A93FAA3F3B3FAE2
:1009300083F303F01F039A40114248D0796821F0F5
:10094000030101437960FFF745FF0546606841F206
:10095000883101280CD00228894615D022E04FF0BA
:100960000073D4E7FFF736FF411B494501D916E074
:1009700089467868C0F381000128F3D116E0FFF7BB
:1009800029FF411B49450AD87868C0F38100022835
:10099000F5D10BE0FFF71EFF411B494502D90320AB
:1009A000BDE8F087786810F00C0FF3D1D8F800108C
:1009B000404601F00701B1420BD9016821F007015F
:1009C00031430160006800F00700B04201D001200F
:1009D000E6E72078400705D57868E16820F4E06014
:1009E000084378602078000706D57868216920F4EC
:1009F000605040EAC100786000F052F87968F02257
:100A000092FAA2F201F0F001B2FA82F2D140074A62
:100A1000515CC840064908600F20FFF7FBFE00202C
:100A2000BEE70000002002400010024014610008F0
:100A3000000000200148006870470000000000200E
:100A400008480949006849684FF4E06292FAA2F246
:100A500001F4E061B2FA82F2D140044A515CC8402C
:100A600070470000000000200010024024610008D0
:100A700008480949006849684FF4605292FAA2F2A6
:100A800001F46051B2FA82F2D140044A515CC8408C
:100A900070470000000000200010024024610008A0
:100AA00010B519A085B00FC88DE80F001AA01B4B18
:100AB0000068049059681A4801F00C02042A1DD0FD
:100AC000082A1BD14FF4701494FAA4F401F47012A4
:100AD000B4FA84F4E240C9031DF8022010D5596825
:100AE0004FF4003393FAA3F301F40031B3FA83F324
:100AF000D94004AB595CB0FBF1F0504305B010BDD8
:100B000008485043FAE700000203040506070809F5
:100B10000A0B0C0D0E0F1010010200000010024015
:100B200000127A0000093D002DE9F84F04460078D4
:100B3000FE4EC0074FF001057FD070684FF40038BB
:100B4000C0F38100012807D07068C0F3810002283B
:100B50001BD17068C00318D598FAA8F0B0FA80F0DD
:100B600040F02000400901D0306800E0706A98FA37
:100B7000A8F1B1FA81F101F01F0105FA01F1084273
:100B80005BD06068002879D057E06068B0F5803F9E
:100B90000BD010B1B0F5A02F11D0306820F4803008
:100BA0003060306820F4802002E0306840F480300B
:100BB0003060606818B3FFF70DFE074609E0306843
:100BC00040F480203060F0E7FFF704FEC01B64288B
:100BD00070D898FAA8F0B0FA80F040F020004009F0
:100BE00001D0306800E0706A98FAA8F1B1FA81F19A
:100BF00001F01F0105FA01F10842E5D01DE0FFF701
:100C0000E9FD074604E0FFF7E5FDC01B6428DFD8D7
:100C100098FAA8F0B0FA80F040F02000400901D026
:100C2000306800E0706A98FAA8F1B1FA81F101F039
:100C30001F0105FA01F10842E5D12078DFF8F082C2
:100C400080074FF0000A4FF002075AD570684FF046
:100C5000F80B10F00C0F07D07068C0F38100022869
:100C60001CD17068C00319D497FAA7F0B0FA80F0CD
:100C700040F02000400902D0306801E08AE0706A4C
:100C800097FAA7F1B1FA81F101F01F0105FA01F11C
:100C900008422BD0206901287CD127E0206988B345
:100CA00095FAA5F0B0FA80F048F82050FFF792FDD1
:100CB000814606E04DE1FFF78DFDA0EB090002281B
:100CC00086D897FAA7F0B0FA80F040F020004009EB
:100CD00001D0306800E0706A97FAA7F1B1FA81F1AB
:100CE00001F01F0105FA01F10842E4D030689BFAD7
:100CF000ABF220F0F8016069B2FA82F29040014351
:100D0000316025E0FFE795FAA5F1B1FA81F148F8E5
:100D100021A0FFF75FFD814605E0FFF75BFDA0EB3B
:100D200009000228CCD897FAA7F0B0FA80F040F07A
:100D30002000400901D0306800E0706A97FAA7F1FE
:100D4000B1FA81F101F01F0105FA01F10842E4D185
:100D5000207800076DD5A069B8B395FAA5F0B0FA70
:100D600080F008EB8000C0F88054FFF733FD814627
:100D700005E0FFF72FFDA0EB09000228A0D897FAA5
:100D8000A7F0B0FA80F040F06000B5EB501F02D140
:100D900030680CE063E197FAA7F0B0FA80F040F019
:100DA0006000B7EB501F01D1306A00E0706A97FA1B
:100DB000A7F1B1FA81F101F01F0105FA01F2104229
:100DC000D7D00120FFF7FEFB33E0FFE795FAA5F14E
:100DD000B1FA81F108EB8101C1F880A4FFF7FAFCB8
:100DE000814605E0FFF7F6FCA0EB0900022899D840
:100DF00097FAA7F0B0FA80F040F06000B5EB501F12
:100E000001D130680BE097FAA7F0B0FA80F040F01B
:100E10006000B7EB501F01D1306A00E0706A97FAAA
:100E2000A7F1B1FA81F101F01F0105FA01F21042B8
:100E3000D8D12078400763D5F06940F08050F06148
:100E4000F069DFF8F0B000F080500090DBF800109F
:100E500041F48071CBF80010FFF7BCFC814605E03F
:100E6000FFF7B8FCA0EB0900642872D8DBF800009B
:100E7000C005F5D5E06801280AD008B1052813D0CF
:100E8000306A20F001003062306A20F0040002E095
:100E9000306A40F001003062E06841F2883B80B384
:100EA000FFF798FC81460AE0306A40F004003062A7
:100EB000EEE7FFF78FFCA0EB0901594549D897FAF7
:100EC000A7F0B0FA80F040F04000B5EB501F01D120
:100ED00030680BE097FAA7F0B0FA80F040F04000DD
:100EE000B7EB501F01D1306A00E0706A97FAA7F1A2
:100EF000B1FA81F101F01F0205FA02F10842D8D0DF
:100F000033E0FFE7FFF766FC814605E0FFF762FC90
:100F1000A0EB090159451CD897FAA7F0B0FA80F068
:100F200040F04000B5EB501F08D105E00010024032
:100F3000000042420070004030680CE097FAA7F0D1
:100F4000B0FA80F040F04000B7EB501F02D1306A99
:100F500001E08AE0706A97FAA7F1B1FA81F101F035
:100F60001F0205FA02F10842D0D1E06998B3716816
:100F7000C1F38101022972D002284FF080714FF035
:100F8000007B50460AD091FAA1F1B1FA81F148F8FC
:100F90002100FFF71FFC04465F4669E08A4691FA8C
:100FA000A1F1B1FA81F1C14648F82100FFF712FC26
:100FB000A84607465D4604E0FFF70CFCC01B02286C
:100FC00053D895FAA5F0B0FA80F040F0200040091F
:100FD00002D0306801E060E0706A95FAA5F1B1FADC
:100FE00081F101F01F0208FA02F10842E4D1206AFF
:100FF000B0F5803F05D17068A16820F40030084347
:101000007060D4E908010843716821F47411084341
:1010100070609AFAAAF0B0FA80F0474649F820804A
:10102000FFF7D8FB044604E0FFF7D4FB001B0228BF
:101030001BD895FAA5F0B0FA80F040F020004009E6
:1010400001D0306800E0706A95FAA5F1B1FA81F13B
:1010500001F01F0107FA01F10842E5D01DE01EE092
:10106000FFF7B8FB001B022802D90320BDE8F88F68
:1010700097FAA7F0B0FA80F040F02000400901D0C4
:10108000306800E0706A97FAA7F1B1FA81F101F0D7
:101090001F0105FA01F10842E2D10020E6E7012034
:1010A000E4E74FF0E0210428086903D020F00400B1
:1010B0000861704740F00400FAE710B5401EB0F137
:1010C000807F01D3012010BD4FF0E02460610F212B
:1010D000601704F011FC0020A061072020610020AF
:1010E00010BD704790F83900704738B50446006865
:1010F0000168C268C1F3000102F4807221B11AB123
:10110000E16B41F00101E1630168C1F34002416913
:1011100001F0010122B119B1E26B42F00402E26375
:101120000268C2F3800222B119B1E26B42F00202FE
:10113000E2630268C2F3C00222B119B1E16B41F06F
:101140000801E1630168C068C1F3401100F02000AC
:1011500019B110B1204604F029FC20680168C0686C
:10116000C1F3C01100F0800019B110B1204604F0A5
:1011700029FD21680868CA68C0F3801002F04002A7
:10118000012568B162B1CA68204622F04002CA60F7
:1011900094F83910322910D080F8395000F0E6F870
:1011A000E06B002808D0206801684068009084F84F
:1011B00039502046FFF795FF38BD222180F83910BD
:1011C000ECE770B5040004D094F83900002510B1A4
:1011D00006E0012070BD84F83850204600F020F869
:1011E000022084F839002068C16821F40051C160F0
:1011F000204604F02FFC2068016921F49041016130
:101200002068416921F02A0141612068C16841F4E8
:101210000051C160E563012084F83900002070BDF1
:1012200010B500681E4986B0884236D11D488169D4
:1012300041F004018161816901F004010491816937
:1012400041F480418161816901F4804104918169A7
:1012500041F0010181618069134C00F001000490AC
:101260004FF40070009002200190012002900320B2
:10127000039069462046FFF7B1F92115009100213E
:10128000019169462046FFF7A9F92520FFF7D4FA16
:10129000032211462520FFF7DBFA06B010BD00003F
:1012A00000380140001002400008014090F8393039
:1012B000012B01D0122B2BD131B32AB390F8383047
:1012C000012B25D0012380F8383081628285C285C8
:1012D0000021C16390F83920122A17D0222280F809
:1012E000392080F838100168CA6842F48072CA60F8
:1012F00001684A6942F001024A610068C16841F030
:101300002001C16000207047012070473222E6E7CB
:101310000220704730B50068114988420CD1114A4B
:101320005088010408D41146440409784FF00003A2
:1013300006D50A2901D0538030BD40F400400DE0AD
:101340000D2909D0C0F30D04074D401C80B229556A
:101350005080C728EFD830BD40F48040508030BD69
:10136000003801400C000020180000207047FEE704
:101370002DE9F0431C4F0646002438887D884543FC
:10138000B888A0F5D041043902D1B87901280CD031
:101390000021084603F0FAFF04F056FA13494FF40F
:1013A00080774B15124A80201AE00020B8714FF068
:1013B0002A08A7F80A804FF02B09A7F80C900146DD
:1013C00003F0E4FF0120B871A7F80A90A7F80C8099
:1013D000E2E70F614B611660486108610B61641CB4
:1013E000AC42F6D3BDE8F08320010020001001409C
:1013F0000C0C01402DE9F04F4A492A232B248988FF
:1014000045F2105A4FF4305B4FF4285E4FF44875A4
:101410004FF0F00C49F241394FF4A07745F2103605
:101420004FF4F07280B13F484FF00108494580F811
:1014300006800780A0F802C001D0B1423ED12C2521
:1014400005814381848157E036484FF000084945C3
:1014500080F80680A0F800C0478006D0A1F5D04CE7
:10146000BCF1040C01D0B1420CD12C250581438183
:10147000A1F5D0438481043B01D0B14244D107801F
:10148000428041E0514507D1A0F808B0A0F80AE039
:101490004FF42C5181810EE0A1F5C856633E06D071
:1014A0002221018120214181212181812CE02C21D7
:1014B0000181448183810280458025E0A1F5D04CE3
:1014C000BCF1040C09D051450BD1A0F808B0A0F82C
:1014D0000AE04FF42C53838121E02C2505814481BF
:1014E00009E0A1F5C85CBCF1630C12D02223038192
:1014F0002123438120238381A1F5D043043B01D0E4
:10150000B14201D102804780BDE8F04F002003F0D6
:10151000C3BD4FF02C0CA0F808C043818481058026
:101520004280E9E7200100202DE9F74F0546904869
:1015300081B0DFF840A2818802982F0A00F0FF09ED
:101540004FEA1028E8B200908948A1F513424FF401
:10155000807B40894FF40076413A18D0844CA1F545
:10156000A642103A13D0A1F5AA42103A36D022462C
:10157000A1F5C85793791288521B521E633F63D05E
:10158000A1F5D047043F7DD0012B7CD0D1E004F001
:1015900049F9794CC4F810B06661CAF8007080252A
:1015A000656125612661C4F810B066610098CAF8CB
:1015B00000006561256126616D48808904F032F97B
:1015C000C4F810B066615146CAF8008065612561B3
:1015D0002661C4F810B06661484631E004F022F993
:1015E000654CC4F810B06661CAF80070802565616A
:1015F000256126615E484089401C80B204F012F9E2
:10160000C4F810B066610098CAF8000065612561F1
:1016100026615748808904F005F9C4F810B0666166
:10162000CAF8008065612561266151488089401CA7
:1016300080B204F0F7F8C4F810B06661484651462D
:1016400008606561256171E003B995B204F0EAF8BC
:10165000494CC4F810B06661280ACAF80000802717
:10166000676127612661C4F810B06661E9B2CAF803
:101670000010676127612661C4F810B06661CAF87E
:10168000000001E025E053E0676127612661C4F8AE
:1016900010B06661CAF8001067612761266134489E
:1016A000808904F0BFF8C4F810B066615146CAF8EA
:1016B0000080676127612661C4F810B06661CAF8CE
:1016C0000090676127612661C4F810B066614046EA
:1016D00021E0012B00D195B204F0A4F8264CC4F807
:1016E00010B06661290ACAF8001080276761276177
:1016F0002661C4F810B06661E9B2CAF800106761EB
:10170000276126611A48808904F08CF8C4F810B06B
:101710006661404651460860676127612661C4F8EA
:1017200010B06661C1F8009067612761266107E02B
:1017300095B2294604F08EF8A089029904F08AF83F
:101740000D48C0F814B0466109490989CAF800106B
:101750008021416101610661C0F810B04661039BC0
:10176000CAF80030416101610661BDE8FF8F0000E9
:10177000200100200C0C0140001001402DE9F04F29
:10178000FE4885B0816941F008018161816901F0FD
:1017900008010491816941F01001816180694FF075
:1017A000010A00F0100004904FF4F860CDE9000A3F
:1017B0000320CDE902A06946F148FEF70FFF4FF67E
:1017C000FF7000906946EF48FEF708FFEE48416859
:1017D00021F0E06141F080614160322004F050FA74
:1017E0000121002004F036F8322004F049FA0020EC
:1017F00003F0FCFBE54C49F2413746F60408A080B3
:1018000045F2103945F21055FF2806D3A0F57F4167
:10181000FF3902D0B0F5134F70D1D32004F002F895
:1018200003F0ACFB03F0AAFB03F0A8FB4FF6FF7636
:1018300006EA0020A08003F0A1FBA1880843A08055
:10184000B8425BD0BF2003F0EDFF03F097FB03F03D
:1018500095FB03F093FB03F091FB06EA0020A080C8
:1018600003F08CFBA1880843A080404546D0D420DB
:1018700003F0D8FF03F082FB03F080FB03F07EFB54
:1018800006EA0020A08003F079FBA1880843A0802D
:10189000484533D04FF45A4003F0C4FF03F06EFBC9
:1018A0004FF45B4003F0BEFF03F068FB06EA002044
:1018B000A0804FF45C4003F0B5FF03F05FFBA1880C
:1018C0000843A080B0F5004F7ED0A84216D0A120DA
:1018D00003F0A8FF03F052FBA08003F04FFB06EAE1
:1018E0000020A08003F04AFBA1880843A0F5AE4188
:1018F000A080613902D141F66310A080A188A4A024
:10190000FEF78AFCA088B8427ED1CF2003F08AFF80
:10191000002003F075FFC12003F072FF302003F0B8
:101920006FFFED2003F07EFF642003F069FF0320CA
:1019300003F066FF122003F063FF812003F060FFD5
:10194000E82003F06FFF852003F05AFF102003F01A
:1019500057FF7A2003F054FFCB2003F063FF3920B8
:1019600003F04EFF2C2003F04BFF002003F048FF54
:10197000342003F045FF022003F042FFF72003F07C
:1019800051FF202003F03CFFEA2003F04BFF002032
:1019900003F036FF002003F033FFC02003F042FFC6
:1019A0001B2003F02DFFC12003F03CFF012003F0BA
:1019B00027FFC52003F036FF302003F021FF302041
:1019C00003F01EFFC72000E0B2E003F02BFFB720BA
:1019D00003F016FF362003F025FF482003F010FF28
:1019E0003A2003F01FFF552003F00AFFB12003F057
:1019F00019FF002003F004FF1A2003F001FFB620B6
:101A000003F010FF0A2000E094E003F0F9FEA220AA
:101A100003F0F6FEF22003F005FF002003F0F0FED5
:101A2000262003F0FFFE012003F0EAFEE02003F091
:101A3000F9FE0F2003F0E4FE2A2003F0E1FE282047
:101A400003F0DEFE082003F0DBFE0E2003F0D8FEDC
:101A5000082003F0D5FE542003F0D2FEA92003F0A5
:101A6000CFFE432003F0CCFE0A2003F0C9FE0F2076
:101A700003F0C6FE002003F0C3FE002003F0C0FE0A
:101A8000002003F0BDFE002003F0BAFEE12003F0C9
:101A9000C9FE002003F0B4FE152003F0B1FE1720AC
:101AA00003F0AEFE072003F0ABFE112003F0A8FE0A
:101AB000062003F0A5FE2B2003F0A2FE562003F023
:101AC0009FFE3C2003F09CFE052003F099FE1020B1
:101AD00003F096FE0F2003F093FE3F2003F090FEEC
:101AE0003F2003F08DFE0F2003F08AFE2B2003F031
:101AF00099FE002003F084FE002003F081FE012007
:101B000003F07EFE3F2003F07BFE2A2003F08AFED6
:101B1000002003F075FE002003F072FE002003F0A9
:101B20006FFEEF2003F06CFE112003F07BFEBAE0A5
:101B3000A580E3E640457DD1112003F073FE14201B
:101B400004F09EF8D02003F06DFE072003F058FE4D
:101B5000422003F055FE1D2003F052FED12003F079
:101B600061FE002003F04CFE1A2003F049FE09201C
:101B700003F046FED22003F055FE11E000100240B3
:101B800000100140000C0140000001402001002035
:101B9000204C43442049443A25780D0A00000000B7
:101BA000012003F02DFE222003F02AFEC02003F0C6
:101BB00039FE102003F024FE3B2003F021FE00201C
:101BC00003F01EFE022003F01BFE112003F018FE9E
:101BD000C52003F027FE032003F012FEC82003F007
:101BE00021FE002003F00CFE252003F009FE212039
:101BF00003F006FE052003F003FE002003F000FEC4
:101C00000A2003F0FDFD652003F0FAFD252003F016
:101C1000F7FD772003F0F4FD502003F0F1FD0F20D5
:101C200003F0EEFD002003F0EBFDF82003F0FAFDD9
:101C3000012000E03DE003F0E3FDFE2003F0F2FDB3
:101C4000002003F0DDFD022003F0DAFD202003F088
:101C5000E9FD362003F0E6FD082003F0D1FD3A202F
:101C600003F0E0FD552003F0CBFD2B2003F0DAFD5F
:101C7000002003F0C5FD002003F0C2FD012003F0A9
:101C8000BFFD3F2003F0BCFD2A2003F0CBFD002068
:101C900003F0B6FD002003F0B3FD012003F0B0FD1A
:101CA000DF2003F0ADFD782003F0EAFF292001F0EA
:101CB000FBBE48457ED1ED2003F0B4FD012003F0CA
:101CC0009FFDFE2003F09CFDEE2003F0ABFDDE2027
:101CD00003F096FD212003F093FDF12003F0A2FD17
:101CE000012003F08DFDDF2003F09CFD102003F0A8
:101CF00087FDC42003F096FD8F2003F081FDC620F0
:101D000003F090FD002003F07BFDE22003F078FD5E
:101D1000E22003F075FDE22003F072FDBF2003F026
:101D200081FDAA2003F06CFDB02003F07BFD0D20A7
:101D300003F066FD002003F063FD0D2003F060FD5D
:101D4000002003F05DFD112003F05AFD002003F098
:101D500057FD192003F054FD002003F051FD212010
:101D600003F04EFD002003F04BFD2D2003F048FD55
:101D7000002003F045FD3D2003F042FD002003F06C
:101D80003FFD5D2003F03CFD002003F039FD5D20A8
:101D900003F036FD002003F033FDB12003F042FDD7
:101DA000802003F02DFD002003F02AFD8B2003F09E
:101DB00027FD00E0FDE3002003F022FD962003F064
:101DC0001FFD002003F01CFDB22003F02BFD0020BE
:101DD00003F016FD002003F013FD022003F010FDB8
:101DE000002003F00DFD032003F00AFD002003F0A6
:101DF00007FDB32003F016FD002003F001FD0020D5
:101E000003F0FEFC002003F0FBFC002003F0F8FCD4
:101E1000002003F0F5FC002003F0F2FC002003F0AA
:101E2000EFFC002003F0ECFC002003F0E9FC0020B4
:101E300003F0E6FC002003F0E3FC002003F0E0FCEC
:101E4000002003F0DDFC002003F0DAFC002003F0AA
:101E5000D7FC002003F0D4FC002003F0D1FC0020CC
:101E600003F0CEFC002003F0CBFC002003F0C8FC04
:101E7000002003F0C5FC002003F0C2FC002003F0AA
:101E8000BFFC002003F0BCFCB42003F0CBFC8B2093
:101E900003F0B6FC002003F0B3FC962003F0B0FC86
:101EA000002003F0ADFCA12003F0AAFC002003F009
:101EB000A7FCB52003F0B6FC022003F0A1FC002033
:101EC00003F09EFC032003F09BFC002003F098FC31
:101ED000042003F095FC002003F092FCB62003F0F0
:101EE000A1FC002003F08CFC002003F089FCB7204B
:101EF00003F098FC002003F083FC002003F080FC3A
:101F00003F2003F07DFC002003F07AFC5E2003F00C
:101F100077FC002003F074FC642003F071FC0020C7
:101F200003F06EFC8C2003F06BFC002003F068FCD7
:101F3000AC2003F065FC002003F062FCDC2003F021
:101F40005FFC002003F05CFC702003F059FC0020D3
:101F500003F056FC902003F053FC002003F050FCEB
:101F6000EB2003F04DFC002003F04AFCDC2003F0E2
:101F700047FC002003F044FCB82003F053FC002091
:101F800003F03EFC002003F03BFC002003F038FC93
:101F9000002003F035FC002003F032FC002003F0A9
:101FA0002FFC002003F02CFC002003F029FCBA20B9
:101FB00003F038FC242003F023FC002003F020FC75
:101FC000002003F01DFC002003F01AFCC12003F0E8
:101FD00029FC202003F014FC002003F011FC542005
:101FE00003F00EFC002003F00BFCFF2003F008FCC4
:101FF000002003F005FCC22003F014FC0A2003F0CB
:10200000FFFB002003F0FCFB042003F0F9FB0020A1
:1020100003F0F6FBC32003F005FC3C2003F0F0FBCB
:10202000002003F0EDFB3A2003F0EAFB002003F070
:10203000E7FB392003F0E4FB002003F0E1FB37204D
:1020400003F0DEFB002003F0DBFB3C2003F0D8FBB9
:10205000002003F0D5FB362003F0D2FB002003F074
:10206000CFFB322003F0CCFB002003F0C9FB2F2074
:1020700003F0C6FB002003F0C3FB2C2003F0C0FBE1
:10208000002003F0BDFB292003F0BAFB002003F081
:10209000B7FB262003F0B4FB002003F0B1FB2420A3
:1020A00003F0AEFB002003F0ABFB242003F0A8FB01
:1020B000002003F0A5FB232003F0A2FB002003F087
:1020C0009FFB3C2003F09CFB002003F099FB362093
:1020D00003F096FB002003F093FB322003F090FB0B
:1020E000002003F08DFB2F2003F08AFB002003F07B
:1020F00087FB2C2003F084FB002003F081FB2920C8
:1021000003F07EFB002003F07BFB262003F078FB2E
:10211000002003F075FB242003F072FB002003F085
:102120006FFB242003F06CFB002003F069FB2320ED
:1021300003F066FB002003F063FBC42003F072FB96
:10214000622003F05DFB002003F05AFB052003F042
:1021500057FB002003F054FB842003F051FB0020C8
:1021600003F04EFBF02003F04BFB002003F048FB94
:10217000182003F045FB002003F042FBA42003F0ED
:102180003FFB002003F03CFB182003F039FB00204C
:1021900003F036FB502003F033FB002003F030FB4C
:1021A0000C2003F02DFB002003F02AFB172003F086
:1021B00027FB002003F024FB952003F021FB0020E7
:1021C00003F01EFBF32003F01BFB002003F018FBC1
:1021D000E62003F015FB002003F012FBC52003F0FE
:1021E00021FB322003F00CFB002003F009FB44200C
:1021F00003F006FB002003F003FB652003F000FB67
:10220000002003F0FDFA762003F0FAFA002003F034
:10221000F7FA882003F0F4FA002003F0F1FAC62060
:1022200003F000FB202003F0EBFA002003F0E8FAB3
:10223000172003F0E5FA002003F0E2FA012003F092
:10224000DFFA002003F0DCFAC72003F0EBFA0020ED
:1022500003F0D6FA002003F0D3FA002003F0D0FAFE
:10226000002003F0CDFAC82003F0DCFA002003F0D0
:10227000C7FA002003F0C4FA002003F0C1FA0020DE
:1022800003F0BEFAC92003F0CDFA002003F0B8FA3B
:10229000002003F0B5FA002003F0B2FA002003F0AA
:1022A000AFFA002003F0ACFA002003F0A9FA0020F6
:1022B00003F0A6FA002003F0A3FA002003F0A0FA2E
:1022C000002003F09DFA002003F09AFA002003F0AA
:1022D00097FA002003F094FA002003F091FA00200E
:1022E00003F08EFA002003F08BFAE02003F09AFA54
:1022F000162003F085FA002003F082FA1C2003F078
:102300007FFA002003F07CFA212003F079FA002004
:1023100003F076FA362003F073FA002003F070FA27
:10232000462003F06DFA002003F06AFA522003F011
:1023300067FA002003F064FA642003F061FA0020D9
:1023400003F05EFA7A2003F05BFA002003F058FAFB
:102350008B2003F055FA002003F052FA992003F085
:102360004FFA002003F04CFAA82003F049FA0020AD
:1023700003F046FAB92003F043FA002003F040FAD4
:10238000C42003F03DFA002003F03AFACA2003F01B
:1023900037FA002003F034FAD22003F031FA00209B
:1023A00003F02EFAD92003F02BFA002003F028FACC
:1023B000E02003F025FA002003F022FAF32003F0D6
:1023C0001FFA002003F01CFAE12003F02BFA16207C
:1023D00003F016FA002003F013FA1C2003F010FAA1
:1023E000002003F00DFA222003F00AFA002003F087
:1023F00007FA362003F004FA002003F001FA452022
:1024000003F0FEF9002003F0FBF9522003F0F8F985
:10241000002003F0F5F9642003F0F2F9002003F046
:10242000EFF97A2003F0ECF9002003F0E9F98B20B2
:1024300003F0E6F9002003F0E3F9992003F0E0F956
:10244000002003F0DDF9A82003F0DAF9002003F002
:10245000D7F9B92003F0D4F9002003F0D1F9C42052
:1024600003F0CEF9002003F0CBF9CA2003F0C8F93D
:10247000002003F0C5F9D22003F0C2F9002003F0D8
:10248000BFF9D82003F0BCF9002003F0B9F9E0202F
:1024900003F0B6F9002003F0B3F9F32003F0B0F92C
:1024A000002003F0ADF9E22003F0BCF9052003F0B1
:1024B000A7F9002003F0A4F90B2003F0A1F90020F4
:1024C00003F09EF91B2003F09BF9002003F098F91C
:1024D000342003F095F9002003F092F9442003F032
:1024E0008FF9002003F08CF94F2003F089F90020C8
:1024F00003F086F9612003F083F9002003F080F9EE
:10250000792003F07DF9002003F07AF9882003F0A8
:1025100077F9002003F074F9972003F071F9002097
:1025200003F06EF9A62003F06BF9002003F068F9C0
:10253000B72003F065F9002003F062F9C22003F030
:102540005FF9002003F05CF9C72003F059F900207F
:1025500003F056F9D12003F053F9002003F050F9AD
:10256000D62003F04DF9002003F04AF9DD2003F0F6
:1025700047F9002003F044F9F32003F041F900206B
:1025800003F03EF9E32003F04DF9052003F038F99C
:10259000002003F035F90A2003F032F9002003F09F
:1025A0002FF91C2003F02CF9002003F029F9332027
:1025B00000E0FAE203F024F9002003F021F94420BE
:1025C00003F01EF9002003F01BF9502003F018F966
:1025D000002003F015F9622003F012F9002003F047
:1025E0000FF9782003F00CF9002003F009F9882096
:1025F00003F006F9002003F003F9972003F000F937
:10260000002003F0FDF8A62003F0FAF8002003F004
:10261000F7F8B72003F0F4F8002003F0F1F8C22037
:1026200003F0EEF8002003F0EBF8C72003F0E8F821
:10263000002003F0E5F8D12003F0E2F8002003F0D9
:10264000DFF8D52003F0DCF8002003F0D9F8DD2016
:1026500003F0D6F8002003F0D3F8F32003F0D0F80D
:10266000002003F0CDF8E42003F0DCF8012003F0B3
:10267000C7F8002003F0C4F8012003F0C1F80020DF
:1026800003F0BEF8022003F0BBF8002003F0B8F816
:102690002A2003F0B5F8002003F0B2F83C2003F044
:1026A000AFF8002003F0ACF84B2003F0A9F80020AD
:1026B00003F0A6F85D2003F0A3F8002003F0A0F8D3
:1026C000742003F09DF8002003F09AF8842003F0B2
:1026D00097F8002003F094F8932003F091F800207D
:1026E00003F08EF8A22003F08BF8002003F088F8A6
:1026F000B32003F085F8002003F082F8BE2003F039
:102700007FF8002003F07CF8C42003F079F8002063
:1027100003F076F8CD2003F073F8002003F070F892
:10272000D32003F06DF8002003F06AF8DD2003F0F9
:1027300067F8002003F064F8F32003F061F800204C
:1027400003F05EF8E52003F06DF8002003F058F880
:10275000002003F055F8002003F052F8002003F0A9
:102760004FF8022003F04CF8002003F049F829202C
:1027700003F046F8002003F043F83C2003F040F853
:10278000002003F03DF84B2003F03AF8002003F05E
:1027900037F85D2003F034F8002003F031F874209E
:1027A00003F02EF8002003F02BF8842003F028F823
:1027B000002003F025F8932003F022F8002003F016
:1027C0001FF8A22003F01CF8002003F019F8B32032
:1027D00003F016F8002003F013F8BE2003F010F801
:1027E000002003F00DF8C42003F00AF8002003F0E5
:1027F00007F8CD2003F004F8002003F001F8D320FF
:1028000002F0FEFF002002F0FBFFDC2002F0F8FFE8
:10281000002002F0F5FFF32002F0F2FF002002F0AA
:10282000EFFFE62002F0FEFF112002F0E9FF00209A
:1028300002F0E6FF342002F0E3FF002002F0E0FFA8
:10284000562002F0DDFF002002F0DAFF762002F0D1
:10285000D7FF002002F0D4FF772002F0D1FF002044
:1028600002F0CEFF662002F0CBFF002002F0C8FF8E
:10287000882002F0C5FF002002F0C2FF992002F07C
:10288000BFFF002002F0BCFFBB2002F0B9FF002018
:1028900002F0B6FF992002F0B3FF002002F0B0FF73
:1028A000662002F0ADFF002002F0AAFF552002F0E2
:1028B000A7FF002002F0A4FF552002F0A1FF002096
:1028C00002F09EFF452002F09BFF002002F098FFDF
:1028D000432002F095FF002002F092FF442002F016
:1028E0008FFF002002F08CFFE72002F09BFF3220D8
:1028F00002F086FF002002F083FF552002F080FFE7
:10290000002002F07DFF762002F07AFF002002F026
:1029100077FF662002F074FF002002F071FF67204D
:1029200002F06EFF002002F06BFF672002F068FFEC
:10293000002002F065FF872002F062FF002002F015
:102940005FFF992002F05CFF002002F059FFBB20DE
:1029500002F056FF002002F053FF992002F050FFD2
:10296000002002F04DFF772002F04AFF002002F025
:1029700047FF442002F044FF002002F041FF5620B0
:1029800002F03EFF002002F03BFF232002F038FF60
:10299000002002F035FF332002F032FF002002F069
:1029A0002FFF452002F02CFF002002F029FFE82035
:1029B00002F038FF002002F023FF002002F020FF89
:1029C000992002F01DFF002002F01AFF872002F07C
:1029D00017FF002002F014FF882002F011FF0020F2
:1029E00002F00EFF772002F00BFF002002F008FF3C
:1029F000662002F005FF002002F002FF882002F0AE
:102A0000FFFE002002F0FCFEAA2002F0F9FE0020EA
:102A100002F0F6FEBB2002F0F3FE002002F0F0FE12
:102A2000992002F0EDFE002002F0EAFE662002F09E
:102A3000E7FE002002F0E4FE552002F0E1FE002057
:102A400002F0DEFE552002F0DBFE002002F0D8FE90
:102A5000442002F0D5FE002002F0D2FE442002F015
:102A6000CFFE002002F0CCFE552002F0C9FE00206F
:102A700002F0C6FEE92002F0D5FEAA2002F0C0FE58
:102A8000002002F0BDFE002002F0BAFE002002F09D
:102A9000B7FE002002F0C6FEAA2002F0B1FECF2051
:102AA00002F0C0FE002002F0ABFE002002F0A8FE03
:102AB000002002F0A5FE002002F0A2FE002002F09D
:102AC0009FFE002002F09CFE002002F099FE0020F4
:102AD00002F096FE002002F093FE002002F090FE2D
:102AE000002002F08DFE002002F08AFE002002F09D
:102AF00087FE002002F084FE002002F081FE00200C
:102B000002F07EFE002002F07BFEF02002F08AFE42
:102B1000002002F075FE502002F072FE002002F04C
:102B20006FFE002002F06CFE002002F069FEF32030
:102B300002F078FE002002F063FEF92002F072FE3F
:102B4000062002F05DFE102002F05AFE292002F05D
:102B500057FE002002F054FE3A2002F063FE55209A
:102B600002F04EFE112002F05DFE642003F088F8B2
:102B7000292002F057FE352002F054FE002002F01A
:102B80003FFE512002F04EFEFF2002F039FE53209E
:102B900002F048FE2C2002F033FE552002F042FEE7
:102BA000822002F02DFE2C20FDE3A8427DD14FF4BF
:102BB00070445521204602F04DFE651CAA2128468E
:102BC00002F048FEA61C5221304602F043FEE71CEC
:102BD0000821384602F03EFE4FF20408012140462B
:102BE00002F038FE0D214FF4304002F033FE0D218B
:102BF0004BF2010002F02EFE0D214BF2020002F01A
:102C000029FE4FF436493421484602F023FE342190
:102C10004BF2016002F01EFE34214BF2026002F022
:102C200019FE4FF4314B0D21584602F013FE0D21D1
:102C30004BF2011002F00EFE0D214BF2021002F0D9
:102C400009FE34214FF4374002F004FE34214BF2E8
:102C5000017002F0FFFD34214BF2027002F0FAFD28
:102C600000214FF4324002F0F5FD00214BF201202B
:102C700002F0F0FD00214BF2022002F0EBFD2421D6
:102C80004FF4384002F0E6FD24214BF6010002F03B
:102C9000E1FD24214BF6020002F0DCFD01214FF49E
:102CA0003F4002F0D7FD0F2100E0FDE34FF4334039
:102CB00002F0D0FD0F214BF2013002F0CBFD0F21CD
:102CC0004BF2023002F0C6FD34214FF4394002F0DD
:102CD000C1FD34214BF6011002F0BCFD34214BF64E
:102CE000021002F0B7FD08214FF4354002F0B2FDAA
:102CF00008214BF2015002F0ADFD08214BF20250C9
:102D000002F0A8FD03214FF4424002F0A3FD24216C
:102D10004FF43A4002F09EFD24214BF6012002F0D0
:102D200099FD24214BF6022002F094FD00214FF47E
:102D30003C4002F08FFD78214BF6014002F08AFD05
:102D400000214BF6024002F085FD00214FF43D408A
:102D500002F080FD78214BF6015002F07BFD00214E
:102D60004BF6025002F076FD00214FF43E4002F097
:102D700071FD64214BF6016002F06CFD00214FF4FF
:102D8000514002F067FD33214DF2011002F062FD67
:102D900000214DF2021002F05DFD34214DF20310CE
:102DA00002F058FD00214DF2041002F053FD3A21CB
:102DB0004DF2051002F04EFD00214DF2061002F01A
:102DC00049FD4A214DF2071002F044FD00214DF269
:102DD000081002F03FFD5C214DF2091002F03AFDAF
:102DE00000214DF20A1002F035FD81214DF20B1049
:102DF00002F030FD00214DF20C1002F02BFDA62157
:102E00004DF20D1002F026FD00214DF20E1002F0E1
:102E100021FDE5214DF20F1002F01CFD01214DF2C4
:102E2000101002F017FD13214DF2111002F012FDE7
:102E300001214DF2121002F00DFD54214DF213103C
:102E400002F008FD01214DF2141002F003FD822171
:102E50004DF2151002F0FEFC01214DF2161002F0A9
:102E6000F9FCCA214DF2171002F0F4FC02214DF2D8
:102E7000181002F0EFFC00214DF2191002F0EAFCEC
:102E800002214DF21A1002F0E5FC01214DF21B1057
:102E900002F0E0FC02214DF21C1002F0DBFC3421B8
:102EA0004DF21D1002F0D6FC02214DF21E1002F070
:102EB000D1FC67214DF21F1002F0CCFC02214DF233
:102EC000201002F0C7FC84214DF2211002F0C2FC58
:102ED00002214DF2221002F0BDFCA4214DF223107C
:102EE00002F0B8FC02214DF2241002F0B3FCB7212D
:102EF0004DF2251002F0AEFC02214DF2261002F038
:102F0000A9FCCF214DF2271002F0A4FC02214DF2C2
:102F1000281002F09FFCDE214DF2291002F09AFCED
:102F200002214DF22A1002F095FCF2214DF22B10F5
:102F300002F090FC02214DF22C1002F08BFCFE21DD
:102F40004DF22D1002F086FC03214DF22E1002F0FE
:102F500081FC10214DF22F1002F07CFC03214DF278
:102F6000301002F077FC33214DF2311002F072FC88
:102F700003214DF2321002F06DFC6D214DF2331041
:102F800002F068FC00214FF4524002F063FC332150
:102F90004DF2012002F05EFC00214DF2022002F011
:102FA00059FC34214DF2032002F054FC00214DF273
:102FB000042002F04FFC3A214DF2052002F04AFCB9
:102FC00000214DF2062002F045FC4A214DF2072077
:102FD00002F040FC00214DF2082002F03BFC5C2195
:102FE0004DF2092002F036FC00214DF20A2002F0D9
:102FF00031FC81214DF20B2002F02CFC00214DF21E
:103000000C2002F027FCA6214DF20D2002F022FC3C
:1030100000214DF20E2002F01DFCE5214DF20F20A3
:1030200002F018FC01214DF2102002F013FC1321D4
:103030004DF2112002F00EFC01214DF2122002F09F
:1030400009FC54214DF2132002F004FC01214DF241
:10305000142002F0FFFB82214DF2152002F0FAFB52
:1030600001214DF2162002F0F5FBCA214DF2172086
:1030700002F0F0FB02214DF2182002F0EBFB0021E0
:103080004DF2192002F0E6FB02214DF21A2002F067
:10309000E1FB01214DF21B2002F0DCFB02214DF28D
:1030A0001C2002F0D7FB34214DF21D2002F0D2FB90
:1030B00002214DF21E2002F0CDFB67214DF21F20B0
:1030C00002F0C8FB02214DF2202002F0C3FB842154
:1030D0004DF2212002F0BEFB02214DF2222002F02F
:1030E000B9FBA4214DF2232002F0B4FB02214DF2E2
:1030F000242002F0AFFBB7214DF2252002F0AAFBFD
:1031000002214DF2262002F0A5FBCF214DF227200F
:1031100002F0A0FB02214DF2282002F09BFBDE21F1
:103120004DF2292002F096FB02214DF22A2002F0F6
:1031300091FBF2214DF22B2002F08CFB02214DF28B
:103140002C2002F087FBFE214DF22D2002F082FBA5
:1031500003214DF22E2002F07DFB10214DF22F2095
:1031600002F078FB03214DF2302002F073FB332193
:103170004DF2312002F06EFB03214DF2322002F0BD
:1031800069FB6D214DF2332002F064FB00214FF406
:10319000534002F05FFB33214DF2013002F05AFB45
:1031A00000214DF2023002F055FB34214DF2033084
:1031B00002F050FB00214DF2043002F04BFB3A21AB
:1031C0004DF2053002F046FB00214DF2063002F0D0
:1031D00041FB4A214DF2073002F03CFB00214DF249
:1031E000083002F037FB5C214DF2093002F032FB6F
:1031F00000214DF20A3002F02DFB81214DF20B30FF
:1032000002F028FB00214DF20C3002F023FBA62136
:103210004DF20D3002F01EFB00214DF20E3002F097
:1032200019FBE5214DF20F3002F014FB01214DF2A4
:10323000103002F00FFB13214DF2113002F00AFBA7
:1032400001214DF2123002F005FB54214DF21330F2
:1032500002F000FB01214DF2143002F0FBFA822152
:103260004DF2153002F0F6FA01214DF2163002F05F
:10327000F1FACA214DF2173002F0ECFA02214DF2B8
:10328000183002F0E7FA00214DF2193002F0E2FAAC
:1032900002214DF21A3002F0DDFA01214DF21B300D
:1032A00002F0D8FA02214DF21C3002F0D3FA342198
:1032B0004DF21D3002F0CEFA02214DF21E3002F026
:1032C000C9FA67214DF21F3002F0C4FA02214DF213
:1032D000203002F0BFFA84214DF2213002F0BAFA18
:1032E00002214DF2223002F0B5FAA4214DF2233032
:1032F00002F0B0FA02214DF2243002F0ABFAB7210D
:103300004DF2253002F0A6FA02214DF2263002F0ED
:10331000A1FACF214DF2273002F09CFA02214DF2A2
:10332000283002F097FADE214DF2293002F092FAAD
:1033300002214DF22A3002F08DFAF2214DF22B30AB
:1033400002F088FA02214DF22C3002F083FAFE21BD
:103350004DF22D3002F07EFA03214DF22E3002F0B4
:1033600079FA10214DF22F3002F074FA03214DF258
:10337000303002F06FFA33214DF2313002F06AFA48
:1033800003214DF2323002F065FA6D214DF23330F7
:1033900002F060FA00214FF4544002F05BFA33214E
:1033A0004DF2014000E07FE302F054FA00214DF2BB
:1033B000024002F04FFA34214DF2034002F04AFA83
:1033C00000214DF2044002F045FA3A214DF2054049
:1033D00002F040FA00214DF2064002F03BFA4A2189
:1033E0004DF2074002F036FA00214DF2084002F09B
:1033F00031FA5C214DF2094002F02CFA00214DF225
:103400000A4002F027FA81214DF20B4002F022FA25
:1034100000214DF20C4002F01DFAA6214DF20D40A4
:1034200002F018FA00214DF20E4002F013FAE521E5
:103430004DF20F4002F00EFA01214DF2104002F061
:1034400009FA13214DF2114002F004FA01214DF264
:10345000124002F0FFF954214DF2134002F0FAF944
:1034600001214DF2144002F0F5F982214DF2154090
:1034700002F0F0F901214DF2164002F0EBF9CA21F9
:103480004DF2174002F0E6F902214DF2184002F029
:10349000E1F900214DF2194002F0DCF902214DF270
:1034A0001A4002F0D7F900E002E301214DF21B407F
:1034B00002F0D0F902214DF21C4002F0CBF9342188
:1034C0004DF21D4002F0C6F902214DF21E4002F0FD
:1034D000C1F967214DF21F4002F0BCF902214DF203
:1034E000204002F0B7F984214DF2214002F0B2F9F8
:1034F00002214DF2224002F0ADF9A4214DF2234009
:1035000002F0A8F902214DF2244002F0A3F9B721FC
:103510004DF2254002F09EF902214DF2264002F0C4
:1035200099F9CF214DF2274002F094F902214DF292
:10353000284002F08FF9DE214DF2294002F08AF98D
:1035400002214DF22A4002F085F9F2214DF22B4082
:1035500002F080F902214DF22C4002F07BF9FE21AD
:103560004DF22D4002F076F903214DF22E4002F08B
:1035700071F910214DF22F4002F06CF903214DF248
:10358000304002F067F933214DF2314002F062F928
:1035900003214DF2324002F05DF96D214DF23340CE
:1035A00002F058F900214FF4554002F053F933214D
:1035B0004DF2015002F04EF900214DF2025002F09E
:1035C00049F934214DF2035002F044F900214DF243
:1035D000045002F03FF93A214DF2055002F03AF959
:1035E00000214DF2065002F035F94A214DF2075004
:1035F00002F030F900214DF2085002F02BF95C2165
:103600004DF2095002F026F900214DF20A5002F065
:1036100021F981214DF20B5002F01CF900214DF2ED
:103620000C5002F017F9A6214DF20D5002F012F9DC
:1036300000214DF20E5002F00DF9E5214DF20F5030
:1036400002F008F901214DF2105002F003F91321A4
:103650004DF2115002F0FEF801214DF2125002F02D
:10366000F9F854214DF2135002F0F4F801214DF213
:10367000145002F0EFF882214DF2155002F0EAF8F2
:1036800001214DF2165002F0E5F8CA214DF2175013
:1036900002F0E0F802214DF2185002F0DBF80021B0
:1036A0004DF2195002F0D6F802214DF21A5002F0F4
:1036B000D1F801214DF21B5002F0CCF802214DF25D
:1036C0001C5002F0C7F834214DF21D5002F0C2F830
:1036D00002214DF21E5002F0BDF867214DF21F503D
:1036E00002F0B8F802214DF2205002F0B3F8842124
:1036F0004DF2215002F0AEF802214DF2225002F0BC
:10370000A9F8A4214DF2235002F0A4F802214DF2B1
:10371000245002F09FF8B7214DF2255002F09AF89C
:1037200002214DF2265002F095F8CF214DF227509C
:1037300002F090F802214DF2285002F08BF8DE21C1
:103740004DF2295002F086F802214DF22A5002F083
:1037500081F8F2214DF22B5002F07CF802214DF25B
:103760002C5002F077F8FE214DF22D5002F072F845
:1037700003214DF22E5002F06DF810214DF22F5022
:1037800002F068F803214DF2305002F063F8332163
:103790004DF2315002F05EF803214DF2325002F04A
:1037A00059F86D214DF2335002F054F800214FF4D6
:1037B000564002F04FF833214DF2016002F04AF812
:1037C00000214DF2026002F045F834214DF2036011
:1037D00002F040F800214DF2046002F03BF83A217B
:1037E0004DF2056002F036F800214DF2066002F05D
:1037F00031F84A214DF2076002F02CF800214DF219
:10380000086002F027F85C214DF2096002F022F80E
:1038100000214DF20A6002F01DF881214DF20B608B
:1038200002F018F800214DF20C6002F013F8A62106
:103830004DF20D6002F00EF800214DF20E6002F024
:1038400009F8E5214DF20F6002F004F801214DF274
:10385000106001F0FFFF13214DF2116001F0FAFF3B
:1038600001214DF2126001F0F5FF54214DF2136079
:1038700001F0F0FF01214DF2146001F0EBFF822115
:103880004DF2156001F0E6FF01214DF2166001F0E6
:10389000E1FFCA214DF2176001F0DCFF02214DF279
:1038A000186001F0D7FF00214DF2196001F0D2FF3E
:1038B00002214DF21A6001F0CDFF01214DF21B6093
:1038C00001F0C8FF02214DF21C6001F0C3FF34215A
:1038D0004DF21D6001F0BEFF02214DF21E6001F0AD
:1038E000B9FF67214DF21F6001F0B4FF02214DF2D4
:1038F000206001F0AFFF84214DF2216001F0AAFFAA
:1039000002214DF2226001F0A5FFA4214DF22360B7
:1039100001F0A0FF02214DF2246001F09BFFB721CE
:103920004DF2256001F096FF02214DF2266001F074
:1039300091FFCF214DF2276001F08CFF02214DF263
:10394000286001F087FFDE214DF2296001F082FF3F
:1039500002214DF22A6001F07DFFF2214DF22B6031
:1039600001F078FF02214DF22C6001F073FFFE217F
:103970004DF22D6001F06EFF03214DF22E6001F03B
:1039800069FF10214DF22F6001F064FF03214DF219
:10399000306001F05FFF33214DF2316001F05AFFDA
:1039A00003214DF2326001F055FF6D214DF233607D
:1039B00001F050FF5521204601F04CFFAA21284676
:1039C00001F048FF5221304601F044FF08213846FB
:1039D00001F040FF0021404601F03CFFCC21584659
:1039E00001F038FF00214BF2011001F033FF0521F7
:1039F000484601F02FFF70214FF4374001F02AFFB5
:103A000070214BF2017001F025FF01214FF4384085
:103A100001F020FF03214BF6010001F01BFF032101
:103A20004BF6020001F016FF03214BF6030001F0F4
:103A300011FF02214FF43C4001F00CFF00214BF636
:103A4000014001F007FF00214BF6024001F002FFA8
:103A5000D0214FF4494001F0FDFE02214CF6011047
:103A600001F0F8FE50214CF6021001F0F3FE502157
:103A70004CF6031001F0EEFE50214CF6041001F05C
:103A8000E9FE00214FF4545001F0E4FE55214FF4BB
:103A9000685001F0DFFE4FF4885001F0C3FE78203B
:103AA00002F0FCF84FF4245001F0BCFE01F053BAD0
:103AB000A0F513414FF480774FF4E06640F20228FE
:103AC00040F23F144FF42749253933D0F51DA0F5B6
:103AD000134128397DD0A0F513414FF4887920395E
:103AE00078D0A0F513414FF4007B313973D0A0F5A5
:103AF000A841083970D0A0F5A8514FF44079053994
:103B00006BD0A0F53541053968D0A0F545410539A0
:103B100065D0A0F5094189397DD0A0F58A413139B8
:103B20007AD0A0F58A41353977D0A0F5C8516339EC
:103B300074D0BBE747F6F001E52001F08BFE394673
:103B4000012001F087FE3146022001F083FE41F2A0
:103B50003001032001F07EFE0021042001F07AFEF6
:103B60004146082001F076FE0021092001F072FE96
:103B700000210A2001F06EFE00210C2001F06AFEF7
:103B800000210D2001F066FE00210F2001F062FEF1
:103B90000021102001F05EFE0721112001F05AFEE5
:103BA0000021122001F056FE0021132001F052FEE8
:103BB0000021072001F04EFE41F29061102001F03B
:103BC00049FE40F22721112001F044FE9D211220E0
:103BD00006E087E042E1E6E1B9E254E3FEE3FEE31A
:103BE00001F038FE4FF4C851132001F033FE2521B7
:103BF000292001F02FFE0D212B2001F02BFE0721A3
:103C0000302001F027FE40F20331312001F022FE86
:103C10000321322003E0FDE3FDE3FDE3FDE301F0DA
:103C200019FE40F20621352001F014FE082136204D
:103C300001F010FE40F20641372001F00BFE4FF478
:103C40004171382001F006FE0721392001F002FE03
:103C500040F202613C2001F0FDFD08213D2001F011
:103C6000F9FD0021502001F0F5FDEF21512001F078
:103C7000F1FD0021522001F0EDFD2146532001F01D
:103C8000E9FD4946602001F0E5FD0121612001F0D8
:103C9000E1FD00216A2001F0DDFD0021802001F01E
:103CA000D9FD0021812001F0D5FD0021822001F005
:103CB000D1FD0021832001F0CDFD0021842001F001
:103CC000C9FD0021852001F0C5FD1021902001F0E3
:103CD000C1FD4FF4C061922001F0BCFD40F23311F0
:103CE0000720FDE341F28F01EC2001F0B3FD41F22A
:103CF0003421EF2001F0AEFD3946012001F0AAFD8C
:103D00003146022001F0A6FD41F23001032001F00E
:103D1000A1FD0021042001F09DFD4146082001F095
:103D200099FD0021092001F095FD00210A2001F0F4
:103D300091FD01210C2001F08DFD00210D2001F0ED
:103D400089FD00210F2001F085FD0021102001F0E8
:103D500081FD0721112001F07DFD0021122001F0DD
:103D600079FD0021132001F075FD0121072001F0EC
:103D700071FD322001F084FF41F29041102001F0EA
:103D800069FD40F22721112001F064FD322001F08D
:103D900077FF8A21122001F05DFD322001F070FFD3
:103DA0004FF4D051132001F055FD0621292001F0D8
:103DB00051FD0D212B2001F04DFD322001F060FF5F
:103DC0000021202001F046FD0021212001F042FDCC
:103DD000322001F055FF0021302001F03BFD40F280
:103DE0000461312001F036FD40F20531322001F04E
:103DF00031FD0021352001F02DFD40F6094136202E
:103E000001F028FD4FF40171372001F023FD40F24D
:103E10000131382001F01EFD2946392001F01AFD3C
:103E200000213C2001F016FD40F60A213D2001F062
:103E300011FD322001F024FF0021502001F00AFD85
:103E4000EF21512001F006FD0021522001F002FD7A
:103E50002146532001F0FEFC49464DE10021084671
:103E600001F0F8FC3946012001F0F4FC3146022053
:103E700001F0F0FC41F23001032001F0EBFC0021E5
:103E8000042001F0E7FC4146082001F0E3FC00219A
:103E9000092001F0DFFC00210A2001F0DBFC0121F8
:103EA0000C2001F0D7FC00210D2001F0D3FC0021F3
:103EB0000F2001F0CFFC322001F0E2FE40F20111B0
:103EC000072001F0C7FC322001F0DAFE4FF48651E2
:103ED000102001F0BFFC0721112001F0BBFC4D4672
:103EE0004946122001F0B6FC4FF43061132001F076
:103EF000B1FC0021292001F0ADFC44F210012B207F
:103F000001F0A8FC0021502001F0A4FCEF21512079
:103F100001F0A0FC0021522001F09CFC214653201E
:103F200001F098FC4FF41C51602001F093FC01213A
:103F3000612001F08FFC00216A2001F08BFC002140
:103F4000802001F087FC0021812001F083FC00210A
:103F5000822001F07FFC0021832001F07BFC002106
:103F6000842001F077FC0021852001F073FC1021F2
:103F7000902001F06FFC0021922001F06BFC0121E8
:103F8000932001F067FC2946952001F063FC002195
:103F9000972001F05FFC0021982001F05BFC40F2CB
:103FA000731107207EE341F21401E72001F052FC77
:103FB0003946012001F04EFC5946022001F04AFC2E
:103FC00041F23801032001F045FC4146082001F090
:103FD00041FC0021092001F03DFC00210A2001F0F4
:103FE00039FC00210C2001F035FC00210D2001F0EE
:103FF00031FC00210F2001F02DFC0021102001F0E8
:1040000029FC0721112001F025FC0021122001F0DC
:1040100021FC0021132001F01DFCC82001F030FE1E
:1040200041F29061102001F015FC40F2272111208F
:1040300001F010FC322001F023FE0C21122001F0CF
:1040400009FC322001F01CFE4FF40061132001F046
:1040500001FC1121292001F0FDFB0B212B2001F097
:10406000F9FB322001F00CFE0021202001F0F2FBD0
:104070002146212001F0EEFB0021302001F0EAFB77
:104080004FF483763146312001F0E4FB00213220E9
:1040900001F0E0FB4FF40171352001F0DBFB41F250
:1040A0000A61362001F0D6FB2946372001F0D2FB09
:1040B0003146382001F0CEFB2946392001F0CAFBF9
:1040C00040F202413C2001F0C5FB40F60F413D208B
:1040D00001F0C0FB0021502001F0BCFBEF2151207A
:1040E00001F0B8FB0021522001F0B4FB214653201F
:1040F00001F0B0FB4FF41C51602001F0ABFB01213B
:10410000612001F0A7FB00216A2001F0A3FB002140
:10411000802001F09FFB0021812001F09BFB00210A
:10412000822001F097FB0021832001F093FB002106
:10413000842001F08FFB0021852001F08BFB1021F2
:10414000902001F087FB4FF4C0619220FEE33946D6
:10415000012001F07FFB3146022001F07BFB41F2A0
:104160003001032001F076FB0021042001F072FBF6
:1041700040F20721082001F06DFB0021092001F029
:1041800069FB00210A2001F065FB00210C2001F0F1
:1041900061FB00210D2001F05DFB00210F2001F0EB
:1041A00059FB142001F06CFD41F2B061102001F0C8
:1041B00051FB0121112001F04DFB0121172001F0DD
:1041C00049FB4FF49C71122001F044FB4FF4006155
:1041D000132001F03FFB0921292001F03BFB0921BD
:1041E0002A2001F037FB0021A42001F033FB00213D
:1041F000502001F02FFBEF21512001F02BFB00217B
:10420000522001F027FB2146532001F023FB4FF4FD
:104210001C51602001F01EFB0121612001F01AFBFE
:1042200000216A2001F016FB0021802001F012FB22
:104230000021812001F00EFB0021822001F00AFB09
:104240000021832001F006FB0021842001F002FB05
:104250000021852001F0FEFA1321902001F0FAFAE6
:104260000021922001F0F6FA0321932001F0F2FAE6
:104270004946952001F0EEFA40F27311072001F053
:10428000E9FA32200EE10021072001F0E3FA3220A2
:1042900001F0F6FC4FF48E71122001F0DBFA0121DF
:1042A000A42001F0D7FA0F21082001F0D3FA082149
:1042B0000A2001F0CFFA08210D2001F0CBFA29469F
:1042C000302001F0C7FA0721312001F0C3FA40F293
:1042D0000361322001F0BEFA3146332001F0BAFA10
:1042E0004146342001F0B6FA0221352001F0B2FA3D
:1042F00041F60F71362001F0ADFA2946372001F062
:10430000A9FA0021382001F0A5FA0021392001F096
:10431000A1FA29463A2001F09DFA00213B2001F044
:1043200099FA07213C2001F095FA00213D2001F087
:1043300091FA322001F0A4FC0121072001F08AFA51
:104340000121172001F086FA322001F099FC4FF488
:10435000BD51102001F07EFA40F21721112001F02A
:1043600079FA4FF48F71122001F074FA4FF47061F2
:10437000132001F06FFA00212A2001F06BFA0A21C4
:10438000292001F067FA4FF49F71122001F062FAC0
:104390000021502001F05EFAEF21512001F05AFA7D
:1043A0000021522001F056FA2146532001F052FA22
:1043B0004FF41C51602001F04DFA0121612001F001
:1043C00049FA00216A2001F045FA0021802001F01D
:1043D00041FA0021812001F03DFA01E065E062E14F
:1043E0000021822001F036FA0021832001F032FA08
:1043F0000021842001F02EFA0021852001F02AFA04
:104400001321902001F026FA4946922001F022FA69
:10441000052103E00FE2C3E277E3FDE3932001F01F
:1044200019FA0021952001F015FA0021972001F0DA
:1044300011FA0021982001F00DFA3946012001F00F
:1044400009FA3146022001F005FA41F23801032051
:1044500001F000FA0021042001F0FCF900210C20F9
:1044600001F0F8F900210F2001F0F4F900212020DB
:1044700001F0F0F90021212001F0ECF921210720C1
:1044800001F0E8F9142001F0FBFB6121072001F0A5
:10449000E1F9142001F0F4FB40F27311072001F060
:1044A000D9F9142001F0ECFB2EE30021084601F0BD
:1044B000D1F90021084601F0CDF90021084601F0AC
:1044C000C9F90021084601F0C5F90121A42001F035
:1044D000C1F9142001F0D4FB4FF41C59494600E007
:1044E000DCE0602001F0B6F945464146082001F0C5
:1044F000B1F94FF40571302001F0ACF943F21571B8
:10450000312001F0A7F940F20461322001F0A2F954
:1045100040F61661332001F09DF942F2112134205A
:1045200001F098F94FF4A851352001F093F948F2C1
:104530000751362001F08EF941F20741372001F092
:1045400089F941F20341382001F084F92021392012
:1045500001F080F91A21902001F07CF9002110204F
:1045600001F078F90721112001F074F900211220DF
:1045700001F070F90021132001F06CF9142001F012
:104580007FFB4FF4E661102001F064F940F237112F
:10459000112001F05FF9142001F072FB4FF4DC717F
:1045A000122001F057F9142001F06AFB4FF47061FA
:1045B000132001F04FF980212A2001F04BF9482106
:1045C000292001F047F9142001F05AFB3946012057
:1045D00001F040F93146022001F03CF941F2380186
:1045E000032001F037F92946082001F033F90021B2
:1045F0000A2001F02FF900210C2001F02BF90021F5
:104600000D2001F027F930210E2001F023F90021BF
:10461000502001F01FF9EF21512001F01BF900217A
:10462000522001F017F92146532001F013F94946B1
:10463000602001F00FF90121612001F00BF9002148
:104640006A2001F007F91121902001F003F94FF4DD
:10465000C061922001F0FEF840F20241932001F087
:10466000F9F80221942001F0F5F8142001F008FB7C
:104670000121072001F0EEF8142001F001FB612177
:10468000072001F0E7F840F27311072001F0E2F88B
:104690000021202001F0DEF80021212001F0DAF8CD
:1046A000222100202EE20021084601F0D3F800214B
:1046B000084601F0CFF8142001F0E2FA0021084684
:1046C00001F0C8F80021084601F0C4F800210846AE
:1046D00001F0C0F80021084601F0BCF80121A42037
:1046E00001F0B8F8142001F0CBFA4FF41C5160200F
:1046F00001F0B0F840F60601082001F0ABF840F2F6
:1047000003763146302001F0A5F80121312001F077
:10471000A1F80421322001F09DF84FF4817133207B
:1047200001F098F84D464946342001F093F840F2E4
:104730000311352001F08EF81F21362001F08AF890
:104740003146372001F086F80121382001F082F847
:104750000421392001F07EF81521902001F07AF82B
:104760004FF48261102001F075F840F247211120CA
:1047700001F070F84FF4DE71122001F06BF84FF485
:104780006061132001F066F8782001F079FA39466B
:10479000012001F05FF85946022001F05BF841F278
:1047A0003001032001F056F808210A2001F052F8E8
:1047B00000210C2001F04EF820210E2001F04AF8D3
:1047C00000210F2001F046F80021202001F042F8DE
:1047D0000021212001F03EF83D212A2001F03AF885
:1047E000142001F04DFA2D21292001F033F8002189
:1047F000502001F02FF84DF2EF01512001F02AF87E
:104800000021522001F026F82146532001F022F821
:104810000021612001F01EF800216A2001F01AF841
:104820002946922001F016F80521932001F012F894
:104830003946FFF7B6BB0121002001F00BF84AF61C
:10484000A401032001F006F800210C2001F002F879
:1048500040F60C010D2000F0FDFF4FF42C510E200E
:1048600000F0F8FFB0211E2000F0F4FF42F63F31C7
:10487000012000F0EFFF4FF4C061022000F0EAFFDA
:104880000021102000F0E6FF46F27801112000F030
:10489000E1FF0021052000F0DDFF0021062000F0EF
:1048A000D9FF4EF61C71162000F0D4FF032117200B
:1048B00000F0D0FF40F23321072000F0CBFF0021B1
:1048C0000B2000F0C7FF00210F2000F0C3FF0021E4
:1048D000412000F0BFFF0021422000F0BBFF00217B
:1048E000482000F0B7FF2146492000F0B3FF002127
:1048F0004A2000F0AFFF00214B2000F0ABFF4FF447
:104900006F41442000F0A6FF0021452000F0A2FFE7
:104910002146462000F09EFF2946302000F09AFFF5
:104920004FF401742146312000F094FF21463220DB
:1049300000F090FF40F202552946332000F08AFF34
:10494000691D342000F086FF214600E082E1352019
:1049500000F080FF2146362000F07CFF29463720FA
:1049600000F078FF40F2023421463A2000F072FF56
:1049700021463B2000F06EFF0021232000F06AFF5B
:104980000021242000F066FF4FF40041252000F0B4
:1049900061FF00214F2000F05DFF00214E20B1E0BB
:1049A0000121002000F056FF0A2001F069F941F2D0
:1049B0002861102000F04EFF0E21122000F04AFF67
:1049C00040F63921132000F045FF0A2001F058F984
:1049D0004021112000F03EFF5021152000F03AFF49
:1049E0000A2001F04DF91E21122000F033FF0A20A9
:1049F00001F046F94FF4B151102000F02BFF42F6C0
:104A00003921132000F026FF0A2001F039F9394638
:104A1000012000F01FFF4946022000F01BFF41F279
:104A20003801032000F016FF4146082000F012FF75
:104A300008210A2000F00EFF0021302000F00AFFBC
:104A400040F20241312000F005FF4FF48371322023
:104A500000F000FF40F20351332000F0FBFE4FF462
:104A60008271342000F0F6FE40F20131352000F072
:104A7000F1FE2946362000F0EDFE40F205313720E8
:104A800000F0E8FE4FF40271382000F0E3FE40F63B
:104A90000B71392000F0DEFE0221412000F0DAFE29
:104AA0004FF41C51602000F0D5FE0121612000F080
:104AB000D1FE4FF40471902000F0CCFE4FF48571CC
:104AC000922000F0C7FE0421932000F0C3FE394677
:104AD000A02000F0BFFE0121072000F0BBFE212135
:104AE000072000F0B7FE2321072000F0B3FE33219A
:104AF000072000F0AFFE40F23311072000F0AAFEBD
:104B00000021A02000F0A6FE25E23021152000F0B3
:104B1000A1FE10219A2000F09DFE2021112000F01E
:104B200099FE43F22841102000F094FE0221122049
:104B300000F090FE41F23801132000F08BFE282097
:104B400001F09EF81221084600F084FE282001F0B2
:104B500097F843F22041102000F07CFE43F2380128
:104B6000132000F077FE462001F08AF80021302063
:104B700000F070FE40F20241312000F06BFE40F286
:104B80000731322000F066FE4FF44171332000F00F
:104B900061FE0421342000F05DFE40F20141352029
:104BA00000F058FE2946362000F054FE40F2053150
:104BB000372000F04FFE4FF4C2642146382000F049
:104BC00049FE2146392000F045FE3946012000F01B
:104BD00041FE4946022000F03DFE41F23001032033
:104BE00000F038FE40F60801082000F033FE0821EE
:104BF0000A2000F02FFE4FF41C51602000F02AFE26
:104C00000121612000F026FE4FF49F71902000F0FA
:104C100021FE3946922000E021E000F01BFE3946DB
:104C2000932000F017FE4FF44051A02000F012FE38
:104C30001021A32000F00EFE0121072000F00AFE43
:104C40002121072000F006FE2321072000F002FEAC
:104C50003321072000F0FEFD40F23311E9E5E220A8
:104C600000F0E0FDC24C27615D46C4F814B0DFF8E7
:104C700004831D21C8F80010802666612661C4F8EF
:104C800010B02761C4F814B00220C8F800006661B3
:104C90002661C4F810B0276165610421C8F80010CE
:104CA000666126612561642000F0F8FFE02000F0D5
:104CB000B9FD27616561C8F800A0666126612561BC
:104CC0000A2000F0DDFFE02000F0ACFD2761656107
:104CD0004FF0030BC8F800B06661266125610C2017
:104CE00000F0CEFF012000F09DFD0A2000F0C8FF7B
:104CF000E62000F097FD276165612F21C8F80010BC
:104D000066612661256127616561FF20C8F80000A2
:104D100066612661256127616561C8F800006661EA
:104D200026612561B02000F07DFD276165612021AD
:104D3000C8F80010666126612561276165614FF042
:104D40000009C8F8009066612661256127616561E8
:104D5000C8F800B06661266125612761656140F28F
:104D60001F31C8F800106661266125612761656101
:104D7000C8F800A06661266125612761656140F27F
:104D8000DF11C8F800106661266125612761656141
:104D9000C8F80090666126612561B42000F042FDEC
:104DA000276165610420C8F80000666126612561FD
:104DB0002761656140F21F41C8F8001066612661F5
:104DC000256127616561C8F80090666126612561EB
:104DD000276165612E21C8F8001066612661256192
:104DE000276165614146C8F80090666126612561CA
:104DF00027616561C8F800906661266125612761B9
:104E00006561C8F80090666126612561276165616A
:104E1000C1F80090666126612561B62000F002FDB0
:104E2000276165610220C8F800006661266125617E
:104E3000276165614FF40371C8F80010666126614F
:104E4000256127616561C8F800906661266125616A
:104E5000276165611721C8F8001066612661256128
:104E6000276165611521C8F800106661266125611A
:104E700027616561C8F80090666126612561276138
:104E80006561C8F80090666126612561F02000F038
:104E9000C9FC27616561C8F800B0666126612561BB
:104EA000292000F0BFFCD02000F0BCFC2761656128
:104EB000C8F80090666126612561BE2000F0B2FC52
:104EC000276165610521C8F80010666126612561CA
:104ED00027616561FE21C8F80010666126612561C1
:104EE000276165614146C8F800A0666126612561B9
:104EF00027616561C8F800906661266125612761B8
:104F00006561C8F800906661266125612761656169
:104F1000C1F80090666126612561B82000F082FC2E
:104F200027616561C8F800B0666126612561276167
:104F30006561C8F800A0666126612561BA2000F0AD
:104F400071FC27616561C8F800A066612661256172
:104F5000642000F053F80020FCF74CFA0649C1F831
:104F6000A8A14FF6FF70FCF703FA05B0BDE8F08F7B
:104F7000001001400C0C0140000022422DE9F047D6
:104F8000DFF85C904FF08830C9F8000009F10405A3
:104F90002860134E00200C363060124CA81520619A
:104FA000470067614FF04008C4F814800E488088BD
:104FB000A0F50941893902D1022000F06FFE0848AE
:104FC00008300068C4F8108080B227614FF0333198
:104FD000C9F8001029604FF6FF713160BDE8F08715
:104FE000000C0140001001402001002010B500F02D
:104FF00019FCBDE81040FFF7C1BF00002DE9F047E4
:105000008146BE2000F00EFC204C4FF480772761D3
:1050100065156561DFF878800521C8F800108026E5
:1050200066612661256127616561484600F061FF80
:105030004FF06632174B00F06FFF00F02DFFC8F8FD
:105040000000666126612561276165610121C8F85C
:10505000001066612661256127616561FF21C8F83E
:105060000010666126612561276165610020C8F82E
:10507000000066612661256127616561C8F800004E
:10508000666126612561BDE8F087000000100140DF
:105090000C0C0140666604402DE9F04FB84C002628
:1050A0002146A279898846F6040341F66317012A4E
:1050B00001D02AB11DE099421BD0B94202D118E0BB
:1050C000B94216D1082814D2DFE800F00406080A15
:1050D0000C0E101206200CE007200AE0042008E065
:1050E000052006E0012004E0002002E0032000E0AB
:1050F0000220A1F5134C45F2103245F21055BCF1D7
:10510000410C07D0994205D0914203D0A94201D069
:10511000B9427DD1082812D2DFE800F01104060858
:105120000A0C0E1080260AE0402608E0C02606E0A1
:10513000202604E0602602E0A02600E0E026A94246
:1051400002D14FF4585000E03620914205D0A942D8
:1051500003D0B94201D046F00806994201D146F089
:105160000206314600F076FBA188B9420AD0B006AB
:105170002088628802D5904202D303E0904201D990
:10518000228060807F4EDFF800B24FF0000A4FF4BB
:1051900080774FF40078A9427BD1608900F042FB10
:1051A0003761C6F81480D946CBF800A08025756118
:1051B0003561C6F810806089401C80B200F032FB77
:1051C0003761C6F81480C9F800A075613561C6F86A
:1051D00010806089801C80B200F024FB3761C6F823
:1051E00014802088401E0112C9F8001075613561D5
:1051F000C6F810806089C01C80B200F013FB3761D4
:10520000C6F814802078401EC1B2C9F8001000E032
:1052100099E075613561C6F81080A08900F002FB45
:105220003761C6F81480C9F800A075613561C6F809
:105230001080A089401C80B200F0F4FA3761C6F8F3
:105240001480C9F800A075613561C6F81080A08986
:10525000801C80B200F0E6FA3761C6F814806088DE
:10526000401E0112C9F8001075613561C6F8108042
:10527000A089C01C80B200F0D5FA3761C6F814804E
:10528000A078401EC1B2C9F800107561356156E0C2
:10529000FFE7A146608900F0C5FA3761C6F81480BF
:1052A0005D46CBF800A0802474613461C6F810809C
:1052B0003761C6F81480CBF800A074613461C6F879
:1052C00010803761C6F81480B9F80000401E011242
:1052D000296074613461C6F810803761C6F81480A3
:1052E000C0B2286074613461C6F81080B9F80C004F
:1052F00000F098FA3761C6F81480C5F800A0746110
:105300003461C6F810803761C6F81480C5F800A073
:1053100074613461C6F810803761C6F81480B9F83A
:105320000200401E0112296074613461C6F81080C9
:105330003761C6F81480C0B2286074613461C6F861
:105340001080BDE8F08F082812D2DFE800F00406D4
:1053500008110A0C0E1030260AE0102608E020265C
:1053600006E0382604E0282602E0182600E0082699
:1053700046F48051BDE8F04F032000F06BBA000006
:1053800020010020001001400C0C01402DE9F34FDA
:1053900004464FEA102900F0FF0A0198DFF8348331
:1053A000060AC5B2B8F804104046DFF82CB34089AD
:1053B000A1F51342413A17D0A1F5A642103A13D0F5
:1053C0004346A1F5D0479A791B881B1B5B1E043FFF
:1053D00045D0A1F5C857633F7ED0A1F5AA47103F3D
:1053E0007BD0012A7AD06AE100F01CFA4FF4807079
:1053F0005C46CBF810004700CBF814704946DFF844
:10540000DC92C9F800104FF08008CBF81480CBF87C
:105410001080CBF81070CBF81000CBF81470C9F8DE
:1054200000A0CBF81480C4F810802761A9488089B7
:1054300000F0F8F9781020616761C9F80060C4F8DD
:105440001480C4F81080276120616761C9F800509A
:10545000C4F81480C4F810802761BDE8FC8F012ACD
:1054600000D19CB200F0DEF94FF480705F46CBF8BB
:1054700010004FF40078CBF81480DFF860A2210A06
:10548000CAF800104FF08009CBF81490CBF81090B8
:10549000CBF81080CBF81000CBF81480E1B2CAF83A
:1054A0000010CBF81490C7F81090C7F81080894806
:1054B000808900F0B7F94FF480703861C7F8148024
:1054C000CAF80060C7F81490C7F81090C7F81080A9
:1054D0003861C7F8148002E00AE0A9E0EEE0CAF8FB
:1054E0000050C7F81490C7F81090C7F81080B4E7C0
:1054F000002A6BD0DFF8DC8100F094F94FF480745F
:105500005846CBF810406200CBF81420734FC7F810
:1055100000908021CBF81410CBF81010CBF810209D
:10552000CBF81040CBF81420C7F800A0CBF814102B
:10553000CBF81010CBF8102004614261B8F80030AD
:105540005B1E4FEA232CC7F800C041610161026174
:1055500004614261DBB23B604161016102615D4C0B
:10556000A08900F05FF94FF480775846CBF81070AF
:105570007900CBF81410DFF864C1CCF80060802209
:10558000CBF81420CBF81020CBF81010CBF810700B
:10559000CBF81410CCF80050CBF81420CBF8102026
:1055A000CBF81010CBF81070416163885B1E1C12A1
:1055B000CCF8004042610261016107614161DBB2E8
:1055C000CCF8003042610261016146E71FFA83F8BE
:1055D00000F028F94FF480735846CBF8103059008A
:1055E000CBF814103D4C002727608022CBF8142004
:1055F000CBF81020CBF81010CBF81030CBF81410EB
:105600002760CBF81420CBF81020CBF810100361E2
:1056100041614FEA1827276042610261016103611D
:10562000416108F0FF03236042610261016196E776
:1056300000F0F8F84FF480705C46CBF810004FF49F
:105640000078CBF814804846DFF89090C9F8000045
:105650008027CBF81470CBF81070CBF810801D4861
:105660004089401C80B200F0DDF878002061C4F869
:105670001480C9F800A067612761C4F8108015483C
:10568000808900F0CFF878002061C4F81480C9F850
:10569000006067612761C4F810800E488089401C53
:1056A00080B200F0BFF878002061C4F81480C9F817
:1056B000005067612761C4F81080CEE69CB2214695
:1056C00000F0C8F8B8F80C000199BDE8FC4F00F0F4
:1056D000C1B8000020010020001001400C0C014066
:1056E0002DE9F84F82461F460C468B46580700D0DE
:1056F000012000EBD70079084843203AC0B202F0FD
:10570000FF090026009041E00C2F10D0102F12D07E
:10571000182F3ED1204909EBC90001EB80004FF062
:105720000008855D28060AD51C4802880BE009EBB5
:1057300049001B49F1E71B4901EB0910EFE70A9803
:1057400028B91648428821465046FBF7EDFE680608
:10575000050E1548641CA4B24088A04219D9A4EBD8
:105760000B00B84209D10AF101001FFA80FA0E4875
:105770005C46018851450CD906E008F1010000F0B3
:10578000FF08B8F1080FCDD3761CF6B20098864218
:10579000BAD3BDE8F88F0000906B00081400002019
:1057A0002C610008A0650008200100202DE9F84FB9
:1057B000044600F0FF0810190D46DDE90A761FFACD
:1057C00080FA58191FFA80F94FF0000B11E0544588
:1057D00002D3E819444685B24D450FD23B462946CF
:1057E0002046CDF800B0FFF77BFF04EB570084B2F2
:1057F000761C3278A2F120005E28E8D9BDE8F88F47
:1058000006494FF480720A614A154A61044B1860D8
:105810008020486108610A61704700000010014063
:105820000C0C014006494FF480724A614A154A61E6
:10583000044B18608020486108610A6170470000CD
:10584000001001400C0C014001480089FFF7EABF3D
:105850002001002010B50C46FFF7E4FF06484FF486
:10586000807101614215426104490C6080214161EF
:105870000161026110BD0000001001400C0C0140EC
:1058800070B5194886B0816941F004018161816970
:1058900001F004010491816941F020018161806976
:1058A0004FF4807400F0200004900120CDE9004006
:1058B000029003200D4D039069462846FAF78EFEAC
:1058C0000B4E0422694630460092FAF787FE012209
:1058D00021462846FAF778FF012204213046FAF7DC
:1058E00073FF06B070BD00000010024000080140C8
:1058F00000140140FEE770470907090E002806DA88
:1059000000F00F0000F1E02080F8141D704700F156
:10591000E02080F8001470477047704730B58FB0B2
:10592000012100910225090400240795CDE9011405
:10593000CDE908106846FBF7F7F800B1FEE70F2045
:10594000CDE90A054FF48060CDE90C4002210AA898
:105950000E94FAF7AFFF002800D0FEE70FB030BD7D
:10596000FAF73EBF0D48016841F00101016041684E
:105970000B4A1140416001680A4A11400160016808
:1059800021F480210160416821F4FE0141604FF45F
:105990001F0181600449C003086070470010024085
:1059A0000000FFF8FFFFF6FE08ED00E010B590F8EC
:1059B0003910222903D0322901D0022010BD81687C
:1059C000B1F5805F11D00169002901681FD04968D5
:1059D00001F07F03816A4A1C82620B70C18D491EEF
:1059E0000904090CC18518D02FE00269816A002AD8
:1059F0000268526805D0D2B20A80816A491C81626D
:105A0000ECE7C2F308020A80816A891CF7E74A685A
:105A1000816A4B1C83620A70E0E70168CA6822F061
:105A20002002CA6090F83910322910D00168CA6883
:105A300022F48072CA6001684A6922F001024A6158
:105A4000012180F83910FBF765FC002010BD122100
:105A5000F7E700002DE9F041044600680169E268BB
:105A600021F4405111430161A1682069014360693B
:105A700001432068C26841F20C639A430A43C26042
:105A800020684169A26921F44071114341614C4988
:105A900020686426322788423CD1FAF7E9FF00EB00
:105AA000C00101EB001061688900B0FBF1F5FAF765
:105AB000DFFF00EBC00101EB00106168B846890010
:105AC000B0FBF1F0B0FBF6F06FF01801484305EBC6
:105AD000800107EB0110B0FBF6F000F0F005FAF7DB
